{
  "_format": "hh-sol-artifact-1",
  "contractName": "PIZZABOX",
  "sourceName": "contracts/Sonic/PIZZABOX.sol",
  "abi": [
    {
      "inputs": [
        {
          "internalType": "uint256",
          "name": "initial_mint",
          "type": "uint256"
        }
      ],
      "stateMutability": "nonpayable",
      "type": "constructor"
    },
    {
      "inputs": [],
      "name": "ERC721EnumerableForbiddenBatchMint",
      "type": "error"
    },
    {
      "inputs": [
        {
          "internalType": "address",
          "name": "sender",
          "type": "address"
        },
        {
          "internalType": "uint256",
          "name": "tokenId",
          "type": "uint256"
        },
        {
          "internalType": "address",
          "name": "owner",
          "type": "address"
        }
      ],
      "name": "ERC721IncorrectOwner",
      "type": "error"
    },
    {
      "inputs": [
        {
          "internalType": "address",
          "name": "operator",
          "type": "address"
        },
        {
          "internalType": "uint256",
          "name": "tokenId",
          "type": "uint256"
        }
      ],
      "name": "ERC721InsufficientApproval",
      "type": "error"
    },
    {
      "inputs": [
        {
          "internalType": "address",
          "name": "approver",
          "type": "address"
        }
      ],
      "name": "ERC721InvalidApprover",
      "type": "error"
    },
    {
      "inputs": [
        {
          "internalType": "address",
          "name": "operator",
          "type": "address"
        }
      ],
      "name": "ERC721InvalidOperator",
      "type": "error"
    },
    {
      "inputs": [
        {
          "internalType": "address",
          "name": "owner",
          "type": "address"
        }
      ],
      "name": "ERC721InvalidOwner",
      "type": "error"
    },
    {
      "inputs": [
        {
          "internalType": "address",
          "name": "receiver",
          "type": "address"
        }
      ],
      "name": "ERC721InvalidReceiver",
      "type": "error"
    },
    {
      "inputs": [
        {
          "internalType": "address",
          "name": "sender",
          "type": "address"
        }
      ],
      "name": "ERC721InvalidSender",
      "type": "error"
    },
    {
      "inputs": [
        {
          "internalType": "uint256",
          "name": "tokenId",
          "type": "uint256"
        }
      ],
      "name": "ERC721NonexistentToken",
      "type": "error"
    },
    {
      "inputs": [
        {
          "internalType": "address",
          "name": "owner",
          "type": "address"
        },
        {
          "internalType": "uint256",
          "name": "index",
          "type": "uint256"
        }
      ],
      "name": "ERC721OutOfBoundsIndex",
      "type": "error"
    },
    {
      "inputs": [],
      "name": "InvalidOnwer",
      "type": "error"
    },
    {
      "inputs": [],
      "name": "InvalidTokenID",
      "type": "error"
    },
    {
      "inputs": [
        {
          "internalType": "address",
          "name": "owner",
          "type": "address"
        }
      ],
      "name": "OwnableInvalidOwner",
      "type": "error"
    },
    {
      "inputs": [
        {
          "internalType": "address",
          "name": "account",
          "type": "address"
        }
      ],
      "name": "OwnableUnauthorizedAccount",
      "type": "error"
    },
    {
      "anonymous": false,
      "inputs": [
        {
          "indexed": true,
          "internalType": "address",
          "name": "owner",
          "type": "address"
        },
        {
          "indexed": true,
          "internalType": "address",
          "name": "approved",
          "type": "address"
        },
        {
          "indexed": true,
          "internalType": "uint256",
          "name": "tokenId",
          "type": "uint256"
        }
      ],
      "name": "Approval",
      "type": "event"
    },
    {
      "anonymous": false,
      "inputs": [
        {
          "indexed": true,
          "internalType": "address",
          "name": "owner",
          "type": "address"
        },
        {
          "indexed": true,
          "internalType": "address",
          "name": "operator",
          "type": "address"
        },
        {
          "indexed": false,
          "internalType": "bool",
          "name": "approved",
          "type": "bool"
        }
      ],
      "name": "ApprovalForAll",
      "type": "event"
    },
    {
      "anonymous": false,
      "inputs": [
        {
          "indexed": true,
          "internalType": "address",
          "name": "previousOwner",
          "type": "address"
        },
        {
          "indexed": true,
          "internalType": "address",
          "name": "newOwner",
          "type": "address"
        }
      ],
      "name": "OwnershipTransferred",
      "type": "event"
    },
    {
      "anonymous": false,
      "inputs": [
        {
          "indexed": true,
          "internalType": "address",
          "name": "from",
          "type": "address"
        },
        {
          "indexed": true,
          "internalType": "address",
          "name": "to",
          "type": "address"
        },
        {
          "indexed": true,
          "internalType": "uint256",
          "name": "tokenId",
          "type": "uint256"
        }
      ],
      "name": "Transfer",
      "type": "event"
    },
    {
      "inputs": [],
      "name": "SYMBOL",
      "outputs": [
        {
          "internalType": "string",
          "name": "",
          "type": "string"
        }
      ],
      "stateMutability": "view",
      "type": "function"
    },
    {
      "inputs": [],
      "name": "TOKEN_NAME",
      "outputs": [
        {
          "internalType": "string",
          "name": "",
          "type": "string"
        }
      ],
      "stateMutability": "view",
      "type": "function"
    },
    {
      "inputs": [],
      "name": "URI",
      "outputs": [
        {
          "internalType": "string",
          "name": "",
          "type": "string"
        }
      ],
      "stateMutability": "view",
      "type": "function"
    },
    {
      "inputs": [
        {
          "internalType": "address",
          "name": "to",
          "type": "address"
        },
        {
          "internalType": "uint256",
          "name": "tokenId",
          "type": "uint256"
        }
      ],
      "name": "approve",
      "outputs": [],
      "stateMutability": "nonpayable",
      "type": "function"
    },
    {
      "inputs": [
        {
          "internalType": "address",
          "name": "owner",
          "type": "address"
        }
      ],
      "name": "balanceOf",
      "outputs": [
        {
          "internalType": "uint256",
          "name": "",
          "type": "uint256"
        }
      ],
      "stateMutability": "view",
      "type": "function"
    },
    {
      "inputs": [
        {
          "internalType": "uint256",
          "name": "amount",
          "type": "uint256"
        }
      ],
      "name": "cook",
      "outputs": [],
      "stateMutability": "nonpayable",
      "type": "function"
    },
    {
      "inputs": [
        {
          "internalType": "uint256",
          "name": "tokenId",
          "type": "uint256"
        }
      ],
      "name": "getApproved",
      "outputs": [
        {
          "internalType": "address",
          "name": "",
          "type": "address"
        }
      ],
      "stateMutability": "view",
      "type": "function"
    },
    {
      "inputs": [
        {
          "internalType": "address",
          "name": "owner",
          "type": "address"
        },
        {
          "internalType": "address",
          "name": "operator",
          "type": "address"
        }
      ],
      "name": "isApprovedForAll",
      "outputs": [
        {
          "internalType": "bool",
          "name": "",
          "type": "bool"
        }
      ],
      "stateMutability": "view",
      "type": "function"
    },
    {
      "inputs": [],
      "name": "name",
      "outputs": [
        {
          "internalType": "string",
          "name": "",
          "type": "string"
        }
      ],
      "stateMutability": "view",
      "type": "function"
    },
    {
      "inputs": [],
      "name": "owner",
      "outputs": [
        {
          "internalType": "address",
          "name": "",
          "type": "address"
        }
      ],
      "stateMutability": "view",
      "type": "function"
    },
    {
      "inputs": [
        {
          "internalType": "uint256",
          "name": "tokenId",
          "type": "uint256"
        }
      ],
      "name": "ownerOf",
      "outputs": [
        {
          "internalType": "address",
          "name": "",
          "type": "address"
        }
      ],
      "stateMutability": "view",
      "type": "function"
    },
    {
      "inputs": [],
      "name": "registerMe",
      "outputs": [],
      "stateMutability": "nonpayable",
      "type": "function"
    },
    {
      "inputs": [],
      "name": "renounceOwnership",
      "outputs": [],
      "stateMutability": "nonpayable",
      "type": "function"
    },
    {
      "inputs": [
        {
          "internalType": "address",
          "name": "from",
          "type": "address"
        },
        {
          "internalType": "address",
          "name": "to",
          "type": "address"
        },
        {
          "internalType": "uint256",
          "name": "tokenId",
          "type": "uint256"
        }
      ],
      "name": "safeTransferFrom",
      "outputs": [],
      "stateMutability": "nonpayable",
      "type": "function"
    },
    {
      "inputs": [
        {
          "internalType": "address",
          "name": "from",
          "type": "address"
        },
        {
          "internalType": "address",
          "name": "to",
          "type": "address"
        },
        {
          "internalType": "uint256",
          "name": "tokenId",
          "type": "uint256"
        },
        {
          "internalType": "bytes",
          "name": "data",
          "type": "bytes"
        }
      ],
      "name": "safeTransferFrom",
      "outputs": [],
      "stateMutability": "nonpayable",
      "type": "function"
    },
    {
      "inputs": [
        {
          "internalType": "address",
          "name": "operator",
          "type": "address"
        },
        {
          "internalType": "bool",
          "name": "approved",
          "type": "bool"
        }
      ],
      "name": "setApprovalForAll",
      "outputs": [],
      "stateMutability": "nonpayable",
      "type": "function"
    },
    {
      "inputs": [
        {
          "internalType": "bytes4",
          "name": "interfaceId",
          "type": "bytes4"
        }
      ],
      "name": "supportsInterface",
      "outputs": [
        {
          "internalType": "bool",
          "name": "",
          "type": "bool"
        }
      ],
      "stateMutability": "view",
      "type": "function"
    },
    {
      "inputs": [],
      "name": "symbol",
      "outputs": [
        {
          "internalType": "string",
          "name": "",
          "type": "string"
        }
      ],
      "stateMutability": "view",
      "type": "function"
    },
    {
      "inputs": [
        {
          "internalType": "uint256",
          "name": "index",
          "type": "uint256"
        }
      ],
      "name": "tokenByIndex",
      "outputs": [
        {
          "internalType": "uint256",
          "name": "",
          "type": "uint256"
        }
      ],
      "stateMutability": "view",
      "type": "function"
    },
    {
      "inputs": [
        {
          "internalType": "address",
          "name": "owner",
          "type": "address"
        },
        {
          "internalType": "uint256",
          "name": "index",
          "type": "uint256"
        }
      ],
      "name": "tokenOfOwnerByIndex",
      "outputs": [
        {
          "internalType": "uint256",
          "name": "",
          "type": "uint256"
        }
      ],
      "stateMutability": "view",
      "type": "function"
    },
    {
      "inputs": [
        {
          "internalType": "uint256",
          "name": "tokenId",
          "type": "uint256"
        }
      ],
      "name": "tokenURI",
      "outputs": [
        {
          "internalType": "string",
          "name": "",
          "type": "string"
        }
      ],
      "stateMutability": "view",
      "type": "function"
    },
    {
      "inputs": [],
      "name": "totalSupply",
      "outputs": [
        {
          "internalType": "uint256",
          "name": "",
          "type": "uint256"
        }
      ],
      "stateMutability": "view",
      "type": "function"
    },
    {
      "inputs": [
        {
          "internalType": "address",
          "name": "from",
          "type": "address"
        },
        {
          "internalType": "address",
          "name": "to",
          "type": "address"
        },
        {
          "internalType": "uint256",
          "name": "tokenId",
          "type": "uint256"
        }
      ],
      "name": "transferFrom",
      "outputs": [],
      "stateMutability": "nonpayable",
      "type": "function"
    },
    {
      "inputs": [
        {
          "internalType": "address",
          "name": "newOwner",
          "type": "address"
        }
      ],
      "name": "transferOwnership",
      "outputs": [],
      "stateMutability": "nonpayable",
      "type": "function"
    },
    {
      "inputs": [
        {
          "internalType": "string",
          "name": "newURI",
          "type": "string"
        }
      ],
      "name": "updateURI",
      "outputs": [],
      "stateMutability": "nonpayable",
      "type": "function"
    }
  ],
  "bytecode": "0x60806040523480156200001157600080fd5b506040516200439c3803806200439c83398181016040528101906200003791906200112c565b620000476200015c60201b60201c565b60405180606001604052806024815260200162004378602491396040518060400160405280600881526020017f50495a5a41424f580000000000000000000000000000000000000000000000008152508160009081620000a89190620013ce565b508060019081620000ba9190620013ce565b505050600073ffffffffffffffffffffffffffffffffffffffff168173ffffffffffffffffffffffffffffffffffffffff1603620001325760006040517f1e4fbdf7000000000000000000000000000000000000000000000000000000008152600401620001299190620014fa565b60405180910390fd5b62000143816200016460201b60201c565b5062000155816200022a60201b60201c565b5062001675565b600033905090565b6000600a60009054906101000a900473ffffffffffffffffffffffffffffffffffffffff16905081600a60006101000a81548173ffffffffffffffffffffffffffffffffffffffff021916908373ffffffffffffffffffffffffffffffffffffffff1602179055508173ffffffffffffffffffffffffffffffffffffffff168173ffffffffffffffffffffffffffffffffffffffff167f8be0079c531659141344cd1fd0a4f28419497f9722a3daafe3b4186f6b6457e060405160405180910390a35050565b6200023a6200028760201b60201c565b60005b818110156200028357620002753360016200025d6200032960201b60201c565b62000269919062001546565b6200033660201b60201c565b80806001019150506200023d565b5050565b620002976200015c60201b60201c565b73ffffffffffffffffffffffffffffffffffffffff16620002bd6200043d60201b60201c565b73ffffffffffffffffffffffffffffffffffffffff16146200032757620002e96200015c60201b60201c565b6040517f118cdaa70000000000000000000000000000000000000000000000000000000081526004016200031e9190620014fa565b60405180910390fd5b565b6000600880549050905090565b600073ffffffffffffffffffffffffffffffffffffffff168273ffffffffffffffffffffffffffffffffffffffff1603620003ab5760006040517f64a0ae92000000000000000000000000000000000000000000000000000000008152600401620003a29190620014fa565b60405180910390fd5b6000620003c1838360006200046760201b60201c565b9050600073ffffffffffffffffffffffffffffffffffffffff168173ffffffffffffffffffffffffffffffffffffffff1614620004385760006040517f73c6ac6e0000000000000000000000000000000000000000000000000000000081526004016200042f9190620014fa565b60405180910390fd5b505050565b6000600a60009054906101000a900473ffffffffffffffffffffffffffffffffffffffff16905090565b6000806200047d858585620005b260201b60201c565b9050600073ffffffffffffffffffffffffffffffffffffffff168173ffffffffffffffffffffffffffffffffffffffff1603620004cb57620004c584620007e760201b60201c565b62000513565b8473ffffffffffffffffffffffffffffffffffffffff168173ffffffffffffffffffffffffffffffffffffffff161462000512576200051181856200083060201b60201c565b5b5b600073ffffffffffffffffffffffffffffffffffffffff168573ffffffffffffffffffffffffffffffffffffffff16036200055f5762000559846200099a60201b60201c565b620005a7565b8473ffffffffffffffffffffffffffffffffffffffff168173ffffffffffffffffffffffffffffffffffffffff1614620005a657620005a5858562000a7660201b60201c565b5b5b809150509392505050565b600080620005c68462000b0b60201b60201c565b9050600073ffffffffffffffffffffffffffffffffffffffff168373ffffffffffffffffffffffffffffffffffffffff161462000611576200061081848662000b4860201b60201c565b5b600073ffffffffffffffffffffffffffffffffffffffff168173ffffffffffffffffffffffffffffffffffffffff1614620006ab576200065c60008560008062000c1a60201b60201c565b6001600360008373ffffffffffffffffffffffffffffffffffffffff1673ffffffffffffffffffffffffffffffffffffffff168152602001908152602001600020600082825403925050819055505b600073ffffffffffffffffffffffffffffffffffffffff168573ffffffffffffffffffffffffffffffffffffffff16146200072f576001600360008773ffffffffffffffffffffffffffffffffffffffff1673ffffffffffffffffffffffffffffffffffffffff168152602001908152602001600020600082825401925050819055505b846002600086815260200190815260200160002060006101000a81548173ffffffffffffffffffffffffffffffffffffffff021916908373ffffffffffffffffffffffffffffffffffffffff160217905550838573ffffffffffffffffffffffffffffffffffffffff168273ffffffffffffffffffffffffffffffffffffffff167fddf252ad1be2c89b69c2b068fc378daa952ba7f163c4a11628f55a4df523b3ef60405160405180910390a4809150509392505050565b6008805490506009600083815260200190815260200160002081905550600881908060018154018082558091505060019003906000526020600020016000909190919091505550565b6000620008438362000df760201b60201c565b905060006007600084815260200190815260200160002054905081811462000929576000600660008673ffffffffffffffffffffffffffffffffffffffff1673ffffffffffffffffffffffffffffffffffffffff168152602001908152602001600020600084815260200190815260200160002054905080600660008773ffffffffffffffffffffffffffffffffffffffff1673ffffffffffffffffffffffffffffffffffffffff168152602001908152602001600020600084815260200190815260200160002081905550816007600083815260200190815260200160002081905550505b6007600084815260200190815260200160002060009055600660008573ffffffffffffffffffffffffffffffffffffffff1673ffffffffffffffffffffffffffffffffffffffff16815260200190815260200160002060008381526020019081526020016000206000905550505050565b60006001600880549050620009b0919062001581565b9050600060096000848152602001908152602001600020549050600060088381548110620009e357620009e2620015bc565b5b90600052602060002001549050806008838154811062000a085762000a07620015bc565b5b90600052602060002001819055508160096000838152602001908152602001600020819055506009600085815260200190815260200160002060009055600880548062000a5a5762000a59620015eb565b5b6001900381819060005260206000200160009055905550505050565b6000600162000a8b8462000df760201b60201c565b62000a97919062001581565b905081600660008573ffffffffffffffffffffffffffffffffffffffff1673ffffffffffffffffffffffffffffffffffffffff168152602001908152602001600020600083815260200190815260200160002081905550806007600084815260200190815260200160002081905550505050565b60006002600083815260200190815260200160002060009054906101000a900473ffffffffffffffffffffffffffffffffffffffff169050919050565b62000b5b83838362000eb460201b60201c565b62000c1557600073ffffffffffffffffffffffffffffffffffffffff168373ffffffffffffffffffffffffffffffffffffffff160362000bd457806040517f7e27328900000000000000000000000000000000000000000000000000000000815260040162000bcb91906200162b565b60405180910390fd5b81816040517f177e802f00000000000000000000000000000000000000000000000000000000815260040162000c0c92919062001648565b60405180910390fd5b505050565b808062000c545750600073ffffffffffffffffffffffffffffffffffffffff168273ffffffffffffffffffffffffffffffffffffffff1614155b1562000d9f57600062000c6d8462000f8860201b60201c565b9050600073ffffffffffffffffffffffffffffffffffffffff168373ffffffffffffffffffffffffffffffffffffffff161415801562000cd957508273ffffffffffffffffffffffffffffffffffffffff168173ffffffffffffffffffffffffffffffffffffffff1614155b801562000cf5575062000cf381846200101b60201b60201c565b155b1562000d3a57826040517fa9fbf51f00000000000000000000000000000000000000000000000000000000815260040162000d319190620014fa565b60405180910390fd5b811562000d9d57838573ffffffffffffffffffffffffffffffffffffffff168273ffffffffffffffffffffffffffffffffffffffff167f8c5be1e5ebec7d5bd14f71427d1e84f3dd0314c0f7b2291e5b200ac8c7c3b92560405160405180910390a45b505b836004600085815260200190815260200160002060006101000a81548173ffffffffffffffffffffffffffffffffffffffff021916908373ffffffffffffffffffffffffffffffffffffffff16021790555050505050565b60008073ffffffffffffffffffffffffffffffffffffffff168273ffffffffffffffffffffffffffffffffffffffff160362000e6d5760006040517f89c62b6400000000000000000000000000000000000000000000000000000000815260040162000e649190620014fa565b60405180910390fd5b600360008373ffffffffffffffffffffffffffffffffffffffff1673ffffffffffffffffffffffffffffffffffffffff168152602001908152602001600020549050919050565b60008073ffffffffffffffffffffffffffffffffffffffff168373ffffffffffffffffffffffffffffffffffffffff161415801562000f7f57508273ffffffffffffffffffffffffffffffffffffffff168473ffffffffffffffffffffffffffffffffffffffff16148062000f37575062000f3684846200101b60201b60201c565b5b8062000f7e57508273ffffffffffffffffffffffffffffffffffffffff1662000f6683620010af60201b60201c565b73ffffffffffffffffffffffffffffffffffffffff16145b5b90509392505050565b60008062000f9c8362000b0b60201b60201c565b9050600073ffffffffffffffffffffffffffffffffffffffff168173ffffffffffffffffffffffffffffffffffffffff16036200101257826040517f7e2732890000000000000000000000000000000000000000000000000000000081526004016200100991906200162b565b60405180910390fd5b80915050919050565b6000600560008473ffffffffffffffffffffffffffffffffffffffff1673ffffffffffffffffffffffffffffffffffffffff16815260200190815260200160002060008373ffffffffffffffffffffffffffffffffffffffff1673ffffffffffffffffffffffffffffffffffffffff16815260200190815260200160002060009054906101000a900460ff16905092915050565b60006004600083815260200190815260200160002060009054906101000a900473ffffffffffffffffffffffffffffffffffffffff169050919050565b600080fd5b6000819050919050565b6200110681620010f1565b81146200111257600080fd5b50565b6000815190506200112681620010fb565b92915050565b600060208284031215620011455762001144620010ec565b5b6000620011558482850162001115565b91505092915050565b600081519050919050565b7f4e487b7100000000000000000000000000000000000000000000000000000000600052604160045260246000fd5b7f4e487b7100000000000000000000000000000000000000000000000000000000600052602260045260246000fd5b60006002820490506001821680620011e057607f821691505b602082108103620011f657620011f562001198565b5b50919050565b60008190508160005260206000209050919050565b60006020601f8301049050919050565b600082821b905092915050565b600060088302620012607fffffffffffffffffffffffffffffffffffffffffffffffffffffffffffffffff8262001221565b6200126c868362001221565b95508019841693508086168417925050509392505050565b6000819050919050565b6000620012af620012a9620012a384620010f1565b62001284565b620010f1565b9050919050565b6000819050919050565b620012cb836200128e565b620012e3620012da82620012b6565b8484546200122e565b825550505050565b600090565b620012fa620012eb565b62001307818484620012c0565b505050565b5b818110156200132f5762001323600082620012f0565b6001810190506200130d565b5050565b601f8211156200137e576200134881620011fc565b620013538462001211565b8101602085101562001363578190505b6200137b620013728562001211565b8301826200130c565b50505b505050565b600082821c905092915050565b6000620013a36000198460080262001383565b1980831691505092915050565b6000620013be838362001390565b9150826002028217905092915050565b620013d9826200115e565b67ffffffffffffffff811115620013f557620013f462001169565b5b620014018254620011c7565b6200140e82828562001333565b600060209050601f83116001811462001446576000841562001431578287015190505b6200143d8582620013b0565b865550620014ad565b601f1984166200145686620011fc565b60005b82811015620014805784890151825560018201915060208501945060208101905062001459565b86831015620014a057848901516200149c601f89168262001390565b8355505b6001600288020188555050505b505050505050565b600073ffffffffffffffffffffffffffffffffffffffff82169050919050565b6000620014e282620014b5565b9050919050565b620014f481620014d5565b82525050565b6000602082019050620015116000830184620014e9565b92915050565b7f4e487b7100000000000000000000000000000000000000000000000000000000600052601160045260246000fd5b60006200155382620010f1565b91506200156083620010f1565b92508282019050808211156200157b576200157a62001517565b5b92915050565b60006200158e82620010f1565b91506200159b83620010f1565b9250828203905081811115620015b657620015b562001517565b5b92915050565b7f4e487b7100000000000000000000000000000000000000000000000000000000600052603260045260246000fd5b7f4e487b7100000000000000000000000000000000000000000000000000000000600052603160045260246000fd5b6200162581620010f1565b82525050565b60006020820190506200164260008301846200161a565b92915050565b60006040820190506200165f6000830185620014e9565b6200166e60208301846200161a565b9392505050565b612cf380620016856000396000f3fe608060405234801561001057600080fd5b50600436106101735760003560e01c80636352211e116100de578063a22cb46511610097578063c87b56dd11610071578063c87b56dd14610424578063e985e9c514610454578063f2fde38b14610484578063f76f8d78146104a057610173565b8063a22cb465146103d0578063b88d4fde146103ec578063c30f4a5a1461040857610173565b80636352211e1461032057806370a0823114610350578063715018a6146103805780638da5cb5b1461038a57806395d89b41146103a85780639a198d61146103c657610173565b80631882140011610130578063188214001461024e57806323b872dd1461026c5780632f745c591461028857806342842e0e146102b85780634895622c146102d45780634f6ccce7146102f057610173565b806301ffc9a71461017857806306fdde03146101a8578063081812fc146101c6578063095ea7b3146101f65780631141d7de1461021257806318160ddd14610230575b600080fd5b610192600480360381019061018d9190611fb8565b6104be565b60405161019f9190612000565b60405180910390f35b6101b0610538565b6040516101bd91906120ab565b60405180910390f35b6101e060048036038101906101db9190612103565b6105ca565b6040516101ed9190612171565b60405180910390f35b610210600480360381019061020b91906121b8565b6105e6565b005b61021a6105fc565b60405161022791906120ab565b60405180910390f35b61023861068a565b6040516102459190612207565b60405180910390f35b610256610697565b60405161026391906120ab565b60405180910390f35b61028660048036038101906102819190612222565b6106b3565b005b6102a2600480360381019061029d91906121b8565b6107b5565b6040516102af9190612207565b60405180910390f35b6102d260048036038101906102cd9190612222565b61085e565b005b6102ee60048036038101906102e99190612103565b61087e565b005b61030a60048036038101906103059190612103565b6108bf565b6040516103179190612207565b60405180910390f35b61033a60048036038101906103359190612103565b610935565b6040516103479190612171565b60405180910390f35b61036a60048036038101906103659190612275565b610947565b6040516103779190612207565b60405180910390f35b610388610a01565b005b610392610a15565b60405161039f9190612171565b60405180910390f35b6103b0610a3f565b6040516103bd91906120ab565b60405180910390f35b6103ce610ad1565b005b6103ea60048036038101906103e591906122ce565b610c23565b005b61040660048036038101906104019190612443565b610c39565b005b610422600480360381019061041d9190612526565b610c56565b005b61043e60048036038101906104399190612103565b610c74565b60405161044b91906120ab565b60405180910390f35b61046e60048036038101906104699190612573565b610c9e565b60405161047b9190612000565b60405180910390f35b61049e60048036038101906104999190612275565b610d32565b005b6104a8610db8565b6040516104b591906120ab565b60405180910390f35b60007f780e9d63000000000000000000000000000000000000000000000000000000007bffffffffffffffffffffffffffffffffffffffffffffffffffffffff1916827bffffffffffffffffffffffffffffffffffffffffffffffffffffffff19161480610531575061053082610df1565b5b9050919050565b606060008054610547906125e2565b80601f0160208091040260200160405190810160405280929190818152602001828054610573906125e2565b80156105c05780601f10610595576101008083540402835291602001916105c0565b820191906000526020600020905b8154815290600101906020018083116105a357829003601f168201915b5050505050905090565b60006105d582610ed3565b506105df82610f5b565b9050919050565b6105f882826105f3610f98565b610fa0565b5050565b600b8054610609906125e2565b80601f0160208091040260200160405190810160405280929190818152602001828054610635906125e2565b80156106825780601f1061065757610100808354040283529160200191610682565b820191906000526020600020905b81548152906001019060200180831161066557829003601f168201915b505050505081565b6000600880549050905090565b604051806060016040528060248152602001612c9a6024913981565b600073ffffffffffffffffffffffffffffffffffffffff168273ffffffffffffffffffffffffffffffffffffffff16036107255760006040517f64a0ae9200000000000000000000000000000000000000000000000000000000815260040161071c9190612171565b60405180910390fd5b60006107398383610734610f98565b610fb2565b90508373ffffffffffffffffffffffffffffffffffffffff168173ffffffffffffffffffffffffffffffffffffffff16146107af578382826040517f64283d7b0000000000000000000000000000000000000000000000000000000081526004016107a693929190612613565b60405180910390fd5b50505050565b60006107c083610947565b82106108055782826040517fa57d13dc0000000000000000000000000000000000000000000000000000000081526004016107fc92919061264a565b60405180910390fd5b600660008473ffffffffffffffffffffffffffffffffffffffff1673ffffffffffffffffffffffffffffffffffffffff168152602001908152602001600020600083815260200190815260200160002054905092915050565b61087983838360405180602001604052806000815250610c39565b505050565b6108866110cf565b60005b818110156108bb576108ae33600161089f61068a565b6108a991906126a2565b611156565b8080600101915050610889565b5050565b60006108c961068a565b821061090f576000826040517fa57d13dc00000000000000000000000000000000000000000000000000000000815260040161090692919061264a565b60405180910390fd5b60088281548110610923576109226126d6565b5b90600052602060002001549050919050565b600061094082610ed3565b9050919050565b60008073ffffffffffffffffffffffffffffffffffffffff168273ffffffffffffffffffffffffffffffffffffffff16036109ba5760006040517f89c62b640000000000000000000000000000000000000000000000000000000081526004016109b19190612171565b60405180910390fd5b600360008373ffffffffffffffffffffffffffffffffffffffff1673ffffffffffffffffffffffffffffffffffffffff168152602001908152602001600020549050919050565b610a096110cf565b610a13600061124f565b565b6000600a60009054906101000a900473ffffffffffffffffffffffffffffffffffffffff16905090565b606060018054610a4e906125e2565b80601f0160208091040260200160405190810160405280929190818152602001828054610a7a906125e2565b8015610ac75780601f10610a9c57610100808354040283529160200191610ac7565b820191906000526020600020905b815481529060010190602001808311610aaa57829003601f168201915b5050505050905090565b600073dc2b0d2dd2b7759d97d50db4eabdc3697311083073ffffffffffffffffffffffffffffffffffffffff16606f604051602401610b109190612757565b6040516020818303038152906040527f1e60fd14000000000000000000000000000000000000000000000000000000007bffffffffffffffffffffffffffffffffffffffffffffffffffffffff19166020820180517bffffffffffffffffffffffffffffffffffffffffffffffffffffffff8381831617835250505050604051610b9a91906127b9565b6000604051808303816000865af19150503d8060008114610bd7576040519150601f19603f3d011682016040523d82523d6000602084013e610bdc565b606091505b5050905080610c20576040517f08c379a0000000000000000000000000000000000000000000000000000000008152600401610c179061281c565b60405180910390fd5b50565b610c35610c2e610f98565b8383611315565b5050565b610c448484846106b3565b610c5084848484611484565b50505050565b610c5e6110cf565b8181600b9182610c6f9291906129e9565b505050565b6060600b604051602001610c889190612b47565b6040516020818303038152906040529050919050565b6000600560008473ffffffffffffffffffffffffffffffffffffffff1673ffffffffffffffffffffffffffffffffffffffff16815260200190815260200160002060008373ffffffffffffffffffffffffffffffffffffffff1673ffffffffffffffffffffffffffffffffffffffff16815260200190815260200160002060009054906101000a900460ff16905092915050565b610d3a6110cf565b600073ffffffffffffffffffffffffffffffffffffffff168173ffffffffffffffffffffffffffffffffffffffff1603610dac5760006040517f1e4fbdf7000000000000000000000000000000000000000000000000000000008152600401610da39190612171565b60405180910390fd5b610db58161124f565b50565b6040518060400160405280600881526020017f50495a5a41424f5800000000000000000000000000000000000000000000000081525081565b60007f80ac58cd000000000000000000000000000000000000000000000000000000007bffffffffffffffffffffffffffffffffffffffffffffffffffffffff1916827bffffffffffffffffffffffffffffffffffffffffffffffffffffffff19161480610ebc57507f5b5e139f000000000000000000000000000000000000000000000000000000007bffffffffffffffffffffffffffffffffffffffffffffffffffffffff1916827bffffffffffffffffffffffffffffffffffffffffffffffffffffffff1916145b80610ecc5750610ecb8261163b565b5b9050919050565b600080610edf836116a5565b9050600073ffffffffffffffffffffffffffffffffffffffff168173ffffffffffffffffffffffffffffffffffffffff1603610f5257826040517f7e273289000000000000000000000000000000000000000000000000000000008152600401610f499190612207565b60405180910390fd5b80915050919050565b60006004600083815260200190815260200160002060009054906101000a900473ffffffffffffffffffffffffffffffffffffffff169050919050565b600033905090565b610fad83838360016116e2565b505050565b600080610fc08585856118a7565b9050600073ffffffffffffffffffffffffffffffffffffffff168173ffffffffffffffffffffffffffffffffffffffff160361100457610fff84611ac1565b611043565b8473ffffffffffffffffffffffffffffffffffffffff168173ffffffffffffffffffffffffffffffffffffffff1614611042576110418185611b0a565b5b5b600073ffffffffffffffffffffffffffffffffffffffff168573ffffffffffffffffffffffffffffffffffffffff16036110855761108084611c6b565b6110c4565b8473ffffffffffffffffffffffffffffffffffffffff168173ffffffffffffffffffffffffffffffffffffffff16146110c3576110c28585611d3c565b5b5b809150509392505050565b6110d7610f98565b73ffffffffffffffffffffffffffffffffffffffff166110f5610a15565b73ffffffffffffffffffffffffffffffffffffffff161461115457611118610f98565b6040517f118cdaa700000000000000000000000000000000000000000000000000000000815260040161114b9190612171565b60405180910390fd5b565b600073ffffffffffffffffffffffffffffffffffffffff168273ffffffffffffffffffffffffffffffffffffffff16036111c85760006040517f64a0ae920000000000000000000000000000000000000000000000000000000081526004016111bf9190612171565b60405180910390fd5b60006111d683836000610fb2565b9050600073ffffffffffffffffffffffffffffffffffffffff168173ffffffffffffffffffffffffffffffffffffffff161461124a5760006040517f73c6ac6e0000000000000000000000000000000000000000000000000000000081526004016112419190612171565b60405180910390fd5b505050565b6000600a60009054906101000a900473ffffffffffffffffffffffffffffffffffffffff16905081600a60006101000a81548173ffffffffffffffffffffffffffffffffffffffff021916908373ffffffffffffffffffffffffffffffffffffffff1602179055508173ffffffffffffffffffffffffffffffffffffffff168173ffffffffffffffffffffffffffffffffffffffff167f8be0079c531659141344cd1fd0a4f28419497f9722a3daafe3b4186f6b6457e060405160405180910390a35050565b600073ffffffffffffffffffffffffffffffffffffffff168273ffffffffffffffffffffffffffffffffffffffff160361138657816040517f5b08ba1800000000000000000000000000000000000000000000000000000000815260040161137d9190612171565b60405180910390fd5b80600560008573ffffffffffffffffffffffffffffffffffffffff1673ffffffffffffffffffffffffffffffffffffffff16815260200190815260200160002060008473ffffffffffffffffffffffffffffffffffffffff1673ffffffffffffffffffffffffffffffffffffffff16815260200190815260200160002060006101000a81548160ff0219169083151502179055508173ffffffffffffffffffffffffffffffffffffffff168373ffffffffffffffffffffffffffffffffffffffff167f17307eab39ab6107e8899845ad3d59bd9653f200f220920489ca2b5937696c31836040516114779190612000565b60405180910390a3505050565b60008373ffffffffffffffffffffffffffffffffffffffff163b1115611635578273ffffffffffffffffffffffffffffffffffffffff1663150b7a026114c8610f98565b8685856040518563ffffffff1660e01b81526004016114ea9493929190612ba8565b6020604051808303816000875af192505050801561152657506040513d601f19601f820116820180604052508101906115239190612c09565b60015b6115aa573d8060008114611556576040519150601f19603f3d011682016040523d82523d6000602084013e61155b565b606091505b5060008151036115a257836040517f64a0ae920000000000000000000000000000000000000000000000000000000081526004016115999190612171565b60405180910390fd5b805181602001fd5b63150b7a0260e01b7bffffffffffffffffffffffffffffffffffffffffffffffffffffffff1916817bffffffffffffffffffffffffffffffffffffffffffffffffffffffff19161461163357836040517f64a0ae9200000000000000000000000000000000000000000000000000000000815260040161162a9190612171565b60405180910390fd5b505b50505050565b60007f01ffc9a7000000000000000000000000000000000000000000000000000000007bffffffffffffffffffffffffffffffffffffffffffffffffffffffff1916827bffffffffffffffffffffffffffffffffffffffffffffffffffffffff1916149050919050565b60006002600083815260200190815260200160002060009054906101000a900473ffffffffffffffffffffffffffffffffffffffff169050919050565b808061171b5750600073ffffffffffffffffffffffffffffffffffffffff168273ffffffffffffffffffffffffffffffffffffffff1614155b1561184f57600061172b84610ed3565b9050600073ffffffffffffffffffffffffffffffffffffffff168373ffffffffffffffffffffffffffffffffffffffff161415801561179657508273ffffffffffffffffffffffffffffffffffffffff168173ffffffffffffffffffffffffffffffffffffffff1614155b80156117a957506117a78184610c9e565b155b156117eb57826040517fa9fbf51f0000000000000000000000000000000000000000000000000000000081526004016117e29190612171565b60405180910390fd5b811561184d57838573ffffffffffffffffffffffffffffffffffffffff168273ffffffffffffffffffffffffffffffffffffffff167f8c5be1e5ebec7d5bd14f71427d1e84f3dd0314c0f7b2291e5b200ac8c7c3b92560405160405180910390a45b505b836004600085815260200190815260200160002060006101000a81548173ffffffffffffffffffffffffffffffffffffffff021916908373ffffffffffffffffffffffffffffffffffffffff16021790555050505050565b6000806118b3846116a5565b9050600073ffffffffffffffffffffffffffffffffffffffff168373ffffffffffffffffffffffffffffffffffffffff16146118f5576118f4818486611dc7565b5b600073ffffffffffffffffffffffffffffffffffffffff168173ffffffffffffffffffffffffffffffffffffffff1614611986576119376000856000806116e2565b6001600360008373ffffffffffffffffffffffffffffffffffffffff1673ffffffffffffffffffffffffffffffffffffffff168152602001908152602001600020600082825403925050819055505b600073ffffffffffffffffffffffffffffffffffffffff168573ffffffffffffffffffffffffffffffffffffffff1614611a09576001600360008773ffffffffffffffffffffffffffffffffffffffff1673ffffffffffffffffffffffffffffffffffffffff168152602001908152602001600020600082825401925050819055505b846002600086815260200190815260200160002060006101000a81548173ffffffffffffffffffffffffffffffffffffffff021916908373ffffffffffffffffffffffffffffffffffffffff160217905550838573ffffffffffffffffffffffffffffffffffffffff168273ffffffffffffffffffffffffffffffffffffffff167fddf252ad1be2c89b69c2b068fc378daa952ba7f163c4a11628f55a4df523b3ef60405160405180910390a4809150509392505050565b6008805490506009600083815260200190815260200160002081905550600881908060018154018082558091505060019003906000526020600020016000909190919091505550565b6000611b1583610947565b9050600060076000848152602001908152602001600020549050818114611bfa576000600660008673ffffffffffffffffffffffffffffffffffffffff1673ffffffffffffffffffffffffffffffffffffffff168152602001908152602001600020600084815260200190815260200160002054905080600660008773ffffffffffffffffffffffffffffffffffffffff1673ffffffffffffffffffffffffffffffffffffffff168152602001908152602001600020600084815260200190815260200160002081905550816007600083815260200190815260200160002081905550505b6007600084815260200190815260200160002060009055600660008573ffffffffffffffffffffffffffffffffffffffff1673ffffffffffffffffffffffffffffffffffffffff16815260200190815260200160002060008381526020019081526020016000206000905550505050565b60006001600880549050611c7f9190612c36565b9050600060096000848152602001908152602001600020549050600060088381548110611caf57611cae6126d6565b5b906000526020600020015490508060088381548110611cd157611cd06126d6565b5b906000526020600020018190555081600960008381526020019081526020016000208190555060096000858152602001908152602001600020600090556008805480611d2057611d1f612c6a565b5b6001900381819060005260206000200160009055905550505050565b60006001611d4984610947565b611d539190612c36565b905081600660008573ffffffffffffffffffffffffffffffffffffffff1673ffffffffffffffffffffffffffffffffffffffff168152602001908152602001600020600083815260200190815260200160002081905550806007600084815260200190815260200160002081905550505050565b611dd2838383611e8b565b611e8657600073ffffffffffffffffffffffffffffffffffffffff168373ffffffffffffffffffffffffffffffffffffffff1603611e4757806040517f7e273289000000000000000000000000000000000000000000000000000000008152600401611e3e9190612207565b60405180910390fd5b81816040517f177e802f000000000000000000000000000000000000000000000000000000008152600401611e7d92919061264a565b60405180910390fd5b505050565b60008073ffffffffffffffffffffffffffffffffffffffff168373ffffffffffffffffffffffffffffffffffffffff1614158015611f4357508273ffffffffffffffffffffffffffffffffffffffff168473ffffffffffffffffffffffffffffffffffffffff161480611f045750611f038484610c9e565b5b80611f4257508273ffffffffffffffffffffffffffffffffffffffff16611f2a83610f5b565b73ffffffffffffffffffffffffffffffffffffffff16145b5b90509392505050565b6000604051905090565b600080fd5b600080fd5b60007fffffffff0000000000000000000000000000000000000000000000000000000082169050919050565b611f9581611f60565b8114611fa057600080fd5b50565b600081359050611fb281611f8c565b92915050565b600060208284031215611fce57611fcd611f56565b5b6000611fdc84828501611fa3565b91505092915050565b60008115159050919050565b611ffa81611fe5565b82525050565b60006020820190506120156000830184611ff1565b92915050565b600081519050919050565b600082825260208201905092915050565b60005b8381101561205557808201518184015260208101905061203a565b60008484015250505050565b6000601f19601f8301169050919050565b600061207d8261201b565b6120878185612026565b9350612097818560208601612037565b6120a081612061565b840191505092915050565b600060208201905081810360008301526120c58184612072565b905092915050565b6000819050919050565b6120e0816120cd565b81146120eb57600080fd5b50565b6000813590506120fd816120d7565b92915050565b60006020828403121561211957612118611f56565b5b6000612127848285016120ee565b91505092915050565b600073ffffffffffffffffffffffffffffffffffffffff82169050919050565b600061215b82612130565b9050919050565b61216b81612150565b82525050565b60006020820190506121866000830184612162565b92915050565b61219581612150565b81146121a057600080fd5b50565b6000813590506121b28161218c565b92915050565b600080604083850312156121cf576121ce611f56565b5b60006121dd858286016121a3565b92505060206121ee858286016120ee565b9150509250929050565b612201816120cd565b82525050565b600060208201905061221c60008301846121f8565b92915050565b60008060006060848603121561223b5761223a611f56565b5b6000612249868287016121a3565b935050602061225a868287016121a3565b925050604061226b868287016120ee565b9150509250925092565b60006020828403121561228b5761228a611f56565b5b6000612299848285016121a3565b91505092915050565b6122ab81611fe5565b81146122b657600080fd5b50565b6000813590506122c8816122a2565b92915050565b600080604083850312156122e5576122e4611f56565b5b60006122f3858286016121a3565b9250506020612304858286016122b9565b9150509250929050565b600080fd5b600080fd5b7f4e487b7100000000000000000000000000000000000000000000000000000000600052604160045260246000fd5b61235082612061565b810181811067ffffffffffffffff8211171561236f5761236e612318565b5b80604052505050565b6000612382611f4c565b905061238e8282612347565b919050565b600067ffffffffffffffff8211156123ae576123ad612318565b5b6123b782612061565b9050602081019050919050565b82818337600083830152505050565b60006123e66123e184612393565b612378565b90508281526020810184848401111561240257612401612313565b5b61240d8482856123c4565b509392505050565b600082601f83011261242a5761242961230e565b5b813561243a8482602086016123d3565b91505092915050565b6000806000806080858703121561245d5761245c611f56565b5b600061246b878288016121a3565b945050602061247c878288016121a3565b935050604061248d878288016120ee565b925050606085013567ffffffffffffffff8111156124ae576124ad611f5b565b5b6124ba87828801612415565b91505092959194509250565b600080fd5b600080fd5b60008083601f8401126124e6576124e561230e565b5b8235905067ffffffffffffffff811115612503576125026124c6565b5b60208301915083600182028301111561251f5761251e6124cb565b5b9250929050565b6000806020838503121561253d5761253c611f56565b5b600083013567ffffffffffffffff81111561255b5761255a611f5b565b5b612567858286016124d0565b92509250509250929050565b6000806040838503121561258a57612589611f56565b5b6000612598858286016121a3565b92505060206125a9858286016121a3565b9150509250929050565b7f4e487b7100000000000000000000000000000000000000000000000000000000600052602260045260246000fd5b600060028204905060018216806125fa57607f821691505b60208210810361260d5761260c6125b3565b5b50919050565b60006060820190506126286000830186612162565b61263560208301856121f8565b6126426040830184612162565b949350505050565b600060408201905061265f6000830185612162565b61266c60208301846121f8565b9392505050565b7f4e487b7100000000000000000000000000000000000000000000000000000000600052601160045260246000fd5b60006126ad826120cd565b91506126b8836120cd565b92508282019050808211156126d0576126cf612673565b5b92915050565b7f4e487b7100000000000000000000000000000000000000000000000000000000600052603260045260246000fd5b6000819050919050565b600060ff82169050919050565b6000819050919050565b600061274161273c61273784612705565b61271c565b61270f565b9050919050565b61275181612726565b82525050565b600060208201905061276c6000830184612748565b92915050565b600081519050919050565b600081905092915050565b600061279382612772565b61279d818561277d565b93506127ad818560208601612037565b80840191505092915050565b60006127c58284612788565b915081905092915050565b7f4665654d20726567697374726174696f6e206661696c65640000000000000000600082015250565b6000612806601883612026565b9150612811826127d0565b602082019050919050565b60006020820190508181036000830152612835816127f9565b9050919050565b600082905092915050565b60008190508160005260206000209050919050565b60006020601f8301049050919050565b600082821b905092915050565b6000600883026128a97fffffffffffffffffffffffffffffffffffffffffffffffffffffffffffffffff8261286c565b6128b3868361286c565b95508019841693508086168417925050509392505050565b60006128e66128e16128dc846120cd565b61271c565b6120cd565b9050919050565b6000819050919050565b612900836128cb565b61291461290c826128ed565b848454612879565b825550505050565b600090565b61292961291c565b6129348184846128f7565b505050565b5b818110156129585761294d600082612921565b60018101905061293a565b5050565b601f82111561299d5761296e81612847565b6129778461285c565b81016020851015612986578190505b61299a6129928561285c565b830182612939565b50505b505050565b600082821c905092915050565b60006129c0600019846008026129a2565b1980831691505092915050565b60006129d983836129af565b9150826002028217905092915050565b6129f3838361283c565b67ffffffffffffffff811115612a0c57612a0b612318565b5b612a1682546125e2565b612a2182828561295c565b6000601f831160018114612a505760008415612a3e578287013590505b612a4885826129cd565b865550612ab0565b601f198416612a5e86612847565b60005b82811015612a8657848901358255600182019150602085019450602081019050612a61565b86831015612aa35784890135612a9f601f8916826129af565b8355505b6001600288020188555050505b50505050505050565b600081905092915050565b60008154612ad1816125e2565b612adb8186612ab9565b94506001821660008114612af65760018114612b0b57612b3e565b60ff1983168652811515820286019350612b3e565b612b1485612847565b60005b83811015612b3657815481890152600182019150602081019050612b17565b838801955050505b50505092915050565b6000612b538284612ac4565b915081905092915050565b600082825260208201905092915050565b6000612b7a82612772565b612b848185612b5e565b9350612b94818560208601612037565b612b9d81612061565b840191505092915050565b6000608082019050612bbd6000830187612162565b612bca6020830186612162565b612bd760408301856121f8565b8181036060830152612be98184612b6f565b905095945050505050565b600081519050612c0381611f8c565b92915050565b600060208284031215612c1f57612c1e611f56565b5b6000612c2d84828501612bf4565b91505092915050565b6000612c41826120cd565b9150612c4c836120cd565b9250828203905081811115612c6457612c63612673565b5b92915050565b7f4e487b7100000000000000000000000000000000000000000000000000000000600052603160045260246000fdfe527567676965277320416e6e69766572736172792050617274792050697a7a6120426f78a2646970667358221220c08039bced940e7dea1b295c6a310b7f1d03fca640968fb8d3190dd3ea21d2b964736f6c63430008180033527567676965277320416e6e69766572736172792050617274792050697a7a6120426f78",
  "linkReferences": {},
  "deployedLinkReferences": {}
}