{
  "_format": "hh-sol-artifact-1",
  "contractName": "RugTARDS2",
  "sourceName": "contracts/Sonic/RugTARDS2.sol",
  "abi": [
    {
      "inputs": [
        {
          "internalType": "address",
          "name": "benef",
          "type": "address"
        }
      ],
      "stateMutability": "nonpayable",
      "type": "constructor"
    },
    {
      "inputs": [
        {
          "internalType": "address",
          "name": "sender",
          "type": "address"
        },
        {
          "internalType": "uint256",
          "name": "tokenId",
          "type": "uint256"
        },
        {
          "internalType": "address",
          "name": "owner",
          "type": "address"
        }
      ],
      "name": "ERC721IncorrectOwner",
      "type": "error"
    },
    {
      "inputs": [
        {
          "internalType": "address",
          "name": "operator",
          "type": "address"
        },
        {
          "internalType": "uint256",
          "name": "tokenId",
          "type": "uint256"
        }
      ],
      "name": "ERC721InsufficientApproval",
      "type": "error"
    },
    {
      "inputs": [
        {
          "internalType": "address",
          "name": "approver",
          "type": "address"
        }
      ],
      "name": "ERC721InvalidApprover",
      "type": "error"
    },
    {
      "inputs": [
        {
          "internalType": "address",
          "name": "operator",
          "type": "address"
        }
      ],
      "name": "ERC721InvalidOperator",
      "type": "error"
    },
    {
      "inputs": [
        {
          "internalType": "address",
          "name": "owner",
          "type": "address"
        }
      ],
      "name": "ERC721InvalidOwner",
      "type": "error"
    },
    {
      "inputs": [
        {
          "internalType": "address",
          "name": "receiver",
          "type": "address"
        }
      ],
      "name": "ERC721InvalidReceiver",
      "type": "error"
    },
    {
      "inputs": [
        {
          "internalType": "address",
          "name": "sender",
          "type": "address"
        }
      ],
      "name": "ERC721InvalidSender",
      "type": "error"
    },
    {
      "inputs": [
        {
          "internalType": "uint256",
          "name": "tokenId",
          "type": "uint256"
        }
      ],
      "name": "ERC721NonexistentToken",
      "type": "error"
    },
    {
      "inputs": [],
      "name": "InvalidPayment",
      "type": "error"
    },
    {
      "inputs": [],
      "name": "InvalidQuantity",
      "type": "error"
    },
    {
      "inputs": [],
      "name": "InvalidToken",
      "type": "error"
    },
    {
      "inputs": [],
      "name": "MintedOut",
      "type": "error"
    },
    {
      "inputs": [],
      "name": "MintingClosed",
      "type": "error"
    },
    {
      "inputs": [
        {
          "internalType": "address",
          "name": "owner",
          "type": "address"
        }
      ],
      "name": "OwnableInvalidOwner",
      "type": "error"
    },
    {
      "inputs": [
        {
          "internalType": "address",
          "name": "account",
          "type": "address"
        }
      ],
      "name": "OwnableUnauthorizedAccount",
      "type": "error"
    },
    {
      "inputs": [],
      "name": "invalidAmount",
      "type": "error"
    },
    {
      "anonymous": false,
      "inputs": [
        {
          "indexed": true,
          "internalType": "address",
          "name": "owner",
          "type": "address"
        },
        {
          "indexed": true,
          "internalType": "address",
          "name": "approved",
          "type": "address"
        },
        {
          "indexed": true,
          "internalType": "uint256",
          "name": "tokenId",
          "type": "uint256"
        }
      ],
      "name": "Approval",
      "type": "event"
    },
    {
      "anonymous": false,
      "inputs": [
        {
          "indexed": true,
          "internalType": "address",
          "name": "owner",
          "type": "address"
        },
        {
          "indexed": true,
          "internalType": "address",
          "name": "operator",
          "type": "address"
        },
        {
          "indexed": false,
          "internalType": "bool",
          "name": "approved",
          "type": "bool"
        }
      ],
      "name": "ApprovalForAll",
      "type": "event"
    },
    {
      "anonymous": false,
      "inputs": [
        {
          "indexed": true,
          "internalType": "address",
          "name": "previousOwner",
          "type": "address"
        },
        {
          "indexed": true,
          "internalType": "address",
          "name": "newOwner",
          "type": "address"
        }
      ],
      "name": "OwnershipTransferred",
      "type": "event"
    },
    {
      "anonymous": false,
      "inputs": [
        {
          "indexed": false,
          "internalType": "uint256",
          "name": "tokenId",
          "type": "uint256"
        },
        {
          "indexed": false,
          "internalType": "address",
          "name": "rugger",
          "type": "address"
        }
      ],
      "name": "Rugged",
      "type": "event"
    },
    {
      "anonymous": false,
      "inputs": [
        {
          "indexed": false,
          "internalType": "bool",
          "name": "newStatus",
          "type": "bool"
        }
      ],
      "name": "StatusChange",
      "type": "event"
    },
    {
      "anonymous": false,
      "inputs": [
        {
          "indexed": true,
          "internalType": "address",
          "name": "from",
          "type": "address"
        },
        {
          "indexed": true,
          "internalType": "address",
          "name": "to",
          "type": "address"
        },
        {
          "indexed": true,
          "internalType": "uint256",
          "name": "tokenId",
          "type": "uint256"
        }
      ],
      "name": "Transfer",
      "type": "event"
    },
    {
      "inputs": [
        {
          "internalType": "address[]",
          "name": "holders",
          "type": "address[]"
        }
      ],
      "name": "airdrop",
      "outputs": [],
      "stateMutability": "nonpayable",
      "type": "function"
    },
    {
      "inputs": [
        {
          "internalType": "address",
          "name": "to",
          "type": "address"
        },
        {
          "internalType": "uint256",
          "name": "tokenId",
          "type": "uint256"
        }
      ],
      "name": "approve",
      "outputs": [],
      "stateMutability": "nonpayable",
      "type": "function"
    },
    {
      "inputs": [
        {
          "internalType": "address",
          "name": "owner",
          "type": "address"
        }
      ],
      "name": "balanceOf",
      "outputs": [
        {
          "internalType": "uint256",
          "name": "",
          "type": "uint256"
        }
      ],
      "stateMutability": "view",
      "type": "function"
    },
    {
      "inputs": [],
      "name": "baseURI",
      "outputs": [
        {
          "internalType": "string",
          "name": "",
          "type": "string"
        }
      ],
      "stateMutability": "view",
      "type": "function"
    },
    {
      "inputs": [],
      "name": "beneficiary",
      "outputs": [
        {
          "internalType": "address",
          "name": "",
          "type": "address"
        }
      ],
      "stateMutability": "view",
      "type": "function"
    },
    {
      "inputs": [
        {
          "internalType": "address",
          "name": "token",
          "type": "address"
        },
        {
          "internalType": "uint256",
          "name": "amount",
          "type": "uint256"
        }
      ],
      "name": "distributePayment",
      "outputs": [],
      "stateMutability": "nonpayable",
      "type": "function"
    },
    {
      "inputs": [
        {
          "internalType": "uint256",
          "name": "tokenId",
          "type": "uint256"
        }
      ],
      "name": "getApproved",
      "outputs": [
        {
          "internalType": "address",
          "name": "",
          "type": "address"
        }
      ],
      "stateMutability": "view",
      "type": "function"
    },
    {
      "inputs": [
        {
          "internalType": "address",
          "name": "owner",
          "type": "address"
        },
        {
          "internalType": "address",
          "name": "operator",
          "type": "address"
        }
      ],
      "name": "isApprovedForAll",
      "outputs": [
        {
          "internalType": "bool",
          "name": "",
          "type": "bool"
        }
      ],
      "stateMutability": "view",
      "type": "function"
    },
    {
      "inputs": [],
      "name": "maxSupply",
      "outputs": [
        {
          "internalType": "uint256",
          "name": "",
          "type": "uint256"
        }
      ],
      "stateMutability": "view",
      "type": "function"
    },
    {
      "inputs": [],
      "name": "name",
      "outputs": [
        {
          "internalType": "string",
          "name": "",
          "type": "string"
        }
      ],
      "stateMutability": "view",
      "type": "function"
    },
    {
      "inputs": [],
      "name": "owner",
      "outputs": [
        {
          "internalType": "address",
          "name": "",
          "type": "address"
        }
      ],
      "stateMutability": "view",
      "type": "function"
    },
    {
      "inputs": [
        {
          "internalType": "uint256",
          "name": "tokenId",
          "type": "uint256"
        }
      ],
      "name": "ownerOf",
      "outputs": [
        {
          "internalType": "address",
          "name": "",
          "type": "address"
        }
      ],
      "stateMutability": "view",
      "type": "function"
    },
    {
      "inputs": [],
      "name": "renounceOwnership",
      "outputs": [],
      "stateMutability": "nonpayable",
      "type": "function"
    },
    {
      "inputs": [
        {
          "internalType": "uint256",
          "name": "",
          "type": "uint256"
        }
      ],
      "name": "rugged",
      "outputs": [
        {
          "internalType": "bool",
          "name": "isRugged",
          "type": "bool"
        },
        {
          "internalType": "uint256",
          "name": "totalRugged",
          "type": "uint256"
        },
        {
          "internalType": "address",
          "name": "lastRugger",
          "type": "address"
        }
      ],
      "stateMutability": "view",
      "type": "function"
    },
    {
      "inputs": [],
      "name": "ruggedURI",
      "outputs": [
        {
          "internalType": "string",
          "name": "",
          "type": "string"
        }
      ],
      "stateMutability": "view",
      "type": "function"
    },
    {
      "inputs": [
        {
          "internalType": "uint256",
          "name": "tokenId",
          "type": "uint256"
        }
      ],
      "name": "rugpull",
      "outputs": [],
      "stateMutability": "payable",
      "type": "function"
    },
    {
      "inputs": [
        {
          "internalType": "address",
          "name": "from",
          "type": "address"
        },
        {
          "internalType": "address",
          "name": "to",
          "type": "address"
        },
        {
          "internalType": "uint256",
          "name": "tokenId",
          "type": "uint256"
        }
      ],
      "name": "safeTransferFrom",
      "outputs": [],
      "stateMutability": "nonpayable",
      "type": "function"
    },
    {
      "inputs": [
        {
          "internalType": "address",
          "name": "from",
          "type": "address"
        },
        {
          "internalType": "address",
          "name": "to",
          "type": "address"
        },
        {
          "internalType": "uint256",
          "name": "tokenId",
          "type": "uint256"
        },
        {
          "internalType": "bytes",
          "name": "data",
          "type": "bytes"
        }
      ],
      "name": "safeTransferFrom",
      "outputs": [],
      "stateMutability": "nonpayable",
      "type": "function"
    },
    {
      "inputs": [
        {
          "internalType": "address",
          "name": "operator",
          "type": "address"
        },
        {
          "internalType": "bool",
          "name": "approved",
          "type": "bool"
        }
      ],
      "name": "setApprovalForAll",
      "outputs": [],
      "stateMutability": "nonpayable",
      "type": "function"
    },
    {
      "inputs": [
        {
          "internalType": "bytes4",
          "name": "interfaceId",
          "type": "bytes4"
        }
      ],
      "name": "supportsInterface",
      "outputs": [
        {
          "internalType": "bool",
          "name": "",
          "type": "bool"
        }
      ],
      "stateMutability": "view",
      "type": "function"
    },
    {
      "inputs": [],
      "name": "symbol",
      "outputs": [
        {
          "internalType": "string",
          "name": "",
          "type": "string"
        }
      ],
      "stateMutability": "view",
      "type": "function"
    },
    {
      "inputs": [
        {
          "internalType": "uint256",
          "name": "tokenId",
          "type": "uint256"
        }
      ],
      "name": "tokenURI",
      "outputs": [
        {
          "internalType": "string",
          "name": "",
          "type": "string"
        }
      ],
      "stateMutability": "view",
      "type": "function"
    },
    {
      "inputs": [
        {
          "internalType": "address",
          "name": "from",
          "type": "address"
        },
        {
          "internalType": "address",
          "name": "to",
          "type": "address"
        },
        {
          "internalType": "uint256",
          "name": "tokenId",
          "type": "uint256"
        }
      ],
      "name": "transferFrom",
      "outputs": [],
      "stateMutability": "nonpayable",
      "type": "function"
    },
    {
      "inputs": [
        {
          "internalType": "address",
          "name": "newOwner",
          "type": "address"
        }
      ],
      "name": "transferOwnership",
      "outputs": [],
      "stateMutability": "nonpayable",
      "type": "function"
    },
    {
      "inputs": [
        {
          "internalType": "address",
          "name": "newBeneficiary",
          "type": "address"
        }
      ],
      "name": "updateBeneficiary",
      "outputs": [],
      "stateMutability": "nonpayable",
      "type": "function"
    },
    {
      "inputs": [
        {
          "internalType": "string",
          "name": "newURI",
          "type": "string"
        },
        {
          "internalType": "string",
          "name": "newRugged",
          "type": "string"
        }
      ],
      "name": "updateURI",
      "outputs": [],
      "stateMutability": "nonpayable",
      "type": "function"
    },
    {
      "inputs": [],
      "name": "withdraw",
      "outputs": [],
      "stateMutability": "nonpayable",
      "type": "function"
    },
    {
      "inputs": [
        {
          "internalType": "address",
          "name": "token",
          "type": "address"
        }
      ],
      "name": "withdrawToken",
      "outputs": [],
      "stateMutability": "nonpayable",
      "type": "function"
    }
  ],
  "bytecode": "0x60806040526101a46009553480156200001757600080fd5b50604051620038ce380380620038ce83398181016040528101906200003d9190620002ee565b6200004d620001b660201b60201c565b6040518060400160405280600881526020017f52756754415244530000000000000000000000000000000000000000000000008152506040518060400160405280600581526020017f52544152440000000000000000000000000000000000000000000000000000008152508160009081620000ca91906200059a565b508060019081620000dc91906200059a565b505050600073ffffffffffffffffffffffffffffffffffffffff168173ffffffffffffffffffffffffffffffffffffffff1603620001545760006040517f1e4fbdf70000000000000000000000000000000000000000000000000000000081526004016200014b919062000692565b60405180910390fd5b6200016581620001be60201b60201c565b5080600860006101000a81548173ffffffffffffffffffffffffffffffffffffffff021916908373ffffffffffffffffffffffffffffffffffffffff1602179055506000600c8190555050620006af565b600033905090565b6000600660009054906101000a900473ffffffffffffffffffffffffffffffffffffffff16905081600660006101000a81548173ffffffffffffffffffffffffffffffffffffffff021916908373ffffffffffffffffffffffffffffffffffffffff1602179055508173ffffffffffffffffffffffffffffffffffffffff168173ffffffffffffffffffffffffffffffffffffffff167f8be0079c531659141344cd1fd0a4f28419497f9722a3daafe3b4186f6b6457e060405160405180910390a35050565b600080fd5b600073ffffffffffffffffffffffffffffffffffffffff82169050919050565b6000620002b68262000289565b9050919050565b620002c881620002a9565b8114620002d457600080fd5b50565b600081519050620002e881620002bd565b92915050565b60006020828403121562000307576200030662000284565b5b60006200031784828501620002d7565b91505092915050565b600081519050919050565b7f4e487b7100000000000000000000000000000000000000000000000000000000600052604160045260246000fd5b7f4e487b7100000000000000000000000000000000000000000000000000000000600052602260045260246000fd5b60006002820490506001821680620003a257607f821691505b602082108103620003b857620003b76200035a565b5b50919050565b60008190508160005260206000209050919050565b60006020601f8301049050919050565b600082821b905092915050565b600060088302620004227fffffffffffffffffffffffffffffffffffffffffffffffffffffffffffffffff82620003e3565b6200042e8683620003e3565b95508019841693508086168417925050509392505050565b6000819050919050565b6000819050919050565b60006200047b620004756200046f8462000446565b62000450565b62000446565b9050919050565b6000819050919050565b62000497836200045a565b620004af620004a68262000482565b848454620003f0565b825550505050565b600090565b620004c6620004b7565b620004d38184846200048c565b505050565b5b81811015620004fb57620004ef600082620004bc565b600181019050620004d9565b5050565b601f8211156200054a576200051481620003be565b6200051f84620003d3565b810160208510156200052f578190505b620005476200053e85620003d3565b830182620004d8565b50505b505050565b600082821c905092915050565b60006200056f600019846008026200054f565b1980831691505092915050565b60006200058a83836200055c565b9150826002028217905092915050565b620005a58262000320565b67ffffffffffffffff811115620005c157620005c06200032b565b5b620005cd825462000389565b620005da828285620004ff565b600060209050601f831160018114620006125760008415620005fd578287015190505b6200060985826200057c565b86555062000679565b601f1984166200062286620003be565b60005b828110156200064c5784890151825560018201915060208501945060208101905062000625565b868310156200066c578489015162000668601f8916826200055c565b8355505b6001600288020188555050505b505050505050565b6200068c81620002a9565b82525050565b6000602082019050620006a9600083018462000681565b92915050565b61320f80620006bf6000396000f3fe6080604052600436106101b75760003560e01c806370a08231116100ec578063a22cb4651161008a578063d5abeb0111610064578063d5abeb01146105f6578063e985e9c514610621578063f09460c41461065e578063f2fde38b1461067a576101b7565b8063a22cb46514610567578063b88d4fde14610590578063c87b56dd146105b9576101b7565b806389476069116100c657806389476069146104a95780638da5cb5b146104d257806394eb192d146104fd57806395d89b411461053c576101b7565b806370a082311461042c578063715018a614610469578063729ad39e14610480576101b7565b806323b872dd116101595780633ccfd60b116101335780633ccfd60b1461038457806342842e0e1461039b5780636352211e146103c45780636c0360eb14610401576101b7565b806323b872dd146103075780632d61419a1461033057806338af3eed14610359576101b7565b8063081812fc11610195578063081812fc1461024f578063095ea7b31461028c5780630aaffd2a146102b55780631789e2d8146102de576101b7565b806301ffc9a7146101bc57806305acf72c146101f957806306fdde0314610224575b600080fd5b3480156101c857600080fd5b506101e360048036038101906101de9190612385565b6106a3565b6040516101f091906123cd565b60405180910390f35b34801561020557600080fd5b5061020e610785565b60405161021b9190612478565b60405180910390f35b34801561023057600080fd5b50610239610813565b6040516102469190612478565b60405180910390f35b34801561025b57600080fd5b50610276600480360381019061027191906124d0565b6108a5565b604051610283919061253e565b60405180910390f35b34801561029857600080fd5b506102b360048036038101906102ae9190612585565b6108c1565b005b3480156102c157600080fd5b506102dc60048036038101906102d791906125c5565b6108d7565b005b3480156102ea57600080fd5b5061030560048036038101906103009190612657565b610923565b005b34801561031357600080fd5b5061032e600480360381019061032991906126d8565b610955565b005b34801561033c57600080fd5b5061035760048036038101906103529190612585565b610a57565b005b34801561036557600080fd5b5061036e610c4b565b60405161037b919061253e565b60405180910390f35b34801561039057600080fd5b50610399610c71565b005b3480156103a757600080fd5b506103c260048036038101906103bd91906126d8565b610ce4565b005b3480156103d057600080fd5b506103eb60048036038101906103e691906124d0565b610d04565b6040516103f8919061253e565b60405180910390f35b34801561040d57600080fd5b50610416610d16565b6040516104239190612478565b60405180910390f35b34801561043857600080fd5b50610453600480360381019061044e91906125c5565b610da4565b604051610460919061273a565b60405180910390f35b34801561047557600080fd5b5061047e610e5e565b005b34801561048c57600080fd5b506104a760048036038101906104a291906127ab565b610e72565b005b3480156104b557600080fd5b506104d060048036038101906104cb91906125c5565b610f31565b005b3480156104de57600080fd5b506104e7611056565b6040516104f4919061253e565b60405180910390f35b34801561050957600080fd5b50610524600480360381019061051f91906124d0565b611080565b604051610533939291906127f8565b60405180910390f35b34801561054857600080fd5b506105516110d7565b60405161055e9190612478565b60405180910390f35b34801561057357600080fd5b5061058e6004803603810190610589919061285b565b611169565b005b34801561059c57600080fd5b506105b760048036038101906105b291906129cb565b61117f565b005b3480156105c557600080fd5b506105e060048036038101906105db91906124d0565b61119c565b6040516105ed9190612478565b60405180910390f35b34801561060257600080fd5b5061060b6111d0565b604051610618919061273a565b60405180910390f35b34801561062d57600080fd5b5061064860048036038101906106439190612a4e565b6111d6565b60405161065591906123cd565b60405180910390f35b610678600480360381019061067391906124d0565b61126a565b005b34801561068657600080fd5b506106a1600480360381019061069c91906125c5565b6113e2565b005b60007f80ac58cd000000000000000000000000000000000000000000000000000000007bffffffffffffffffffffffffffffffffffffffffffffffffffffffff1916827bffffffffffffffffffffffffffffffffffffffffffffffffffffffff1916148061076e57507f5b5e139f000000000000000000000000000000000000000000000000000000007bffffffffffffffffffffffffffffffffffffffffffffffffffffffff1916827bffffffffffffffffffffffffffffffffffffffffffffffffffffffff1916145b8061077e575061077d82611468565b5b9050919050565b600b805461079290612abd565b80601f01602080910402602001604051908101604052809291908181526020018280546107be90612abd565b801561080b5780601f106107e05761010080835404028352916020019161080b565b820191906000526020600020905b8154815290600101906020018083116107ee57829003601f168201915b505050505081565b60606000805461082290612abd565b80601f016020809104026020016040519081016040528092919081815260200182805461084e90612abd565b801561089b5780601f106108705761010080835404028352916020019161089b565b820191906000526020600020905b81548152906001019060200180831161087e57829003601f168201915b5050505050905090565b60006108b0826114d2565b506108ba8261155a565b9050919050565b6108d382826108ce611597565b61159f565b5050565b6108df6115b1565b80600860006101000a81548173ffffffffffffffffffffffffffffffffffffffff021916908373ffffffffffffffffffffffffffffffffffffffff16021790555050565b61092b6115b1565b83836007918261093c929190612ca5565b508181600b918261094e929190612ca5565b5050505050565b600073ffffffffffffffffffffffffffffffffffffffff168273ffffffffffffffffffffffffffffffffffffffff16036109c75760006040517f64a0ae920000000000000000000000000000000000000000000000000000000081526004016109be919061253e565b60405180910390fd5b60006109db83836109d6611597565b611638565b90508373ffffffffffffffffffffffffffffffffffffffff168173ffffffffffffffffffffffffffffffffffffffff1614610a51578382826040517f64283d7b000000000000000000000000000000000000000000000000000000008152600401610a4893929190612d75565b60405180910390fd5b50505050565b6000811015610a92576040517faec5ccf300000000000000000000000000000000000000000000000000000000815260040160405180910390fd5b808273ffffffffffffffffffffffffffffffffffffffff166370a08231306040518263ffffffff1660e01b8152600401610acc919061253e565b602060405180830381865afa158015610ae9573d6000803e3d6000fd5b505050506040513d601f19601f82011682018060405250810190610b0d9190612dc1565b1015610b45576040517faec5ccf300000000000000000000000000000000000000000000000000000000815260040160405180910390fd5b6000600c5482610b559190612e4c565b90506000600190505b600c54811015610c45576000610b7382610d04565b9050600073ffffffffffffffffffffffffffffffffffffffff168173ffffffffffffffffffffffffffffffffffffffff1614158015610bb25750600083115b15610c37578473ffffffffffffffffffffffffffffffffffffffff1663a9059cbb82856040518363ffffffff1660e01b8152600401610bf2929190612e7d565b6020604051808303816000875af1158015610c11573d6000803e3d6000fd5b505050506040513d601f19601f82011682018060405250810190610c359190612ebb565b505b508080600101915050610b5e565b50505050565b600860009054906101000a900473ffffffffffffffffffffffffffffffffffffffff1681565b610c796115b1565b600860009054906101000a900473ffffffffffffffffffffffffffffffffffffffff1673ffffffffffffffffffffffffffffffffffffffff166108fc479081150290604051600060405180830381858888f19350505050158015610ce1573d6000803e3d6000fd5b50565b610cff8383836040518060200160405280600081525061117f565b505050565b6000610d0f826114d2565b9050919050565b60078054610d2390612abd565b80601f0160208091040260200160405190810160405280929190818152602001828054610d4f90612abd565b8015610d9c5780601f10610d7157610100808354040283529160200191610d9c565b820191906000526020600020905b815481529060010190602001808311610d7f57829003601f168201915b505050505081565b60008073ffffffffffffffffffffffffffffffffffffffff168273ffffffffffffffffffffffffffffffffffffffff1603610e175760006040517f89c62b64000000000000000000000000000000000000000000000000000000008152600401610e0e919061253e565b60405180910390fd5b600360008373ffffffffffffffffffffffffffffffffffffffff1673ffffffffffffffffffffffffffffffffffffffff168152602001908152602001600020549050919050565b610e666115b1565b610e706000611852565b565b610e7a6115b1565b600082829050905080600c54610e909190612ee8565b6009541015610ecb576040517f846fb9e200000000000000000000000000000000000000000000000000000000815260040160405180910390fd5b60005b81811015610f2b576001600c54610ee59190612ee8565b600c81905550610f1e848483818110610f0157610f00612f1c565b5b9050602002016020810190610f1691906125c5565b600c54611918565b8080600101915050610ece565b50505050565b610f396115b1565b8073ffffffffffffffffffffffffffffffffffffffff1663a9059cbb600860009054906101000a900473ffffffffffffffffffffffffffffffffffffffff168373ffffffffffffffffffffffffffffffffffffffff166370a08231306040518263ffffffff1660e01b8152600401610fb1919061253e565b602060405180830381865afa158015610fce573d6000803e3d6000fd5b505050506040513d601f19601f82011682018060405250810190610ff29190612dc1565b6040518363ffffffff1660e01b815260040161100f929190612e7d565b6020604051808303816000875af115801561102e573d6000803e3d6000fd5b505050506040513d601f19601f820116820180604052508101906110529190612ebb565b5050565b6000600660009054906101000a900473ffffffffffffffffffffffffffffffffffffffff16905090565b600a6020528060005260406000206000915090508060000160009054906101000a900460ff16908060010154908060020160009054906101000a900473ffffffffffffffffffffffffffffffffffffffff16905083565b6060600180546110e690612abd565b80601f016020809104026020016040519081016040528092919081815260200182805461111290612abd565b801561115f5780601f106111345761010080835404028352916020019161115f565b820191906000526020600020905b81548152906001019060200180831161114257829003601f168201915b5050505050905090565b61117b611174611597565b8383611936565b5050565b61118a848484610955565b61119684848484611aa5565b50505050565b606060076111a983611c5c565b6040516020016111ba929190613056565b6040516020818303038152906040529050919050565b60095481565b6000600560008473ffffffffffffffffffffffffffffffffffffffff1673ffffffffffffffffffffffffffffffffffffffff16815260200190815260200160002060008373ffffffffffffffffffffffffffffffffffffffff1673ffffffffffffffffffffffffffffffffffffffff16815260200190815260200160002060009054906101000a900460ff16905092915050565b600c548111156112a6576040517fc1ab6dc100000000000000000000000000000000000000000000000000000000815260040160405180910390fd5b34670de0b6b3a764000011156112e8576040517f3c6b4b2800000000000000000000000000000000000000000000000000000000815260040160405180910390fd5b600a6000828152602001908152602001600020600101600081548092919061130f90613085565b919050555061131c611597565b600a600083815260200190815260200160002060020160006101000a81548173ffffffffffffffffffffffffffffffffffffffff021916908373ffffffffffffffffffffffffffffffffffffffff1602179055506001600a600083815260200190815260200160002060000160006101000a81548160ff0219169083151502179055507f80bb27007f4982b04cb14b3bcc40ff66cc89833ba97b38ea17a09b962b620924816113c9611597565b6040516113d79291906130cd565b60405180910390a150565b6113ea6115b1565b600073ffffffffffffffffffffffffffffffffffffffff168173ffffffffffffffffffffffffffffffffffffffff160361145c5760006040517f1e4fbdf7000000000000000000000000000000000000000000000000000000008152600401611453919061253e565b60405180910390fd5b61146581611852565b50565b60007f01ffc9a7000000000000000000000000000000000000000000000000000000007bffffffffffffffffffffffffffffffffffffffffffffffffffffffff1916827bffffffffffffffffffffffffffffffffffffffffffffffffffffffff1916149050919050565b6000806114de83611d2a565b9050600073ffffffffffffffffffffffffffffffffffffffff168173ffffffffffffffffffffffffffffffffffffffff160361155157826040517f7e273289000000000000000000000000000000000000000000000000000000008152600401611548919061273a565b60405180910390fd5b80915050919050565b60006004600083815260200190815260200160002060009054906101000a900473ffffffffffffffffffffffffffffffffffffffff169050919050565b600033905090565b6115ac8383836001611d67565b505050565b6115b9611597565b73ffffffffffffffffffffffffffffffffffffffff166115d7611056565b73ffffffffffffffffffffffffffffffffffffffff1614611636576115fa611597565b6040517f118cdaa700000000000000000000000000000000000000000000000000000000815260040161162d919061253e565b60405180910390fd5b565b60008061164484611d2a565b9050600073ffffffffffffffffffffffffffffffffffffffff168373ffffffffffffffffffffffffffffffffffffffff161461168657611685818486611f2c565b5b600073ffffffffffffffffffffffffffffffffffffffff168173ffffffffffffffffffffffffffffffffffffffff1614611717576116c8600085600080611d67565b6001600360008373ffffffffffffffffffffffffffffffffffffffff1673ffffffffffffffffffffffffffffffffffffffff168152602001908152602001600020600082825403925050819055505b600073ffffffffffffffffffffffffffffffffffffffff168573ffffffffffffffffffffffffffffffffffffffff161461179a576001600360008773ffffffffffffffffffffffffffffffffffffffff1673ffffffffffffffffffffffffffffffffffffffff168152602001908152602001600020600082825401925050819055505b846002600086815260200190815260200160002060006101000a81548173ffffffffffffffffffffffffffffffffffffffff021916908373ffffffffffffffffffffffffffffffffffffffff160217905550838573ffffffffffffffffffffffffffffffffffffffff168273ffffffffffffffffffffffffffffffffffffffff167fddf252ad1be2c89b69c2b068fc378daa952ba7f163c4a11628f55a4df523b3ef60405160405180910390a4809150509392505050565b6000600660009054906101000a900473ffffffffffffffffffffffffffffffffffffffff16905081600660006101000a81548173ffffffffffffffffffffffffffffffffffffffff021916908373ffffffffffffffffffffffffffffffffffffffff1602179055508173ffffffffffffffffffffffffffffffffffffffff168173ffffffffffffffffffffffffffffffffffffffff167f8be0079c531659141344cd1fd0a4f28419497f9722a3daafe3b4186f6b6457e060405160405180910390a35050565b611932828260405180602001604052806000815250611ff0565b5050565b600073ffffffffffffffffffffffffffffffffffffffff168273ffffffffffffffffffffffffffffffffffffffff16036119a757816040517f5b08ba1800000000000000000000000000000000000000000000000000000000815260040161199e919061253e565b60405180910390fd5b80600560008573ffffffffffffffffffffffffffffffffffffffff1673ffffffffffffffffffffffffffffffffffffffff16815260200190815260200160002060008473ffffffffffffffffffffffffffffffffffffffff1673ffffffffffffffffffffffffffffffffffffffff16815260200190815260200160002060006101000a81548160ff0219169083151502179055508173ffffffffffffffffffffffffffffffffffffffff168373ffffffffffffffffffffffffffffffffffffffff167f17307eab39ab6107e8899845ad3d59bd9653f200f220920489ca2b5937696c3183604051611a9891906123cd565b60405180910390a3505050565b60008373ffffffffffffffffffffffffffffffffffffffff163b1115611c56578273ffffffffffffffffffffffffffffffffffffffff1663150b7a02611ae9611597565b8685856040518563ffffffff1660e01b8152600401611b0b949392919061314b565b6020604051808303816000875af1925050508015611b4757506040513d601f19601f82011682018060405250810190611b4491906131ac565b60015b611bcb573d8060008114611b77576040519150601f19603f3d011682016040523d82523d6000602084013e611b7c565b606091505b506000815103611bc357836040517f64a0ae92000000000000000000000000000000000000000000000000000000008152600401611bba919061253e565b60405180910390fd5b805181602001fd5b63150b7a0260e01b7bffffffffffffffffffffffffffffffffffffffffffffffffffffffff1916817bffffffffffffffffffffffffffffffffffffffffffffffffffffffff191614611c5457836040517f64a0ae92000000000000000000000000000000000000000000000000000000008152600401611c4b919061253e565b60405180910390fd5b505b50505050565b606060006001611c6b8461200c565b01905060008167ffffffffffffffff811115611c8a57611c896128a0565b5b6040519080825280601f01601f191660200182016040528015611cbc5781602001600182028036833780820191505090505b509050600082602001820190505b600115611d1f578080600190039150507f3031323334353637383961626364656600000000000000000000000000000000600a86061a8153600a8581611d1357611d12612dee565b5b04945060008503611cca575b819350505050919050565b60006002600083815260200190815260200160002060009054906101000a900473ffffffffffffffffffffffffffffffffffffffff169050919050565b8080611da05750600073ffffffffffffffffffffffffffffffffffffffff168273ffffffffffffffffffffffffffffffffffffffff1614155b15611ed4576000611db0846114d2565b9050600073ffffffffffffffffffffffffffffffffffffffff168373ffffffffffffffffffffffffffffffffffffffff1614158015611e1b57508273ffffffffffffffffffffffffffffffffffffffff168173ffffffffffffffffffffffffffffffffffffffff1614155b8015611e2e5750611e2c81846111d6565b155b15611e7057826040517fa9fbf51f000000000000000000000000000000000000000000000000000000008152600401611e67919061253e565b60405180910390fd5b8115611ed257838573ffffffffffffffffffffffffffffffffffffffff168273ffffffffffffffffffffffffffffffffffffffff167f8c5be1e5ebec7d5bd14f71427d1e84f3dd0314c0f7b2291e5b200ac8c7c3b92560405160405180910390a45b505b836004600085815260200190815260200160002060006101000a81548173ffffffffffffffffffffffffffffffffffffffff021916908373ffffffffffffffffffffffffffffffffffffffff16021790555050505050565b611f3783838361215f565b611feb57600073ffffffffffffffffffffffffffffffffffffffff168373ffffffffffffffffffffffffffffffffffffffff1603611fac57806040517f7e273289000000000000000000000000000000000000000000000000000000008152600401611fa3919061273a565b60405180910390fd5b81816040517f177e802f000000000000000000000000000000000000000000000000000000008152600401611fe2929190612e7d565b60405180910390fd5b505050565b611ffa8383612220565b6120076000848484611aa5565b505050565b600080600090507a184f03e93ff9f4daa797ed6e38ed64bf6a1f010000000000000000831061206a577a184f03e93ff9f4daa797ed6e38ed64bf6a1f01000000000000000083816120605761205f612dee565b5b0492506040810190505b6d04ee2d6d415b85acef810000000083106120a7576d04ee2d6d415b85acef8100000000838161209d5761209c612dee565b5b0492506020810190505b662386f26fc1000083106120d657662386f26fc1000083816120cc576120cb612dee565b5b0492506010810190505b6305f5e10083106120ff576305f5e10083816120f5576120f4612dee565b5b0492506008810190505b612710831061212457612710838161211a57612119612dee565b5b0492506004810190505b60648310612147576064838161213d5761213c612dee565b5b0492506002810190505b600a8310612156576001810190505b80915050919050565b60008073ffffffffffffffffffffffffffffffffffffffff168373ffffffffffffffffffffffffffffffffffffffff161415801561221757508273ffffffffffffffffffffffffffffffffffffffff168473ffffffffffffffffffffffffffffffffffffffff1614806121d857506121d784846111d6565b5b8061221657508273ffffffffffffffffffffffffffffffffffffffff166121fe8361155a565b73ffffffffffffffffffffffffffffffffffffffff16145b5b90509392505050565b600073ffffffffffffffffffffffffffffffffffffffff168273ffffffffffffffffffffffffffffffffffffffff16036122925760006040517f64a0ae92000000000000000000000000000000000000000000000000000000008152600401612289919061253e565b60405180910390fd5b60006122a083836000611638565b9050600073ffffffffffffffffffffffffffffffffffffffff168173ffffffffffffffffffffffffffffffffffffffff16146123145760006040517f73c6ac6e00000000000000000000000000000000000000000000000000000000815260040161230b919061253e565b60405180910390fd5b505050565b6000604051905090565b600080fd5b600080fd5b60007fffffffff0000000000000000000000000000000000000000000000000000000082169050919050565b6123628161232d565b811461236d57600080fd5b50565b60008135905061237f81612359565b92915050565b60006020828403121561239b5761239a612323565b5b60006123a984828501612370565b91505092915050565b60008115159050919050565b6123c7816123b2565b82525050565b60006020820190506123e260008301846123be565b92915050565b600081519050919050565b600082825260208201905092915050565b60005b83811015612422578082015181840152602081019050612407565b60008484015250505050565b6000601f19601f8301169050919050565b600061244a826123e8565b61245481856123f3565b9350612464818560208601612404565b61246d8161242e565b840191505092915050565b60006020820190508181036000830152612492818461243f565b905092915050565b6000819050919050565b6124ad8161249a565b81146124b857600080fd5b50565b6000813590506124ca816124a4565b92915050565b6000602082840312156124e6576124e5612323565b5b60006124f4848285016124bb565b91505092915050565b600073ffffffffffffffffffffffffffffffffffffffff82169050919050565b6000612528826124fd565b9050919050565b6125388161251d565b82525050565b6000602082019050612553600083018461252f565b92915050565b6125628161251d565b811461256d57600080fd5b50565b60008135905061257f81612559565b92915050565b6000806040838503121561259c5761259b612323565b5b60006125aa85828601612570565b92505060206125bb858286016124bb565b9150509250929050565b6000602082840312156125db576125da612323565b5b60006125e984828501612570565b91505092915050565b600080fd5b600080fd5b600080fd5b60008083601f840112612617576126166125f2565b5b8235905067ffffffffffffffff811115612634576126336125f7565b5b6020830191508360018202830111156126505761264f6125fc565b5b9250929050565b6000806000806040858703121561267157612670612323565b5b600085013567ffffffffffffffff81111561268f5761268e612328565b5b61269b87828801612601565b9450945050602085013567ffffffffffffffff8111156126be576126bd612328565b5b6126ca87828801612601565b925092505092959194509250565b6000806000606084860312156126f1576126f0612323565b5b60006126ff86828701612570565b935050602061271086828701612570565b9250506040612721868287016124bb565b9150509250925092565b6127348161249a565b82525050565b600060208201905061274f600083018461272b565b92915050565b60008083601f84011261276b5761276a6125f2565b5b8235905067ffffffffffffffff811115612788576127876125f7565b5b6020830191508360208202830111156127a4576127a36125fc565b5b9250929050565b600080602083850312156127c2576127c1612323565b5b600083013567ffffffffffffffff8111156127e0576127df612328565b5b6127ec85828601612755565b92509250509250929050565b600060608201905061280d60008301866123be565b61281a602083018561272b565b612827604083018461252f565b949350505050565b612838816123b2565b811461284357600080fd5b50565b6000813590506128558161282f565b92915050565b6000806040838503121561287257612871612323565b5b600061288085828601612570565b925050602061289185828601612846565b9150509250929050565b600080fd5b7f4e487b7100000000000000000000000000000000000000000000000000000000600052604160045260246000fd5b6128d88261242e565b810181811067ffffffffffffffff821117156128f7576128f66128a0565b5b80604052505050565b600061290a612319565b905061291682826128cf565b919050565b600067ffffffffffffffff821115612936576129356128a0565b5b61293f8261242e565b9050602081019050919050565b82818337600083830152505050565b600061296e6129698461291b565b612900565b90508281526020810184848401111561298a5761298961289b565b5b61299584828561294c565b509392505050565b600082601f8301126129b2576129b16125f2565b5b81356129c284826020860161295b565b91505092915050565b600080600080608085870312156129e5576129e4612323565b5b60006129f387828801612570565b9450506020612a0487828801612570565b9350506040612a15878288016124bb565b925050606085013567ffffffffffffffff811115612a3657612a35612328565b5b612a428782880161299d565b91505092959194509250565b60008060408385031215612a6557612a64612323565b5b6000612a7385828601612570565b9250506020612a8485828601612570565b9150509250929050565b7f4e487b7100000000000000000000000000000000000000000000000000000000600052602260045260246000fd5b60006002820490506001821680612ad557607f821691505b602082108103612ae857612ae7612a8e565b5b50919050565b600082905092915050565b60008190508160005260206000209050919050565b60006020601f8301049050919050565b600082821b905092915050565b600060088302612b5b7fffffffffffffffffffffffffffffffffffffffffffffffffffffffffffffffff82612b1e565b612b658683612b1e565b95508019841693508086168417925050509392505050565b6000819050919050565b6000612ba2612b9d612b988461249a565b612b7d565b61249a565b9050919050565b6000819050919050565b612bbc83612b87565b612bd0612bc882612ba9565b848454612b2b565b825550505050565b600090565b612be5612bd8565b612bf0818484612bb3565b505050565b5b81811015612c1457612c09600082612bdd565b600181019050612bf6565b5050565b601f821115612c5957612c2a81612af9565b612c3384612b0e565b81016020851015612c42578190505b612c56612c4e85612b0e565b830182612bf5565b50505b505050565b600082821c905092915050565b6000612c7c60001984600802612c5e565b1980831691505092915050565b6000612c958383612c6b565b9150826002028217905092915050565b612caf8383612aee565b67ffffffffffffffff811115612cc857612cc76128a0565b5b612cd28254612abd565b612cdd828285612c18565b6000601f831160018114612d0c5760008415612cfa578287013590505b612d048582612c89565b865550612d6c565b601f198416612d1a86612af9565b60005b82811015612d4257848901358255600182019150602085019450602081019050612d1d565b86831015612d5f5784890135612d5b601f891682612c6b565b8355505b6001600288020188555050505b50505050505050565b6000606082019050612d8a600083018661252f565b612d97602083018561272b565b612da4604083018461252f565b949350505050565b600081519050612dbb816124a4565b92915050565b600060208284031215612dd757612dd6612323565b5b6000612de584828501612dac565b91505092915050565b7f4e487b7100000000000000000000000000000000000000000000000000000000600052601260045260246000fd5b7f4e487b7100000000000000000000000000000000000000000000000000000000600052601160045260246000fd5b6000612e578261249a565b9150612e628361249a565b925082612e7257612e71612dee565b5b828204905092915050565b6000604082019050612e92600083018561252f565b612e9f602083018461272b565b9392505050565b600081519050612eb58161282f565b92915050565b600060208284031215612ed157612ed0612323565b5b6000612edf84828501612ea6565b91505092915050565b6000612ef38261249a565b9150612efe8361249a565b9250828201905080821115612f1657612f15612e1d565b5b92915050565b7f4e487b7100000000000000000000000000000000000000000000000000000000600052603260045260246000fd5b600081905092915050565b60008154612f6381612abd565b612f6d8186612f4b565b94506001821660008114612f885760018114612f9d57612fd0565b60ff1983168652811515820286019350612fd0565b612fa685612af9565b60005b83811015612fc857815481890152600182019150602081019050612fa9565b838801955050505b50505092915050565b6000612fe4826123e8565b612fee8185612f4b565b9350612ffe818560208601612404565b80840191505092915050565b7f2e6a736f6e000000000000000000000000000000000000000000000000000000600082015250565b6000613040600583612f4b565b915061304b8261300a565b600582019050919050565b60006130628285612f56565b915061306e8284612fd9565b915061307982613033565b91508190509392505050565b60006130908261249a565b91507fffffffffffffffffffffffffffffffffffffffffffffffffffffffffffffffff82036130c2576130c1612e1d565b5b600182019050919050565b60006040820190506130e2600083018561272b565b6130ef602083018461252f565b9392505050565b600081519050919050565b600082825260208201905092915050565b600061311d826130f6565b6131278185613101565b9350613137818560208601612404565b6131408161242e565b840191505092915050565b6000608082019050613160600083018761252f565b61316d602083018661252f565b61317a604083018561272b565b818103606083015261318c8184613112565b905095945050505050565b6000815190506131a681612359565b92915050565b6000602082840312156131c2576131c1612323565b5b60006131d084828501613197565b9150509291505056fea2646970667358221220d19b98c41874914cba16660dc623f39871a557349182c35116e00c9fe0f22db264736f6c63430008180033",
  "linkReferences": {},
  "deployedLinkReferences": {}
}