{
  "_format": "hh-sol-artifact-1",
  "contractName": "RugTARDS2",
  "sourceName": "contracts/Sonic/RugTARDS2.sol",
  "abi": [
    {
      "inputs": [
        {
          "internalType": "address",
          "name": "benef",
          "type": "address"
        }
      ],
      "stateMutability": "nonpayable",
      "type": "constructor"
    },
    {
      "inputs": [],
      "name": "ERC721EnumerableForbiddenBatchMint",
      "type": "error"
    },
    {
      "inputs": [
        {
          "internalType": "address",
          "name": "sender",
          "type": "address"
        },
        {
          "internalType": "uint256",
          "name": "tokenId",
          "type": "uint256"
        },
        {
          "internalType": "address",
          "name": "owner",
          "type": "address"
        }
      ],
      "name": "ERC721IncorrectOwner",
      "type": "error"
    },
    {
      "inputs": [
        {
          "internalType": "address",
          "name": "operator",
          "type": "address"
        },
        {
          "internalType": "uint256",
          "name": "tokenId",
          "type": "uint256"
        }
      ],
      "name": "ERC721InsufficientApproval",
      "type": "error"
    },
    {
      "inputs": [
        {
          "internalType": "address",
          "name": "approver",
          "type": "address"
        }
      ],
      "name": "ERC721InvalidApprover",
      "type": "error"
    },
    {
      "inputs": [
        {
          "internalType": "address",
          "name": "operator",
          "type": "address"
        }
      ],
      "name": "ERC721InvalidOperator",
      "type": "error"
    },
    {
      "inputs": [
        {
          "internalType": "address",
          "name": "owner",
          "type": "address"
        }
      ],
      "name": "ERC721InvalidOwner",
      "type": "error"
    },
    {
      "inputs": [
        {
          "internalType": "address",
          "name": "receiver",
          "type": "address"
        }
      ],
      "name": "ERC721InvalidReceiver",
      "type": "error"
    },
    {
      "inputs": [
        {
          "internalType": "address",
          "name": "sender",
          "type": "address"
        }
      ],
      "name": "ERC721InvalidSender",
      "type": "error"
    },
    {
      "inputs": [
        {
          "internalType": "uint256",
          "name": "tokenId",
          "type": "uint256"
        }
      ],
      "name": "ERC721NonexistentToken",
      "type": "error"
    },
    {
      "inputs": [
        {
          "internalType": "address",
          "name": "owner",
          "type": "address"
        },
        {
          "internalType": "uint256",
          "name": "index",
          "type": "uint256"
        }
      ],
      "name": "ERC721OutOfBoundsIndex",
      "type": "error"
    },
    {
      "inputs": [],
      "name": "InvalidPayment",
      "type": "error"
    },
    {
      "inputs": [],
      "name": "InvalidQuantity",
      "type": "error"
    },
    {
      "inputs": [],
      "name": "InvalidToken",
      "type": "error"
    },
    {
      "inputs": [],
      "name": "MintedOut",
      "type": "error"
    },
    {
      "inputs": [],
      "name": "MintingClosed",
      "type": "error"
    },
    {
      "inputs": [
        {
          "internalType": "address",
          "name": "owner",
          "type": "address"
        }
      ],
      "name": "OwnableInvalidOwner",
      "type": "error"
    },
    {
      "inputs": [
        {
          "internalType": "address",
          "name": "account",
          "type": "address"
        }
      ],
      "name": "OwnableUnauthorizedAccount",
      "type": "error"
    },
    {
      "inputs": [],
      "name": "invalidAmount",
      "type": "error"
    },
    {
      "anonymous": false,
      "inputs": [
        {
          "indexed": true,
          "internalType": "address",
          "name": "owner",
          "type": "address"
        },
        {
          "indexed": true,
          "internalType": "address",
          "name": "approved",
          "type": "address"
        },
        {
          "indexed": true,
          "internalType": "uint256",
          "name": "tokenId",
          "type": "uint256"
        }
      ],
      "name": "Approval",
      "type": "event"
    },
    {
      "anonymous": false,
      "inputs": [
        {
          "indexed": true,
          "internalType": "address",
          "name": "owner",
          "type": "address"
        },
        {
          "indexed": true,
          "internalType": "address",
          "name": "operator",
          "type": "address"
        },
        {
          "indexed": false,
          "internalType": "bool",
          "name": "approved",
          "type": "bool"
        }
      ],
      "name": "ApprovalForAll",
      "type": "event"
    },
    {
      "anonymous": false,
      "inputs": [
        {
          "indexed": true,
          "internalType": "address",
          "name": "previousOwner",
          "type": "address"
        },
        {
          "indexed": true,
          "internalType": "address",
          "name": "newOwner",
          "type": "address"
        }
      ],
      "name": "OwnershipTransferred",
      "type": "event"
    },
    {
      "anonymous": false,
      "inputs": [
        {
          "indexed": false,
          "internalType": "uint256",
          "name": "tokenId",
          "type": "uint256"
        },
        {
          "indexed": false,
          "internalType": "address",
          "name": "rugger",
          "type": "address"
        }
      ],
      "name": "Rugged",
      "type": "event"
    },
    {
      "anonymous": false,
      "inputs": [
        {
          "indexed": true,
          "internalType": "address",
          "name": "from",
          "type": "address"
        },
        {
          "indexed": true,
          "internalType": "address",
          "name": "to",
          "type": "address"
        },
        {
          "indexed": true,
          "internalType": "uint256",
          "name": "tokenId",
          "type": "uint256"
        }
      ],
      "name": "Transfer",
      "type": "event"
    },
    {
      "inputs": [
        {
          "internalType": "address[]",
          "name": "holders",
          "type": "address[]"
        }
      ],
      "name": "airdrop",
      "outputs": [],
      "stateMutability": "nonpayable",
      "type": "function"
    },
    {
      "inputs": [
        {
          "internalType": "address",
          "name": "to",
          "type": "address"
        },
        {
          "internalType": "uint256",
          "name": "tokenId",
          "type": "uint256"
        }
      ],
      "name": "approve",
      "outputs": [],
      "stateMutability": "nonpayable",
      "type": "function"
    },
    {
      "inputs": [
        {
          "internalType": "address",
          "name": "owner",
          "type": "address"
        }
      ],
      "name": "balanceOf",
      "outputs": [
        {
          "internalType": "uint256",
          "name": "",
          "type": "uint256"
        }
      ],
      "stateMutability": "view",
      "type": "function"
    },
    {
      "inputs": [],
      "name": "baseURI",
      "outputs": [
        {
          "internalType": "string",
          "name": "",
          "type": "string"
        }
      ],
      "stateMutability": "view",
      "type": "function"
    },
    {
      "inputs": [],
      "name": "beneficiary",
      "outputs": [
        {
          "internalType": "address",
          "name": "",
          "type": "address"
        }
      ],
      "stateMutability": "view",
      "type": "function"
    },
    {
      "inputs": [
        {
          "internalType": "address",
          "name": "token",
          "type": "address"
        },
        {
          "internalType": "uint256",
          "name": "amount",
          "type": "uint256"
        }
      ],
      "name": "distributePayment",
      "outputs": [],
      "stateMutability": "nonpayable",
      "type": "function"
    },
    {
      "inputs": [
        {
          "internalType": "uint256",
          "name": "tokenId",
          "type": "uint256"
        }
      ],
      "name": "getApproved",
      "outputs": [
        {
          "internalType": "address",
          "name": "",
          "type": "address"
        }
      ],
      "stateMutability": "view",
      "type": "function"
    },
    {
      "inputs": [
        {
          "internalType": "address",
          "name": "owner",
          "type": "address"
        },
        {
          "internalType": "address",
          "name": "operator",
          "type": "address"
        }
      ],
      "name": "isApprovedForAll",
      "outputs": [
        {
          "internalType": "bool",
          "name": "",
          "type": "bool"
        }
      ],
      "stateMutability": "view",
      "type": "function"
    },
    {
      "inputs": [],
      "name": "maxSupply",
      "outputs": [
        {
          "internalType": "uint256",
          "name": "",
          "type": "uint256"
        }
      ],
      "stateMutability": "view",
      "type": "function"
    },
    {
      "inputs": [],
      "name": "name",
      "outputs": [
        {
          "internalType": "string",
          "name": "",
          "type": "string"
        }
      ],
      "stateMutability": "view",
      "type": "function"
    },
    {
      "inputs": [],
      "name": "owner",
      "outputs": [
        {
          "internalType": "address",
          "name": "",
          "type": "address"
        }
      ],
      "stateMutability": "view",
      "type": "function"
    },
    {
      "inputs": [
        {
          "internalType": "uint256",
          "name": "tokenId",
          "type": "uint256"
        }
      ],
      "name": "ownerOf",
      "outputs": [
        {
          "internalType": "address",
          "name": "",
          "type": "address"
        }
      ],
      "stateMutability": "view",
      "type": "function"
    },
    {
      "inputs": [],
      "name": "renounceOwnership",
      "outputs": [],
      "stateMutability": "nonpayable",
      "type": "function"
    },
    {
      "inputs": [
        {
          "internalType": "uint256",
          "name": "",
          "type": "uint256"
        }
      ],
      "name": "rugged",
      "outputs": [
        {
          "internalType": "bool",
          "name": "isRugged",
          "type": "bool"
        },
        {
          "internalType": "uint256",
          "name": "totalRugged",
          "type": "uint256"
        },
        {
          "internalType": "address",
          "name": "lastRugger",
          "type": "address"
        }
      ],
      "stateMutability": "view",
      "type": "function"
    },
    {
      "inputs": [],
      "name": "ruggedURI",
      "outputs": [
        {
          "internalType": "string",
          "name": "",
          "type": "string"
        }
      ],
      "stateMutability": "view",
      "type": "function"
    },
    {
      "inputs": [
        {
          "internalType": "uint256",
          "name": "tokenId",
          "type": "uint256"
        }
      ],
      "name": "rugpull",
      "outputs": [],
      "stateMutability": "payable",
      "type": "function"
    },
    {
      "inputs": [
        {
          "internalType": "address",
          "name": "from",
          "type": "address"
        },
        {
          "internalType": "address",
          "name": "to",
          "type": "address"
        },
        {
          "internalType": "uint256",
          "name": "tokenId",
          "type": "uint256"
        }
      ],
      "name": "safeTransferFrom",
      "outputs": [],
      "stateMutability": "nonpayable",
      "type": "function"
    },
    {
      "inputs": [
        {
          "internalType": "address",
          "name": "from",
          "type": "address"
        },
        {
          "internalType": "address",
          "name": "to",
          "type": "address"
        },
        {
          "internalType": "uint256",
          "name": "tokenId",
          "type": "uint256"
        },
        {
          "internalType": "bytes",
          "name": "data",
          "type": "bytes"
        }
      ],
      "name": "safeTransferFrom",
      "outputs": [],
      "stateMutability": "nonpayable",
      "type": "function"
    },
    {
      "inputs": [
        {
          "internalType": "address",
          "name": "operator",
          "type": "address"
        },
        {
          "internalType": "bool",
          "name": "approved",
          "type": "bool"
        }
      ],
      "name": "setApprovalForAll",
      "outputs": [],
      "stateMutability": "nonpayable",
      "type": "function"
    },
    {
      "inputs": [
        {
          "internalType": "bytes4",
          "name": "interfaceId",
          "type": "bytes4"
        }
      ],
      "name": "supportsInterface",
      "outputs": [
        {
          "internalType": "bool",
          "name": "",
          "type": "bool"
        }
      ],
      "stateMutability": "view",
      "type": "function"
    },
    {
      "inputs": [],
      "name": "symbol",
      "outputs": [
        {
          "internalType": "string",
          "name": "",
          "type": "string"
        }
      ],
      "stateMutability": "view",
      "type": "function"
    },
    {
      "inputs": [
        {
          "internalType": "uint256",
          "name": "index",
          "type": "uint256"
        }
      ],
      "name": "tokenByIndex",
      "outputs": [
        {
          "internalType": "uint256",
          "name": "",
          "type": "uint256"
        }
      ],
      "stateMutability": "view",
      "type": "function"
    },
    {
      "inputs": [
        {
          "internalType": "address",
          "name": "owner",
          "type": "address"
        },
        {
          "internalType": "uint256",
          "name": "index",
          "type": "uint256"
        }
      ],
      "name": "tokenOfOwnerByIndex",
      "outputs": [
        {
          "internalType": "uint256",
          "name": "",
          "type": "uint256"
        }
      ],
      "stateMutability": "view",
      "type": "function"
    },
    {
      "inputs": [
        {
          "internalType": "uint256",
          "name": "tokenId",
          "type": "uint256"
        }
      ],
      "name": "tokenURI",
      "outputs": [
        {
          "internalType": "string",
          "name": "",
          "type": "string"
        }
      ],
      "stateMutability": "view",
      "type": "function"
    },
    {
      "inputs": [],
      "name": "totalSupply",
      "outputs": [
        {
          "internalType": "uint256",
          "name": "",
          "type": "uint256"
        }
      ],
      "stateMutability": "view",
      "type": "function"
    },
    {
      "inputs": [
        {
          "internalType": "address",
          "name": "from",
          "type": "address"
        },
        {
          "internalType": "address",
          "name": "to",
          "type": "address"
        },
        {
          "internalType": "uint256",
          "name": "tokenId",
          "type": "uint256"
        }
      ],
      "name": "transferFrom",
      "outputs": [],
      "stateMutability": "nonpayable",
      "type": "function"
    },
    {
      "inputs": [
        {
          "internalType": "address",
          "name": "newOwner",
          "type": "address"
        }
      ],
      "name": "transferOwnership",
      "outputs": [],
      "stateMutability": "nonpayable",
      "type": "function"
    },
    {
      "inputs": [
        {
          "internalType": "address",
          "name": "newBeneficiary",
          "type": "address"
        }
      ],
      "name": "updateBeneficiary",
      "outputs": [],
      "stateMutability": "nonpayable",
      "type": "function"
    },
    {
      "inputs": [
        {
          "internalType": "string",
          "name": "newURI",
          "type": "string"
        },
        {
          "internalType": "string",
          "name": "newRugged",
          "type": "string"
        }
      ],
      "name": "updateURI",
      "outputs": [],
      "stateMutability": "nonpayable",
      "type": "function"
    },
    {
      "inputs": [],
      "name": "withdraw",
      "outputs": [],
      "stateMutability": "nonpayable",
      "type": "function"
    },
    {
      "inputs": [
        {
          "internalType": "address",
          "name": "token",
          "type": "address"
        }
      ],
      "name": "withdrawToken",
      "outputs": [],
      "stateMutability": "nonpayable",
      "type": "function"
    }
  ],
  "bytecode": "0x60806040526101a4600d553480156200001757600080fd5b5060405162003f8c38038062003f8c83398181016040528101906200003d9190620002e6565b6200004d620001ae60201b60201c565b6040518060400160405280600881526020017f52756754415244530000000000000000000000000000000000000000000000008152506040518060400160405280600581526020017f52544152440000000000000000000000000000000000000000000000000000008152508160009081620000ca919062000592565b508060019081620000dc919062000592565b505050600073ffffffffffffffffffffffffffffffffffffffff168173ffffffffffffffffffffffffffffffffffffffff1603620001545760006040517f1e4fbdf70000000000000000000000000000000000000000000000000000000081526004016200014b91906200068a565b60405180910390fd5b6200016581620001b660201b60201c565b5080600c60006101000a81548173ffffffffffffffffffffffffffffffffffffffff021916908373ffffffffffffffffffffffffffffffffffffffff16021790555050620006a7565b600033905090565b6000600a60009054906101000a900473ffffffffffffffffffffffffffffffffffffffff16905081600a60006101000a81548173ffffffffffffffffffffffffffffffffffffffff021916908373ffffffffffffffffffffffffffffffffffffffff1602179055508173ffffffffffffffffffffffffffffffffffffffff168173ffffffffffffffffffffffffffffffffffffffff167f8be0079c531659141344cd1fd0a4f28419497f9722a3daafe3b4186f6b6457e060405160405180910390a35050565b600080fd5b600073ffffffffffffffffffffffffffffffffffffffff82169050919050565b6000620002ae8262000281565b9050919050565b620002c081620002a1565b8114620002cc57600080fd5b50565b600081519050620002e081620002b5565b92915050565b600060208284031215620002ff57620002fe6200027c565b5b60006200030f84828501620002cf565b91505092915050565b600081519050919050565b7f4e487b7100000000000000000000000000000000000000000000000000000000600052604160045260246000fd5b7f4e487b7100000000000000000000000000000000000000000000000000000000600052602260045260246000fd5b600060028204905060018216806200039a57607f821691505b602082108103620003b057620003af62000352565b5b50919050565b60008190508160005260206000209050919050565b60006020601f8301049050919050565b600082821b905092915050565b6000600883026200041a7fffffffffffffffffffffffffffffffffffffffffffffffffffffffffffffffff82620003db565b620004268683620003db565b95508019841693508086168417925050509392505050565b6000819050919050565b6000819050919050565b6000620004736200046d62000467846200043e565b62000448565b6200043e565b9050919050565b6000819050919050565b6200048f8362000452565b620004a76200049e826200047a565b848454620003e8565b825550505050565b600090565b620004be620004af565b620004cb81848462000484565b505050565b5b81811015620004f357620004e7600082620004b4565b600181019050620004d1565b5050565b601f82111562000542576200050c81620003b6565b6200051784620003cb565b8101602085101562000527578190505b6200053f6200053685620003cb565b830182620004d0565b50505b505050565b600082821c905092915050565b6000620005676000198460080262000547565b1980831691505092915050565b600062000582838362000554565b9150826002028217905092915050565b6200059d8262000318565b67ffffffffffffffff811115620005b957620005b862000323565b5b620005c5825462000381565b620005d2828285620004f7565b600060209050601f8311600181146200060a5760008415620005f5578287015190505b62000601858262000574565b86555062000671565b601f1984166200061a86620003b6565b60005b8281101562000644578489015182556001820191506020850194506020810190506200061d565b8683101562000664578489015162000660601f89168262000554565b8355505b6001600288020188555050505b505050505050565b6200068481620002a1565b82525050565b6000602082019050620006a1600083018462000679565b92915050565b6138d580620006b76000396000f3fe6080604052600436106101d85760003560e01c80636352211e1161010257806395d89b4111610095578063d5abeb0111610064578063d5abeb01146106bc578063e985e9c5146106e7578063f09460c414610724578063f2fde38b14610740576101d8565b806395d89b4114610602578063a22cb4651461062d578063b88d4fde14610656578063c87b56dd1461067f576101d8565b8063729ad39e116100d1578063729ad39e14610546578063894760691461056f5780638da5cb5b1461059857806394eb192d146105c3576101d8565b80636352211e1461048a5780636c0360eb146104c757806370a08231146104f2578063715018a61461052f576101d8565b806318160ddd1161017a57806338af3eed1161014957806338af3eed146103e25780633ccfd60b1461040d57806342842e0e146104245780634f6ccce71461044d576101d8565b806318160ddd1461032857806323b872dd146103535780632d61419a1461037c5780632f745c59146103a5576101d8565b8063081812fc116101b6578063081812fc14610270578063095ea7b3146102ad5780630aaffd2a146102d65780631789e2d8146102ff576101d8565b806301ffc9a7146101dd57806305acf72c1461021a57806306fdde0314610245575b600080fd5b3480156101e957600080fd5b5061020460048036038101906101ff91906129e8565b610769565b6040516102119190612a30565b60405180910390f35b34801561022657600080fd5b5061022f6107e3565b60405161023c9190612adb565b60405180910390f35b34801561025157600080fd5b5061025a610871565b6040516102679190612adb565b60405180910390f35b34801561027c57600080fd5b5061029760048036038101906102929190612b33565b610903565b6040516102a49190612ba1565b60405180910390f35b3480156102b957600080fd5b506102d460048036038101906102cf9190612be8565b61091f565b005b3480156102e257600080fd5b506102fd60048036038101906102f89190612c28565b610935565b005b34801561030b57600080fd5b5061032660048036038101906103219190612cba565b610981565b005b34801561033457600080fd5b5061033d6109b3565b60405161034a9190612d4a565b60405180910390f35b34801561035f57600080fd5b5061037a60048036038101906103759190612d65565b6109c0565b005b34801561038857600080fd5b506103a3600480360381019061039e9190612be8565b610ac2565b005b3480156103b157600080fd5b506103cc60048036038101906103c79190612be8565b610ccc565b6040516103d99190612d4a565b60405180910390f35b3480156103ee57600080fd5b506103f7610d75565b6040516104049190612ba1565b60405180910390f35b34801561041957600080fd5b50610422610d9b565b005b34801561043057600080fd5b5061044b60048036038101906104469190612d65565b610e0e565b005b34801561045957600080fd5b50610474600480360381019061046f9190612b33565b610e2e565b6040516104819190612d4a565b60405180910390f35b34801561049657600080fd5b506104b160048036038101906104ac9190612b33565b610ea4565b6040516104be9190612ba1565b60405180910390f35b3480156104d357600080fd5b506104dc610eb6565b6040516104e99190612adb565b60405180910390f35b3480156104fe57600080fd5b5061051960048036038101906105149190612c28565b610f44565b6040516105269190612d4a565b60405180910390f35b34801561053b57600080fd5b50610544610ffe565b005b34801561055257600080fd5b5061056d60048036038101906105689190612e0e565b611012565b005b34801561057b57600080fd5b5061059660048036038101906105919190612c28565b6110d2565b005b3480156105a457600080fd5b506105ad6111f7565b6040516105ba9190612ba1565b60405180910390f35b3480156105cf57600080fd5b506105ea60048036038101906105e59190612b33565b611221565b6040516105f993929190612e5b565b60405180910390f35b34801561060e57600080fd5b50610617611278565b6040516106249190612adb565b60405180910390f35b34801561063957600080fd5b50610654600480360381019061064f9190612ebe565b61130a565b005b34801561066257600080fd5b5061067d6004803603810190610678919061302e565b611320565b005b34801561068b57600080fd5b506106a660048036038101906106a19190612b33565b61133d565b6040516106b39190612adb565b60405180910390f35b3480156106c857600080fd5b506106d1611371565b6040516106de9190612d4a565b60405180910390f35b3480156106f357600080fd5b5061070e600480360381019061070991906130b1565b611377565b60405161071b9190612a30565b60405180910390f35b61073e60048036038101906107399190612b33565b61140b565b005b34801561074c57600080fd5b5061076760048036038101906107629190612c28565b61157a565b005b60007f780e9d63000000000000000000000000000000000000000000000000000000007bffffffffffffffffffffffffffffffffffffffffffffffffffffffff1916827bffffffffffffffffffffffffffffffffffffffffffffffffffffffff191614806107dc57506107db82611600565b5b9050919050565b600f80546107f090613120565b80601f016020809104026020016040519081016040528092919081815260200182805461081c90613120565b80156108695780601f1061083e57610100808354040283529160200191610869565b820191906000526020600020905b81548152906001019060200180831161084c57829003601f168201915b505050505081565b60606000805461088090613120565b80601f01602080910402602001604051908101604052809291908181526020018280546108ac90613120565b80156108f95780601f106108ce576101008083540402835291602001916108f9565b820191906000526020600020905b8154815290600101906020018083116108dc57829003601f168201915b5050505050905090565b600061090e826116e2565b506109188261176a565b9050919050565b610931828261092c6117a7565b6117af565b5050565b61093d6117c1565b80600c60006101000a81548173ffffffffffffffffffffffffffffffffffffffff021916908373ffffffffffffffffffffffffffffffffffffffff16021790555050565b6109896117c1565b8383600b918261099a929190613308565b508181600f91826109ac929190613308565b5050505050565b6000600880549050905090565b600073ffffffffffffffffffffffffffffffffffffffff168273ffffffffffffffffffffffffffffffffffffffff1603610a325760006040517f64a0ae92000000000000000000000000000000000000000000000000000000008152600401610a299190612ba1565b60405180910390fd5b6000610a468383610a416117a7565b611848565b90508373ffffffffffffffffffffffffffffffffffffffff168173ffffffffffffffffffffffffffffffffffffffff1614610abc578382826040517f64283d7b000000000000000000000000000000000000000000000000000000008152600401610ab3939291906133d8565b60405180910390fd5b50505050565b6000811015610afd576040517faec5ccf300000000000000000000000000000000000000000000000000000000815260040160405180910390fd5b808273ffffffffffffffffffffffffffffffffffffffff166370a08231306040518263ffffffff1660e01b8152600401610b379190612ba1565b602060405180830381865afa158015610b54573d6000803e3d6000fd5b505050506040513d601f19601f82011682018060405250810190610b789190613424565b1015610bb0576040517faec5ccf300000000000000000000000000000000000000000000000000000000815260040160405180910390fd5b6000610bba6109b3565b82610bc591906134af565b90506000600190505b6001610bd86109b3565b610be291906134e0565b811015610cc6576000610bf482610ea4565b9050600073ffffffffffffffffffffffffffffffffffffffff168173ffffffffffffffffffffffffffffffffffffffff1614158015610c335750600083115b15610cb8578473ffffffffffffffffffffffffffffffffffffffff1663a9059cbb82856040518363ffffffff1660e01b8152600401610c73929190613514565b6020604051808303816000875af1158015610c92573d6000803e3d6000fd5b505050506040513d601f19601f82011682018060405250810190610cb69190613552565b505b508080600101915050610bce565b50505050565b6000610cd783610f44565b8210610d1c5782826040517fa57d13dc000000000000000000000000000000000000000000000000000000008152600401610d13929190613514565b60405180910390fd5b600660008473ffffffffffffffffffffffffffffffffffffffff1673ffffffffffffffffffffffffffffffffffffffff168152602001908152602001600020600083815260200190815260200160002054905092915050565b600c60009054906101000a900473ffffffffffffffffffffffffffffffffffffffff1681565b610da36117c1565b600c60009054906101000a900473ffffffffffffffffffffffffffffffffffffffff1673ffffffffffffffffffffffffffffffffffffffff166108fc479081150290604051600060405180830381858888f19350505050158015610e0b573d6000803e3d6000fd5b50565b610e2983838360405180602001604052806000815250611320565b505050565b6000610e386109b3565b8210610e7e576000826040517fa57d13dc000000000000000000000000000000000000000000000000000000008152600401610e75929190613514565b60405180910390fd5b60088281548110610e9257610e9161357f565b5b90600052602060002001549050919050565b6000610eaf826116e2565b9050919050565b600b8054610ec390613120565b80601f0160208091040260200160405190810160405280929190818152602001828054610eef90613120565b8015610f3c5780601f10610f1157610100808354040283529160200191610f3c565b820191906000526020600020905b815481529060010190602001808311610f1f57829003601f168201915b505050505081565b60008073ffffffffffffffffffffffffffffffffffffffff168273ffffffffffffffffffffffffffffffffffffffff1603610fb75760006040517f89c62b64000000000000000000000000000000000000000000000000000000008152600401610fae9190612ba1565b60405180910390fd5b600360008373ffffffffffffffffffffffffffffffffffffffff1673ffffffffffffffffffffffffffffffffffffffff168152602001908152602001600020549050919050565b6110066117c1565b6110106000611965565b565b61101a6117c1565b60008282905090508061102b6109b3565b61103591906134e0565b600d541015611070576040517f846fb9e200000000000000000000000000000000000000000000000000000000815260040160405180910390fd5b60005b818110156110cc576110bf8484838181106110915761109061357f565b5b90506020020160208101906110a69190612c28565b60016110b06109b3565b6110ba91906134e0565b611a2b565b8080600101915050611073565b50505050565b6110da6117c1565b8073ffffffffffffffffffffffffffffffffffffffff1663a9059cbb600c60009054906101000a900473ffffffffffffffffffffffffffffffffffffffff168373ffffffffffffffffffffffffffffffffffffffff166370a08231306040518263ffffffff1660e01b81526004016111529190612ba1565b602060405180830381865afa15801561116f573d6000803e3d6000fd5b505050506040513d601f19601f820116820180604052508101906111939190613424565b6040518363ffffffff1660e01b81526004016111b0929190613514565b6020604051808303816000875af11580156111cf573d6000803e3d6000fd5b505050506040513d601f19601f820116820180604052508101906111f39190613552565b5050565b6000600a60009054906101000a900473ffffffffffffffffffffffffffffffffffffffff16905090565b600e6020528060005260406000206000915090508060000160009054906101000a900460ff16908060010154908060020160009054906101000a900473ffffffffffffffffffffffffffffffffffffffff16905083565b60606001805461128790613120565b80601f01602080910402602001604051908101604052809291908181526020018280546112b390613120565b80156113005780601f106112d557610100808354040283529160200191611300565b820191906000526020600020905b8154815290600101906020018083116112e357829003601f168201915b5050505050905090565b61131c6113156117a7565b8383611b24565b5050565b61132b8484846109c0565b61133784848484611c93565b50505050565b6060600b61134a83611e4a565b60405160200161135b9291906136b9565b6040516020818303038152906040529050919050565b600d5481565b6000600560008473ffffffffffffffffffffffffffffffffffffffff1673ffffffffffffffffffffffffffffffffffffffff16815260200190815260200160002060008373ffffffffffffffffffffffffffffffffffffffff1673ffffffffffffffffffffffffffffffffffffffff16815260200190815260200160002060009054906101000a900460ff16905092915050565b6114136109b3565b81111561144c576040517fc1ab6dc100000000000000000000000000000000000000000000000000000000815260040160405180910390fd5b34670de0b6b3a7640000111561148e576040517f3c6b4b2800000000000000000000000000000000000000000000000000000000815260040160405180910390fd5b600e600082815260200190815260200160002060010160008154809291906114b5906136e8565b919050555033600e600083815260200190815260200160002060020160006101000a81548173ffffffffffffffffffffffffffffffffffffffff021916908373ffffffffffffffffffffffffffffffffffffffff1602179055506001600e600083815260200190815260200160002060000160006101000a81548160ff0219169083151502179055507f80bb27007f4982b04cb14b3bcc40ff66cc89833ba97b38ea17a09b962b620924813360405161156f929190613730565b60405180910390a150565b6115826117c1565b600073ffffffffffffffffffffffffffffffffffffffff168173ffffffffffffffffffffffffffffffffffffffff16036115f45760006040517f1e4fbdf70000000000000000000000000000000000000000000000000000000081526004016115eb9190612ba1565b60405180910390fd5b6115fd81611965565b50565b60007f80ac58cd000000000000000000000000000000000000000000000000000000007bffffffffffffffffffffffffffffffffffffffffffffffffffffffff1916827bffffffffffffffffffffffffffffffffffffffffffffffffffffffff191614806116cb57507f5b5e139f000000000000000000000000000000000000000000000000000000007bffffffffffffffffffffffffffffffffffffffffffffffffffffffff1916827bffffffffffffffffffffffffffffffffffffffffffffffffffffffff1916145b806116db57506116da82611f18565b5b9050919050565b6000806116ee83611f82565b9050600073ffffffffffffffffffffffffffffffffffffffff168173ffffffffffffffffffffffffffffffffffffffff160361176157826040517f7e2732890000000000000000000000000000000000000000000000000000000081526004016117589190612d4a565b60405180910390fd5b80915050919050565b60006004600083815260200190815260200160002060009054906101000a900473ffffffffffffffffffffffffffffffffffffffff169050919050565b600033905090565b6117bc8383836001611fbf565b505050565b6117c96117a7565b73ffffffffffffffffffffffffffffffffffffffff166117e76111f7565b73ffffffffffffffffffffffffffffffffffffffff16146118465761180a6117a7565b6040517f118cdaa700000000000000000000000000000000000000000000000000000000815260040161183d9190612ba1565b60405180910390fd5b565b600080611856858585612184565b9050600073ffffffffffffffffffffffffffffffffffffffff168173ffffffffffffffffffffffffffffffffffffffff160361189a576118958461239e565b6118d9565b8473ffffffffffffffffffffffffffffffffffffffff168173ffffffffffffffffffffffffffffffffffffffff16146118d8576118d781856123e7565b5b5b600073ffffffffffffffffffffffffffffffffffffffff168573ffffffffffffffffffffffffffffffffffffffff160361191b5761191684612548565b61195a565b8473ffffffffffffffffffffffffffffffffffffffff168173ffffffffffffffffffffffffffffffffffffffff1614611959576119588585612619565b5b5b809150509392505050565b6000600a60009054906101000a900473ffffffffffffffffffffffffffffffffffffffff16905081600a60006101000a81548173ffffffffffffffffffffffffffffffffffffffff021916908373ffffffffffffffffffffffffffffffffffffffff1602179055508173ffffffffffffffffffffffffffffffffffffffff168173ffffffffffffffffffffffffffffffffffffffff167f8be0079c531659141344cd1fd0a4f28419497f9722a3daafe3b4186f6b6457e060405160405180910390a35050565b600073ffffffffffffffffffffffffffffffffffffffff168273ffffffffffffffffffffffffffffffffffffffff1603611a9d5760006040517f64a0ae92000000000000000000000000000000000000000000000000000000008152600401611a949190612ba1565b60405180910390fd5b6000611aab83836000611848565b9050600073ffffffffffffffffffffffffffffffffffffffff168173ffffffffffffffffffffffffffffffffffffffff1614611b1f5760006040517f73c6ac6e000000000000000000000000000000000000000000000000000000008152600401611b169190612ba1565b60405180910390fd5b505050565b600073ffffffffffffffffffffffffffffffffffffffff168273ffffffffffffffffffffffffffffffffffffffff1603611b9557816040517f5b08ba18000000000000000000000000000000000000000000000000000000008152600401611b8c9190612ba1565b60405180910390fd5b80600560008573ffffffffffffffffffffffffffffffffffffffff1673ffffffffffffffffffffffffffffffffffffffff16815260200190815260200160002060008473ffffffffffffffffffffffffffffffffffffffff1673ffffffffffffffffffffffffffffffffffffffff16815260200190815260200160002060006101000a81548160ff0219169083151502179055508173ffffffffffffffffffffffffffffffffffffffff168373ffffffffffffffffffffffffffffffffffffffff167f17307eab39ab6107e8899845ad3d59bd9653f200f220920489ca2b5937696c3183604051611c869190612a30565b60405180910390a3505050565b60008373ffffffffffffffffffffffffffffffffffffffff163b1115611e44578273ffffffffffffffffffffffffffffffffffffffff1663150b7a02611cd76117a7565b8685856040518563ffffffff1660e01b8152600401611cf994939291906137ae565b6020604051808303816000875af1925050508015611d3557506040513d601f19601f82011682018060405250810190611d32919061380f565b60015b611db9573d8060008114611d65576040519150601f19603f3d011682016040523d82523d6000602084013e611d6a565b606091505b506000815103611db157836040517f64a0ae92000000000000000000000000000000000000000000000000000000008152600401611da89190612ba1565b60405180910390fd5b805181602001fd5b63150b7a0260e01b7bffffffffffffffffffffffffffffffffffffffffffffffffffffffff1916817bffffffffffffffffffffffffffffffffffffffffffffffffffffffff191614611e4257836040517f64a0ae92000000000000000000000000000000000000000000000000000000008152600401611e399190612ba1565b60405180910390fd5b505b50505050565b606060006001611e59846126a4565b01905060008167ffffffffffffffff811115611e7857611e77612f03565b5b6040519080825280601f01601f191660200182016040528015611eaa5781602001600182028036833780820191505090505b509050600082602001820190505b600115611f0d578080600190039150507f3031323334353637383961626364656600000000000000000000000000000000600a86061a8153600a8581611f0157611f00613451565b5b04945060008503611eb8575b819350505050919050565b60007f01ffc9a7000000000000000000000000000000000000000000000000000000007bffffffffffffffffffffffffffffffffffffffffffffffffffffffff1916827bffffffffffffffffffffffffffffffffffffffffffffffffffffffff1916149050919050565b60006002600083815260200190815260200160002060009054906101000a900473ffffffffffffffffffffffffffffffffffffffff169050919050565b8080611ff85750600073ffffffffffffffffffffffffffffffffffffffff168273ffffffffffffffffffffffffffffffffffffffff1614155b1561212c576000612008846116e2565b9050600073ffffffffffffffffffffffffffffffffffffffff168373ffffffffffffffffffffffffffffffffffffffff161415801561207357508273ffffffffffffffffffffffffffffffffffffffff168173ffffffffffffffffffffffffffffffffffffffff1614155b801561208657506120848184611377565b155b156120c857826040517fa9fbf51f0000000000000000000000000000000000000000000000000000000081526004016120bf9190612ba1565b60405180910390fd5b811561212a57838573ffffffffffffffffffffffffffffffffffffffff168273ffffffffffffffffffffffffffffffffffffffff167f8c5be1e5ebec7d5bd14f71427d1e84f3dd0314c0f7b2291e5b200ac8c7c3b92560405160405180910390a45b505b836004600085815260200190815260200160002060006101000a81548173ffffffffffffffffffffffffffffffffffffffff021916908373ffffffffffffffffffffffffffffffffffffffff16021790555050505050565b60008061219084611f82565b9050600073ffffffffffffffffffffffffffffffffffffffff168373ffffffffffffffffffffffffffffffffffffffff16146121d2576121d18184866127f7565b5b600073ffffffffffffffffffffffffffffffffffffffff168173ffffffffffffffffffffffffffffffffffffffff161461226357612214600085600080611fbf565b6001600360008373ffffffffffffffffffffffffffffffffffffffff1673ffffffffffffffffffffffffffffffffffffffff168152602001908152602001600020600082825403925050819055505b600073ffffffffffffffffffffffffffffffffffffffff168573ffffffffffffffffffffffffffffffffffffffff16146122e6576001600360008773ffffffffffffffffffffffffffffffffffffffff1673ffffffffffffffffffffffffffffffffffffffff168152602001908152602001600020600082825401925050819055505b846002600086815260200190815260200160002060006101000a81548173ffffffffffffffffffffffffffffffffffffffff021916908373ffffffffffffffffffffffffffffffffffffffff160217905550838573ffffffffffffffffffffffffffffffffffffffff168273ffffffffffffffffffffffffffffffffffffffff167fddf252ad1be2c89b69c2b068fc378daa952ba7f163c4a11628f55a4df523b3ef60405160405180910390a4809150509392505050565b6008805490506009600083815260200190815260200160002081905550600881908060018154018082558091505060019003906000526020600020016000909190919091505550565b60006123f283610f44565b90506000600760008481526020019081526020016000205490508181146124d7576000600660008673ffffffffffffffffffffffffffffffffffffffff1673ffffffffffffffffffffffffffffffffffffffff168152602001908152602001600020600084815260200190815260200160002054905080600660008773ffffffffffffffffffffffffffffffffffffffff1673ffffffffffffffffffffffffffffffffffffffff168152602001908152602001600020600084815260200190815260200160002081905550816007600083815260200190815260200160002081905550505b6007600084815260200190815260200160002060009055600660008573ffffffffffffffffffffffffffffffffffffffff1673ffffffffffffffffffffffffffffffffffffffff16815260200190815260200160002060008381526020019081526020016000206000905550505050565b6000600160088054905061255c919061383c565b905060006009600084815260200190815260200160002054905060006008838154811061258c5761258b61357f565b5b9060005260206000200154905080600883815481106125ae576125ad61357f565b5b9060005260206000200181905550816009600083815260200190815260200160002081905550600960008581526020019081526020016000206000905560088054806125fd576125fc613870565b5b6001900381819060005260206000200160009055905550505050565b6000600161262684610f44565b612630919061383c565b905081600660008573ffffffffffffffffffffffffffffffffffffffff1673ffffffffffffffffffffffffffffffffffffffff168152602001908152602001600020600083815260200190815260200160002081905550806007600084815260200190815260200160002081905550505050565b600080600090507a184f03e93ff9f4daa797ed6e38ed64bf6a1f0100000000000000008310612702577a184f03e93ff9f4daa797ed6e38ed64bf6a1f01000000000000000083816126f8576126f7613451565b5b0492506040810190505b6d04ee2d6d415b85acef8100000000831061273f576d04ee2d6d415b85acef8100000000838161273557612734613451565b5b0492506020810190505b662386f26fc10000831061276e57662386f26fc10000838161276457612763613451565b5b0492506010810190505b6305f5e1008310612797576305f5e100838161278d5761278c613451565b5b0492506008810190505b61271083106127bc5761271083816127b2576127b1613451565b5b0492506004810190505b606483106127df57606483816127d5576127d4613451565b5b0492506002810190505b600a83106127ee576001810190505b80915050919050565b6128028383836128bb565b6128b657600073ffffffffffffffffffffffffffffffffffffffff168373ffffffffffffffffffffffffffffffffffffffff160361287757806040517f7e27328900000000000000000000000000000000000000000000000000000000815260040161286e9190612d4a565b60405180910390fd5b81816040517f177e802f0000000000000000000000000000000000000000000000000000000081526004016128ad929190613514565b60405180910390fd5b505050565b60008073ffffffffffffffffffffffffffffffffffffffff168373ffffffffffffffffffffffffffffffffffffffff161415801561297357508273ffffffffffffffffffffffffffffffffffffffff168473ffffffffffffffffffffffffffffffffffffffff16148061293457506129338484611377565b5b8061297257508273ffffffffffffffffffffffffffffffffffffffff1661295a8361176a565b73ffffffffffffffffffffffffffffffffffffffff16145b5b90509392505050565b6000604051905090565b600080fd5b600080fd5b60007fffffffff0000000000000000000000000000000000000000000000000000000082169050919050565b6129c581612990565b81146129d057600080fd5b50565b6000813590506129e2816129bc565b92915050565b6000602082840312156129fe576129fd612986565b5b6000612a0c848285016129d3565b91505092915050565b60008115159050919050565b612a2a81612a15565b82525050565b6000602082019050612a456000830184612a21565b92915050565b600081519050919050565b600082825260208201905092915050565b60005b83811015612a85578082015181840152602081019050612a6a565b60008484015250505050565b6000601f19601f8301169050919050565b6000612aad82612a4b565b612ab78185612a56565b9350612ac7818560208601612a67565b612ad081612a91565b840191505092915050565b60006020820190508181036000830152612af58184612aa2565b905092915050565b6000819050919050565b612b1081612afd565b8114612b1b57600080fd5b50565b600081359050612b2d81612b07565b92915050565b600060208284031215612b4957612b48612986565b5b6000612b5784828501612b1e565b91505092915050565b600073ffffffffffffffffffffffffffffffffffffffff82169050919050565b6000612b8b82612b60565b9050919050565b612b9b81612b80565b82525050565b6000602082019050612bb66000830184612b92565b92915050565b612bc581612b80565b8114612bd057600080fd5b50565b600081359050612be281612bbc565b92915050565b60008060408385031215612bff57612bfe612986565b5b6000612c0d85828601612bd3565b9250506020612c1e85828601612b1e565b9150509250929050565b600060208284031215612c3e57612c3d612986565b5b6000612c4c84828501612bd3565b91505092915050565b600080fd5b600080fd5b600080fd5b60008083601f840112612c7a57612c79612c55565b5b8235905067ffffffffffffffff811115612c9757612c96612c5a565b5b602083019150836001820283011115612cb357612cb2612c5f565b5b9250929050565b60008060008060408587031215612cd457612cd3612986565b5b600085013567ffffffffffffffff811115612cf257612cf161298b565b5b612cfe87828801612c64565b9450945050602085013567ffffffffffffffff811115612d2157612d2061298b565b5b612d2d87828801612c64565b925092505092959194509250565b612d4481612afd565b82525050565b6000602082019050612d5f6000830184612d3b565b92915050565b600080600060608486031215612d7e57612d7d612986565b5b6000612d8c86828701612bd3565b9350506020612d9d86828701612bd3565b9250506040612dae86828701612b1e565b9150509250925092565b60008083601f840112612dce57612dcd612c55565b5b8235905067ffffffffffffffff811115612deb57612dea612c5a565b5b602083019150836020820283011115612e0757612e06612c5f565b5b9250929050565b60008060208385031215612e2557612e24612986565b5b600083013567ffffffffffffffff811115612e4357612e4261298b565b5b612e4f85828601612db8565b92509250509250929050565b6000606082019050612e706000830186612a21565b612e7d6020830185612d3b565b612e8a6040830184612b92565b949350505050565b612e9b81612a15565b8114612ea657600080fd5b50565b600081359050612eb881612e92565b92915050565b60008060408385031215612ed557612ed4612986565b5b6000612ee385828601612bd3565b9250506020612ef485828601612ea9565b9150509250929050565b600080fd5b7f4e487b7100000000000000000000000000000000000000000000000000000000600052604160045260246000fd5b612f3b82612a91565b810181811067ffffffffffffffff82111715612f5a57612f59612f03565b5b80604052505050565b6000612f6d61297c565b9050612f798282612f32565b919050565b600067ffffffffffffffff821115612f9957612f98612f03565b5b612fa282612a91565b9050602081019050919050565b82818337600083830152505050565b6000612fd1612fcc84612f7e565b612f63565b905082815260208101848484011115612fed57612fec612efe565b5b612ff8848285612faf565b509392505050565b600082601f83011261301557613014612c55565b5b8135613025848260208601612fbe565b91505092915050565b6000806000806080858703121561304857613047612986565b5b600061305687828801612bd3565b945050602061306787828801612bd3565b935050604061307887828801612b1e565b925050606085013567ffffffffffffffff8111156130995761309861298b565b5b6130a587828801613000565b91505092959194509250565b600080604083850312156130c8576130c7612986565b5b60006130d685828601612bd3565b92505060206130e785828601612bd3565b9150509250929050565b7f4e487b7100000000000000000000000000000000000000000000000000000000600052602260045260246000fd5b6000600282049050600182168061313857607f821691505b60208210810361314b5761314a6130f1565b5b50919050565b600082905092915050565b60008190508160005260206000209050919050565b60006020601f8301049050919050565b600082821b905092915050565b6000600883026131be7fffffffffffffffffffffffffffffffffffffffffffffffffffffffffffffffff82613181565b6131c88683613181565b95508019841693508086168417925050509392505050565b6000819050919050565b60006132056132006131fb84612afd565b6131e0565b612afd565b9050919050565b6000819050919050565b61321f836131ea565b61323361322b8261320c565b84845461318e565b825550505050565b600090565b61324861323b565b613253818484613216565b505050565b5b818110156132775761326c600082613240565b600181019050613259565b5050565b601f8211156132bc5761328d8161315c565b61329684613171565b810160208510156132a5578190505b6132b96132b185613171565b830182613258565b50505b505050565b600082821c905092915050565b60006132df600019846008026132c1565b1980831691505092915050565b60006132f883836132ce565b9150826002028217905092915050565b6133128383613151565b67ffffffffffffffff81111561332b5761332a612f03565b5b6133358254613120565b61334082828561327b565b6000601f83116001811461336f576000841561335d578287013590505b61336785826132ec565b8655506133cf565b601f19841661337d8661315c565b60005b828110156133a557848901358255600182019150602085019450602081019050613380565b868310156133c257848901356133be601f8916826132ce565b8355505b6001600288020188555050505b50505050505050565b60006060820190506133ed6000830186612b92565b6133fa6020830185612d3b565b6134076040830184612b92565b949350505050565b60008151905061341e81612b07565b92915050565b60006020828403121561343a57613439612986565b5b60006134488482850161340f565b91505092915050565b7f4e487b7100000000000000000000000000000000000000000000000000000000600052601260045260246000fd5b7f4e487b7100000000000000000000000000000000000000000000000000000000600052601160045260246000fd5b60006134ba82612afd565b91506134c583612afd565b9250826134d5576134d4613451565b5b828204905092915050565b60006134eb82612afd565b91506134f683612afd565b925082820190508082111561350e5761350d613480565b5b92915050565b60006040820190506135296000830185612b92565b6135366020830184612d3b565b9392505050565b60008151905061354c81612e92565b92915050565b60006020828403121561356857613567612986565b5b60006135768482850161353d565b91505092915050565b7f4e487b7100000000000000000000000000000000000000000000000000000000600052603260045260246000fd5b600081905092915050565b600081546135c681613120565b6135d081866135ae565b945060018216600081146135eb576001811461360057613633565b60ff1983168652811515820286019350613633565b6136098561315c565b60005b8381101561362b5781548189015260018201915060208101905061360c565b838801955050505b50505092915050565b600061364782612a4b565b61365181856135ae565b9350613661818560208601612a67565b80840191505092915050565b7f2e6a736f6e000000000000000000000000000000000000000000000000000000600082015250565b60006136a36005836135ae565b91506136ae8261366d565b600582019050919050565b60006136c582856135b9565b91506136d1828461363c565b91506136dc82613696565b91508190509392505050565b60006136f382612afd565b91507fffffffffffffffffffffffffffffffffffffffffffffffffffffffffffffffff820361372557613724613480565b5b600182019050919050565b60006040820190506137456000830185612d3b565b6137526020830184612b92565b9392505050565b600081519050919050565b600082825260208201905092915050565b600061378082613759565b61378a8185613764565b935061379a818560208601612a67565b6137a381612a91565b840191505092915050565b60006080820190506137c36000830187612b92565b6137d06020830186612b92565b6137dd6040830185612d3b565b81810360608301526137ef8184613775565b905095945050505050565b600081519050613809816129bc565b92915050565b60006020828403121561382557613824612986565b5b6000613833848285016137fa565b91505092915050565b600061384782612afd565b915061385283612afd565b925082820390508181111561386a57613869613480565b5b92915050565b7f4e487b7100000000000000000000000000000000000000000000000000000000600052603160045260246000fdfea2646970667358221220eda7b99ef412197fda3fb122c66107c806eb213931de542795ebf1674ce4b94e64736f6c63430008180033",
  "linkReferences": {},
  "deployedLinkReferences": {}
}