{
  "_format": "hh-sol-artifact-1",
  "contractName": "TICKET",
  "sourceName": "contracts/Sonic/TICKET.sol",
  "abi": [
    {
      "inputs": [
        {
          "internalType": "uint256",
          "name": "initial_mint",
          "type": "uint256"
        }
      ],
      "stateMutability": "nonpayable",
      "type": "constructor"
    },
    {
      "inputs": [],
      "name": "ECDSAInvalidSignature",
      "type": "error"
    },
    {
      "inputs": [
        {
          "internalType": "uint256",
          "name": "length",
          "type": "uint256"
        }
      ],
      "name": "ECDSAInvalidSignatureLength",
      "type": "error"
    },
    {
      "inputs": [
        {
          "internalType": "bytes32",
          "name": "s",
          "type": "bytes32"
        }
      ],
      "name": "ECDSAInvalidSignatureS",
      "type": "error"
    },
    {
      "inputs": [
        {
          "internalType": "address",
          "name": "spender",
          "type": "address"
        },
        {
          "internalType": "uint256",
          "name": "allowance",
          "type": "uint256"
        },
        {
          "internalType": "uint256",
          "name": "needed",
          "type": "uint256"
        }
      ],
      "name": "ERC20InsufficientAllowance",
      "type": "error"
    },
    {
      "inputs": [
        {
          "internalType": "address",
          "name": "sender",
          "type": "address"
        },
        {
          "internalType": "uint256",
          "name": "balance",
          "type": "uint256"
        },
        {
          "internalType": "uint256",
          "name": "needed",
          "type": "uint256"
        }
      ],
      "name": "ERC20InsufficientBalance",
      "type": "error"
    },
    {
      "inputs": [
        {
          "internalType": "address",
          "name": "approver",
          "type": "address"
        }
      ],
      "name": "ERC20InvalidApprover",
      "type": "error"
    },
    {
      "inputs": [
        {
          "internalType": "address",
          "name": "receiver",
          "type": "address"
        }
      ],
      "name": "ERC20InvalidReceiver",
      "type": "error"
    },
    {
      "inputs": [
        {
          "internalType": "address",
          "name": "sender",
          "type": "address"
        }
      ],
      "name": "ERC20InvalidSender",
      "type": "error"
    },
    {
      "inputs": [
        {
          "internalType": "address",
          "name": "spender",
          "type": "address"
        }
      ],
      "name": "ERC20InvalidSpender",
      "type": "error"
    },
    {
      "inputs": [
        {
          "internalType": "uint256",
          "name": "deadline",
          "type": "uint256"
        }
      ],
      "name": "ERC2612ExpiredSignature",
      "type": "error"
    },
    {
      "inputs": [
        {
          "internalType": "address",
          "name": "signer",
          "type": "address"
        },
        {
          "internalType": "address",
          "name": "owner",
          "type": "address"
        }
      ],
      "name": "ERC2612InvalidSigner",
      "type": "error"
    },
    {
      "inputs": [
        {
          "internalType": "address",
          "name": "account",
          "type": "address"
        },
        {
          "internalType": "uint256",
          "name": "currentNonce",
          "type": "uint256"
        }
      ],
      "name": "InvalidAccountNonce",
      "type": "error"
    },
    {
      "inputs": [],
      "name": "InvalidShortString",
      "type": "error"
    },
    {
      "inputs": [],
      "name": "NotEnoughTICKETs",
      "type": "error"
    },
    {
      "inputs": [
        {
          "internalType": "address",
          "name": "owner",
          "type": "address"
        }
      ],
      "name": "OwnableInvalidOwner",
      "type": "error"
    },
    {
      "inputs": [
        {
          "internalType": "address",
          "name": "account",
          "type": "address"
        }
      ],
      "name": "OwnableUnauthorizedAccount",
      "type": "error"
    },
    {
      "inputs": [
        {
          "internalType": "string",
          "name": "str",
          "type": "string"
        }
      ],
      "name": "StringTooLong",
      "type": "error"
    },
    {
      "anonymous": false,
      "inputs": [
        {
          "indexed": true,
          "internalType": "address",
          "name": "owner",
          "type": "address"
        },
        {
          "indexed": true,
          "internalType": "address",
          "name": "spender",
          "type": "address"
        },
        {
          "indexed": false,
          "internalType": "uint256",
          "name": "value",
          "type": "uint256"
        }
      ],
      "name": "Approval",
      "type": "event"
    },
    {
      "anonymous": false,
      "inputs": [],
      "name": "EIP712DomainChanged",
      "type": "event"
    },
    {
      "anonymous": false,
      "inputs": [
        {
          "indexed": true,
          "internalType": "address",
          "name": "previousOwner",
          "type": "address"
        },
        {
          "indexed": true,
          "internalType": "address",
          "name": "newOwner",
          "type": "address"
        }
      ],
      "name": "OwnershipTransferred",
      "type": "event"
    },
    {
      "anonymous": false,
      "inputs": [
        {
          "indexed": true,
          "internalType": "address",
          "name": "from",
          "type": "address"
        },
        {
          "indexed": true,
          "internalType": "address",
          "name": "to",
          "type": "address"
        },
        {
          "indexed": false,
          "internalType": "uint256",
          "name": "value",
          "type": "uint256"
        }
      ],
      "name": "Transfer",
      "type": "event"
    },
    {
      "inputs": [],
      "name": "DOMAIN_SEPARATOR",
      "outputs": [
        {
          "internalType": "bytes32",
          "name": "",
          "type": "bytes32"
        }
      ],
      "stateMutability": "view",
      "type": "function"
    },
    {
      "inputs": [],
      "name": "SYMBOL",
      "outputs": [
        {
          "internalType": "string",
          "name": "",
          "type": "string"
        }
      ],
      "stateMutability": "view",
      "type": "function"
    },
    {
      "inputs": [],
      "name": "TOKEN_NAME",
      "outputs": [
        {
          "internalType": "string",
          "name": "",
          "type": "string"
        }
      ],
      "stateMutability": "view",
      "type": "function"
    },
    {
      "inputs": [
        {
          "internalType": "address[]",
          "name": "_addresses",
          "type": "address[]"
        },
        {
          "internalType": "uint256",
          "name": "amount",
          "type": "uint256"
        }
      ],
      "name": "airdrop",
      "outputs": [],
      "stateMutability": "nonpayable",
      "type": "function"
    },
    {
      "inputs": [
        {
          "internalType": "address",
          "name": "owner",
          "type": "address"
        },
        {
          "internalType": "address",
          "name": "spender",
          "type": "address"
        }
      ],
      "name": "allowance",
      "outputs": [
        {
          "internalType": "uint256",
          "name": "",
          "type": "uint256"
        }
      ],
      "stateMutability": "view",
      "type": "function"
    },
    {
      "inputs": [
        {
          "internalType": "address",
          "name": "spender",
          "type": "address"
        },
        {
          "internalType": "uint256",
          "name": "value",
          "type": "uint256"
        }
      ],
      "name": "approve",
      "outputs": [
        {
          "internalType": "bool",
          "name": "",
          "type": "bool"
        }
      ],
      "stateMutability": "nonpayable",
      "type": "function"
    },
    {
      "inputs": [
        {
          "internalType": "address",
          "name": "account",
          "type": "address"
        }
      ],
      "name": "balanceOf",
      "outputs": [
        {
          "internalType": "uint256",
          "name": "",
          "type": "uint256"
        }
      ],
      "stateMutability": "view",
      "type": "function"
    },
    {
      "inputs": [
        {
          "internalType": "uint256",
          "name": "value",
          "type": "uint256"
        }
      ],
      "name": "burn",
      "outputs": [],
      "stateMutability": "nonpayable",
      "type": "function"
    },
    {
      "inputs": [
        {
          "internalType": "address",
          "name": "account",
          "type": "address"
        },
        {
          "internalType": "uint256",
          "name": "value",
          "type": "uint256"
        }
      ],
      "name": "burnFrom",
      "outputs": [],
      "stateMutability": "nonpayable",
      "type": "function"
    },
    {
      "inputs": [],
      "name": "decimals",
      "outputs": [
        {
          "internalType": "uint8",
          "name": "",
          "type": "uint8"
        }
      ],
      "stateMutability": "view",
      "type": "function"
    },
    {
      "inputs": [],
      "name": "eip712Domain",
      "outputs": [
        {
          "internalType": "bytes1",
          "name": "fields",
          "type": "bytes1"
        },
        {
          "internalType": "string",
          "name": "name",
          "type": "string"
        },
        {
          "internalType": "string",
          "name": "version",
          "type": "string"
        },
        {
          "internalType": "uint256",
          "name": "chainId",
          "type": "uint256"
        },
        {
          "internalType": "address",
          "name": "verifyingContract",
          "type": "address"
        },
        {
          "internalType": "bytes32",
          "name": "salt",
          "type": "bytes32"
        },
        {
          "internalType": "uint256[]",
          "name": "extensions",
          "type": "uint256[]"
        }
      ],
      "stateMutability": "view",
      "type": "function"
    },
    {
      "inputs": [],
      "name": "name",
      "outputs": [
        {
          "internalType": "string",
          "name": "",
          "type": "string"
        }
      ],
      "stateMutability": "view",
      "type": "function"
    },
    {
      "inputs": [
        {
          "internalType": "address",
          "name": "owner",
          "type": "address"
        }
      ],
      "name": "nonces",
      "outputs": [
        {
          "internalType": "uint256",
          "name": "",
          "type": "uint256"
        }
      ],
      "stateMutability": "view",
      "type": "function"
    },
    {
      "inputs": [],
      "name": "owner",
      "outputs": [
        {
          "internalType": "address",
          "name": "",
          "type": "address"
        }
      ],
      "stateMutability": "view",
      "type": "function"
    },
    {
      "inputs": [
        {
          "internalType": "address",
          "name": "owner",
          "type": "address"
        },
        {
          "internalType": "address",
          "name": "spender",
          "type": "address"
        },
        {
          "internalType": "uint256",
          "name": "value",
          "type": "uint256"
        },
        {
          "internalType": "uint256",
          "name": "deadline",
          "type": "uint256"
        },
        {
          "internalType": "uint8",
          "name": "v",
          "type": "uint8"
        },
        {
          "internalType": "bytes32",
          "name": "r",
          "type": "bytes32"
        },
        {
          "internalType": "bytes32",
          "name": "s",
          "type": "bytes32"
        }
      ],
      "name": "permit",
      "outputs": [],
      "stateMutability": "nonpayable",
      "type": "function"
    },
    {
      "inputs": [],
      "name": "registerMe",
      "outputs": [],
      "stateMutability": "nonpayable",
      "type": "function"
    },
    {
      "inputs": [],
      "name": "renounceOwnership",
      "outputs": [],
      "stateMutability": "nonpayable",
      "type": "function"
    },
    {
      "inputs": [],
      "name": "symbol",
      "outputs": [
        {
          "internalType": "string",
          "name": "",
          "type": "string"
        }
      ],
      "stateMutability": "view",
      "type": "function"
    },
    {
      "inputs": [],
      "name": "totalSupply",
      "outputs": [
        {
          "internalType": "uint256",
          "name": "",
          "type": "uint256"
        }
      ],
      "stateMutability": "view",
      "type": "function"
    },
    {
      "inputs": [
        {
          "internalType": "address",
          "name": "to",
          "type": "address"
        },
        {
          "internalType": "uint256",
          "name": "value",
          "type": "uint256"
        }
      ],
      "name": "transfer",
      "outputs": [
        {
          "internalType": "bool",
          "name": "",
          "type": "bool"
        }
      ],
      "stateMutability": "nonpayable",
      "type": "function"
    },
    {
      "inputs": [
        {
          "internalType": "address",
          "name": "from",
          "type": "address"
        },
        {
          "internalType": "address",
          "name": "to",
          "type": "address"
        },
        {
          "internalType": "uint256",
          "name": "value",
          "type": "uint256"
        }
      ],
      "name": "transferFrom",
      "outputs": [
        {
          "internalType": "bool",
          "name": "",
          "type": "bool"
        }
      ],
      "stateMutability": "nonpayable",
      "type": "function"
    },
    {
      "inputs": [
        {
          "internalType": "address",
          "name": "newOwner",
          "type": "address"
        }
      ],
      "name": "transferOwnership",
      "outputs": [],
      "stateMutability": "nonpayable",
      "type": "function"
    }
  ],
  "bytecode": "0x6101606040523480156200001257600080fd5b506040516200339238038062003392833981810160405281019062000038919062000766565b620000486200026f60201b60201c565b6040518060600160405280602181526020016200337160219139806040518060400160405280600181526020017f310000000000000000000000000000000000000000000000000000000000000081525060405180606001604052806021815260200162003371602191396040518060400160405280600681526020017f5449434b455400000000000000000000000000000000000000000000000000008152508160039081620000fa919062000a08565b5080600490816200010c919062000a08565b505050620001256005836200027760201b90919060201c565b6101208181525050620001436006826200027760201b90919060201c565b6101408181525050818051906020012060e08181525050808051906020012061010081815250504660a0818152505062000182620002cf60201b60201c565b608081815250503073ffffffffffffffffffffffffffffffffffffffff1660c08173ffffffffffffffffffffffffffffffffffffffff1681525050505050600073ffffffffffffffffffffffffffffffffffffffff168173ffffffffffffffffffffffffffffffffffffffff1603620002355760006040517f1e4fbdf70000000000000000000000000000000000000000000000000000000081526004016200022c919062000b34565b60405180910390fd5b62000246816200032c60201b60201c565b50620002686200025b6200026f60201b60201c565b82620003f260201b60201c565b5062000df3565b600033905090565b60006020835110156200029d5762000295836200047f60201b60201c565b9050620002c9565b82620002af83620004ec60201b60201c565b6000019081620002c0919062000a08565b5060ff60001b90505b92915050565b60007f8b73c3c69bb8fe3d512ecc4cf759cc79239f7b179b0ffacaa9a75d522b39400f60e0516101005146306040516020016200031195949392919062000b7d565b60405160208183030381529060405280519060200120905090565b6000600860009054906101000a900473ffffffffffffffffffffffffffffffffffffffff16905081600860006101000a81548173ffffffffffffffffffffffffffffffffffffffff021916908373ffffffffffffffffffffffffffffffffffffffff1602179055508173ffffffffffffffffffffffffffffffffffffffff168173ffffffffffffffffffffffffffffffffffffffff167f8be0079c531659141344cd1fd0a4f28419497f9722a3daafe3b4186f6b6457e060405160405180910390a35050565b600073ffffffffffffffffffffffffffffffffffffffff168273ffffffffffffffffffffffffffffffffffffffff1603620004675760006040517fec442f050000000000000000000000000000000000000000000000000000000081526004016200045e919062000b34565b60405180910390fd5b6200047b60008383620004f660201b60201c565b5050565b600080829050601f81511115620004cf57826040517f305a27a9000000000000000000000000000000000000000000000000000000008152600401620004c6919062000c69565b60405180910390fd5b805181620004dd9062000cbf565b60001c1760001b915050919050565b6000819050919050565b600073ffffffffffffffffffffffffffffffffffffffff168373ffffffffffffffffffffffffffffffffffffffff16036200054c5780600260008282546200053f919062000d5e565b9250508190555062000622565b60008060008573ffffffffffffffffffffffffffffffffffffffff1673ffffffffffffffffffffffffffffffffffffffff16815260200190815260200160002054905081811015620005db578381836040517fe450d38c000000000000000000000000000000000000000000000000000000008152600401620005d29392919062000d99565b60405180910390fd5b8181036000808673ffffffffffffffffffffffffffffffffffffffff1673ffffffffffffffffffffffffffffffffffffffff16815260200190815260200160002081905550505b600073ffffffffffffffffffffffffffffffffffffffff168273ffffffffffffffffffffffffffffffffffffffff16036200066d5780600260008282540392505081905550620006ba565b806000808473ffffffffffffffffffffffffffffffffffffffff1673ffffffffffffffffffffffffffffffffffffffff168152602001908152602001600020600082825401925050819055505b8173ffffffffffffffffffffffffffffffffffffffff168373ffffffffffffffffffffffffffffffffffffffff167fddf252ad1be2c89b69c2b068fc378daa952ba7f163c4a11628f55a4df523b3ef8360405162000719919062000dd6565b60405180910390a3505050565b600080fd5b6000819050919050565b62000740816200072b565b81146200074c57600080fd5b50565b600081519050620007608162000735565b92915050565b6000602082840312156200077f576200077e62000726565b5b60006200078f848285016200074f565b91505092915050565b600081519050919050565b7f4e487b7100000000000000000000000000000000000000000000000000000000600052604160045260246000fd5b7f4e487b7100000000000000000000000000000000000000000000000000000000600052602260045260246000fd5b600060028204905060018216806200081a57607f821691505b60208210810362000830576200082f620007d2565b5b50919050565b60008190508160005260206000209050919050565b60006020601f8301049050919050565b600082821b905092915050565b6000600883026200089a7fffffffffffffffffffffffffffffffffffffffffffffffffffffffffffffffff826200085b565b620008a686836200085b565b95508019841693508086168417925050509392505050565b6000819050919050565b6000620008e9620008e3620008dd846200072b565b620008be565b6200072b565b9050919050565b6000819050919050565b6200090583620008c8565b6200091d6200091482620008f0565b84845462000868565b825550505050565b600090565b6200093462000925565b62000941818484620008fa565b505050565b5b8181101562000969576200095d6000826200092a565b60018101905062000947565b5050565b601f821115620009b857620009828162000836565b6200098d846200084b565b810160208510156200099d578190505b620009b5620009ac856200084b565b83018262000946565b50505b505050565b600082821c905092915050565b6000620009dd60001984600802620009bd565b1980831691505092915050565b6000620009f88383620009ca565b9150826002028217905092915050565b62000a138262000798565b67ffffffffffffffff81111562000a2f5762000a2e620007a3565b5b62000a3b825462000801565b62000a488282856200096d565b600060209050601f83116001811462000a80576000841562000a6b578287015190505b62000a778582620009ea565b86555062000ae7565b601f19841662000a908662000836565b60005b8281101562000aba5784890151825560018201915060208501945060208101905062000a93565b8683101562000ada578489015162000ad6601f891682620009ca565b8355505b6001600288020188555050505b505050505050565b600073ffffffffffffffffffffffffffffffffffffffff82169050919050565b600062000b1c8262000aef565b9050919050565b62000b2e8162000b0f565b82525050565b600060208201905062000b4b600083018462000b23565b92915050565b6000819050919050565b62000b668162000b51565b82525050565b62000b77816200072b565b82525050565b600060a08201905062000b94600083018862000b5b565b62000ba3602083018762000b5b565b62000bb2604083018662000b5b565b62000bc1606083018562000b6c565b62000bd0608083018462000b23565b9695505050505050565b600082825260208201905092915050565b60005b8381101562000c0b57808201518184015260208101905062000bee565b60008484015250505050565b6000601f19601f8301169050919050565b600062000c358262000798565b62000c41818562000bda565b935062000c5381856020860162000beb565b62000c5e8162000c17565b840191505092915050565b6000602082019050818103600083015262000c85818462000c28565b905092915050565b600081519050919050565b6000819050602082019050919050565b600062000cb6825162000b51565b80915050919050565b600062000ccc8262000c8d565b8262000cd88462000c98565b905062000ce58162000ca8565b9250602082101562000d285762000d237fffffffffffffffffffffffffffffffffffffffffffffffffffffffffffffffff836020036008026200085b565b831692505b5050919050565b7f4e487b7100000000000000000000000000000000000000000000000000000000600052601160045260246000fd5b600062000d6b826200072b565b915062000d78836200072b565b925082820190508082111562000d935762000d9262000d2f565b5b92915050565b600060608201905062000db0600083018662000b23565b62000dbf602083018562000b6c565b62000dce604083018462000b6c565b949350505050565b600060208201905062000ded600083018462000b6c565b92915050565b60805160a05160c05160e05161010051610120516101405161252362000e4e60003960006110570152600061101c015260006115ee015260006115cd01526000610d4801526000610d9e01526000610dc701526125236000f3fe608060405234801561001057600080fd5b50600436106101425760003560e01c80637ecebe00116100b8578063a9059cbb1161007c578063a9059cbb14610349578063c204642c14610379578063d505accf14610395578063dd62ed3e146103b1578063f2fde38b146103e1578063f76f8d78146103fd57610142565b80637ecebe00146102af57806384b0196e146102df5780638da5cb5b1461030357806395d89b41146103215780639a198d611461033f57610142565b8063313ce5671161010a578063313ce567146102015780633644e5151461021f57806342966c681461023d57806370a0823114610259578063715018a61461028957806379cc67901461029357610142565b806306fdde0314610147578063095ea7b31461016557806318160ddd1461019557806318821400146101b357806323b872dd146101d1575b600080fd5b61014f61041b565b60405161015c9190611adb565b60405180910390f35b61017f600480360381019061017a9190611b9b565b6104ad565b60405161018c9190611bf6565b60405180910390f35b61019d6104d0565b6040516101aa9190611c20565b60405180910390f35b6101bb6104da565b6040516101c89190611adb565b60405180910390f35b6101eb60048036038101906101e69190611c3b565b6104f6565b6040516101f89190611bf6565b60405180910390f35b610209610525565b6040516102169190611caa565b60405180910390f35b61022761052e565b6040516102349190611cde565b60405180910390f35b61025760048036038101906102529190611cf9565b61053d565b005b610273600480360381019061026e9190611d26565b610551565b6040516102809190611c20565b60405180910390f35b610291610599565b005b6102ad60048036038101906102a89190611b9b565b6105ad565b005b6102c960048036038101906102c49190611d26565b6105cd565b6040516102d69190611c20565b60405180910390f35b6102e76105df565b6040516102fa9796959493929190611e5b565b60405180910390f35b61030b610689565b6040516103189190611edf565b60405180910390f35b6103296106b3565b6040516103369190611adb565b60405180910390f35b610347610745565b005b610363600480360381019061035e9190611b9b565b610897565b6040516103709190611bf6565b60405180910390f35b610393600480360381019061038e9190611f5f565b6108ba565b005b6103af60048036038101906103aa9190612017565b610914565b005b6103cb60048036038101906103c691906120b9565b610a5c565b6040516103d89190611c20565b60405180910390f35b6103fb60048036038101906103f69190611d26565b610ae3565b005b610405610b69565b6040516104129190611adb565b60405180910390f35b60606003805461042a90612128565b80601f016020809104026020016040519081016040528092919081815260200182805461045690612128565b80156104a35780601f10610478576101008083540402835291602001916104a3565b820191906000526020600020905b81548152906001019060200180831161048657829003601f168201915b5050505050905090565b6000806104b8610ba2565b90506104c5818585610baa565b600191505092915050565b6000600254905090565b6040518060600160405280602181526020016124cd6021913981565b600080610501610ba2565b905061050e858285610bbc565b610519858585610c50565b60019150509392505050565b60006012905090565b6000610538610d44565b905090565b61054e610548610ba2565b82610dfb565b50565b60008060008373ffffffffffffffffffffffffffffffffffffffff1673ffffffffffffffffffffffffffffffffffffffff168152602001908152602001600020549050919050565b6105a1610e7d565b6105ab6000610f04565b565b6105bf826105b9610ba2565b83610bbc565b6105c98282610dfb565b5050565b60006105d882610fca565b9050919050565b6000606080600080600060606105f3611013565b6105fb61104e565b46306000801b600067ffffffffffffffff81111561061c5761061b612159565b5b60405190808252806020026020018201604052801561064a5781602001602082028036833780820191505090505b507f0f00000000000000000000000000000000000000000000000000000000000000959493929190965096509650965096509650965090919293949596565b6000600860009054906101000a900473ffffffffffffffffffffffffffffffffffffffff16905090565b6060600480546106c290612128565b80601f01602080910402602001604051908101604052809291908181526020018280546106ee90612128565b801561073b5780601f106107105761010080835404028352916020019161073b565b820191906000526020600020905b81548152906001019060200180831161071e57829003601f168201915b5050505050905090565b600073dc2b0d2dd2b7759d97d50db4eabdc3697311083073ffffffffffffffffffffffffffffffffffffffff16606f60405160240161078491906121cd565b6040516020818303038152906040527f1e60fd14000000000000000000000000000000000000000000000000000000007bffffffffffffffffffffffffffffffffffffffffffffffffffffffff19166020820180517bffffffffffffffffffffffffffffffffffffffffffffffffffffffff838183161783525050505060405161080e919061222f565b6000604051808303816000865af19150503d806000811461084b576040519150601f19603f3d011682016040523d82523d6000602084013e610850565b606091505b5050905080610894576040517f08c379a000000000000000000000000000000000000000000000000000000000815260040161088b90612292565b60405180910390fd5b50565b6000806108a2610ba2565b90506108af818585610c50565b600191505092915050565b6108c2610e7d565b60005b8383905081101561090e576109018484838181106108e6576108e56122b2565b5b90506020020160208101906108fb9190611d26565b83611089565b80806001019150506108c5565b50505050565b8342111561095957836040517f627913020000000000000000000000000000000000000000000000000000000081526004016109509190611c20565b60405180910390fd5b60007f6e71edae12b1b97f4d1f60370fef10105fa2faae0126114a169c64845d6126c98888886109888c61110b565b8960405160200161099e969594939291906122e1565b60405160208183030381529060405280519060200120905060006109c182611162565b905060006109d18287878761117c565b90508973ffffffffffffffffffffffffffffffffffffffff168173ffffffffffffffffffffffffffffffffffffffff1614610a4557808a6040517f4b800e46000000000000000000000000000000000000000000000000000000008152600401610a3c929190612342565b60405180910390fd5b610a508a8a8a610baa565b50505050505050505050565b6000600160008473ffffffffffffffffffffffffffffffffffffffff1673ffffffffffffffffffffffffffffffffffffffff16815260200190815260200160002060008373ffffffffffffffffffffffffffffffffffffffff1673ffffffffffffffffffffffffffffffffffffffff16815260200190815260200160002054905092915050565b610aeb610e7d565b600073ffffffffffffffffffffffffffffffffffffffff168173ffffffffffffffffffffffffffffffffffffffff1603610b5d5760006040517f1e4fbdf7000000000000000000000000000000000000000000000000000000008152600401610b549190611edf565b60405180910390fd5b610b6681610f04565b50565b6040518060400160405280600681526020017f5449434b4554000000000000000000000000000000000000000000000000000081525081565b600033905090565b610bb783838360016111ac565b505050565b6000610bc88484610a5c565b90507fffffffffffffffffffffffffffffffffffffffffffffffffffffffffffffffff8114610c4a5781811015610c3a578281836040517ffb8f41b2000000000000000000000000000000000000000000000000000000008152600401610c319392919061236b565b60405180910390fd5b610c49848484840360006111ac565b5b50505050565b600073ffffffffffffffffffffffffffffffffffffffff168373ffffffffffffffffffffffffffffffffffffffff1603610cc25760006040517f96c6fd1e000000000000000000000000000000000000000000000000000000008152600401610cb99190611edf565b60405180910390fd5b600073ffffffffffffffffffffffffffffffffffffffff168273ffffffffffffffffffffffffffffffffffffffff1603610d345760006040517fec442f05000000000000000000000000000000000000000000000000000000008152600401610d2b9190611edf565b60405180910390fd5b610d3f838383611383565b505050565b60007f000000000000000000000000000000000000000000000000000000000000000073ffffffffffffffffffffffffffffffffffffffff163073ffffffffffffffffffffffffffffffffffffffff16148015610dc057507f000000000000000000000000000000000000000000000000000000000000000046145b15610ded577f00000000000000000000000000000000000000000000000000000000000000009050610df8565b610df56115a8565b90505b90565b600073ffffffffffffffffffffffffffffffffffffffff168273ffffffffffffffffffffffffffffffffffffffff1603610e6d5760006040517f96c6fd1e000000000000000000000000000000000000000000000000000000008152600401610e649190611edf565b60405180910390fd5b610e7982600083611383565b5050565b610e85610ba2565b73ffffffffffffffffffffffffffffffffffffffff16610ea3610689565b73ffffffffffffffffffffffffffffffffffffffff1614610f0257610ec6610ba2565b6040517f118cdaa7000000000000000000000000000000000000000000000000000000008152600401610ef99190611edf565b60405180910390fd5b565b6000600860009054906101000a900473ffffffffffffffffffffffffffffffffffffffff16905081600860006101000a81548173ffffffffffffffffffffffffffffffffffffffff021916908373ffffffffffffffffffffffffffffffffffffffff1602179055508173ffffffffffffffffffffffffffffffffffffffff168173ffffffffffffffffffffffffffffffffffffffff167f8be0079c531659141344cd1fd0a4f28419497f9722a3daafe3b4186f6b6457e060405160405180910390a35050565b6000600760008373ffffffffffffffffffffffffffffffffffffffff1673ffffffffffffffffffffffffffffffffffffffff168152602001908152602001600020549050919050565b606061104960057f000000000000000000000000000000000000000000000000000000000000000061163e90919063ffffffff16565b905090565b606061108460067f000000000000000000000000000000000000000000000000000000000000000061163e90919063ffffffff16565b905090565b600073ffffffffffffffffffffffffffffffffffffffff168273ffffffffffffffffffffffffffffffffffffffff16036110fb5760006040517fec442f050000000000000000000000000000000000000000000000000000000081526004016110f29190611edf565b60405180910390fd5b61110760008383611383565b5050565b6000600760008373ffffffffffffffffffffffffffffffffffffffff1673ffffffffffffffffffffffffffffffffffffffff1681526020019081526020016000206000815480929190600101919050559050919050565b600061117561116f610d44565b836116ee565b9050919050565b60008060008061118e8888888861172f565b92509250925061119e8282611823565b829350505050949350505050565b600073ffffffffffffffffffffffffffffffffffffffff168473ffffffffffffffffffffffffffffffffffffffff160361121e5760006040517fe602df050000000000000000000000000000000000000000000000000000000081526004016112159190611edf565b60405180910390fd5b600073ffffffffffffffffffffffffffffffffffffffff168373ffffffffffffffffffffffffffffffffffffffff16036112905760006040517f94280d620000000000000000000000000000000000000000000000000000000081526004016112879190611edf565b60405180910390fd5b81600160008673ffffffffffffffffffffffffffffffffffffffff1673ffffffffffffffffffffffffffffffffffffffff16815260200190815260200160002060008573ffffffffffffffffffffffffffffffffffffffff1673ffffffffffffffffffffffffffffffffffffffff16815260200190815260200160002081905550801561137d578273ffffffffffffffffffffffffffffffffffffffff168473ffffffffffffffffffffffffffffffffffffffff167f8c5be1e5ebec7d5bd14f71427d1e84f3dd0314c0f7b2291e5b200ac8c7c3b925846040516113749190611c20565b60405180910390a35b50505050565b600073ffffffffffffffffffffffffffffffffffffffff168373ffffffffffffffffffffffffffffffffffffffff16036113d55780600260008282546113c991906123d1565b925050819055506114a8565b60008060008573ffffffffffffffffffffffffffffffffffffffff1673ffffffffffffffffffffffffffffffffffffffff16815260200190815260200160002054905081811015611461578381836040517fe450d38c0000000000000000000000000000000000000000000000000000000081526004016114589392919061236b565b60405180910390fd5b8181036000808673ffffffffffffffffffffffffffffffffffffffff1673ffffffffffffffffffffffffffffffffffffffff16815260200190815260200160002081905550505b600073ffffffffffffffffffffffffffffffffffffffff168273ffffffffffffffffffffffffffffffffffffffff16036114f1578060026000828254039250508190555061153e565b806000808473ffffffffffffffffffffffffffffffffffffffff1673ffffffffffffffffffffffffffffffffffffffff168152602001908152602001600020600082825401925050819055505b8173ffffffffffffffffffffffffffffffffffffffff168373ffffffffffffffffffffffffffffffffffffffff167fddf252ad1be2c89b69c2b068fc378daa952ba7f163c4a11628f55a4df523b3ef8360405161159b9190611c20565b60405180910390a3505050565b60007f8b73c3c69bb8fe3d512ecc4cf759cc79239f7b179b0ffacaa9a75d522b39400f7f00000000000000000000000000000000000000000000000000000000000000007f00000000000000000000000000000000000000000000000000000000000000004630604051602001611623959493929190612405565b60405160208183030381529060405280519060200120905090565b606060ff60001b831461165b5761165483611987565b90506116e8565b81805461166790612128565b80601f016020809104026020016040519081016040528092919081815260200182805461169390612128565b80156116e05780601f106116b5576101008083540402835291602001916116e0565b820191906000526020600020905b8154815290600101906020018083116116c357829003601f168201915b505050505090505b92915050565b60006040517f190100000000000000000000000000000000000000000000000000000000000081528360028201528260228201526042812091505092915050565b60008060007f7fffffffffffffffffffffffffffffff5d576e7357a4501ddfe92f46681b20a08460001c111561176f576000600385925092509250611819565b6000600188888888604051600081526020016040526040516117949493929190612458565b6020604051602081039080840390855afa1580156117b6573d6000803e3d6000fd5b505050602060405103519050600073ffffffffffffffffffffffffffffffffffffffff168173ffffffffffffffffffffffffffffffffffffffff160361180a57600060016000801b93509350935050611819565b8060008060001b935093509350505b9450945094915050565b600060038111156118375761183661249d565b5b82600381111561184a5761184961249d565b5b031561198357600160038111156118645761186361249d565b5b8260038111156118775761187661249d565b5b036118ae576040517ff645eedf00000000000000000000000000000000000000000000000000000000815260040160405180910390fd5b600260038111156118c2576118c161249d565b5b8260038111156118d5576118d461249d565b5b0361191a578060001c6040517ffce698f70000000000000000000000000000000000000000000000000000000081526004016119119190611c20565b60405180910390fd5b60038081111561192d5761192c61249d565b5b8260038111156119405761193f61249d565b5b0361198257806040517fd78bce0c0000000000000000000000000000000000000000000000000000000081526004016119799190611cde565b60405180910390fd5b5b5050565b60606000611994836119fb565b90506000602067ffffffffffffffff8111156119b3576119b2612159565b5b6040519080825280601f01601f1916602001820160405280156119e55781602001600182028036833780820191505090505b5090508181528360208201528092505050919050565b60008060ff8360001c169050601f811115611a42576040517fb3512b0c00000000000000000000000000000000000000000000000000000000815260040160405180910390fd5b80915050919050565b600081519050919050565b600082825260208201905092915050565b60005b83811015611a85578082015181840152602081019050611a6a565b60008484015250505050565b6000601f19601f8301169050919050565b6000611aad82611a4b565b611ab78185611a56565b9350611ac7818560208601611a67565b611ad081611a91565b840191505092915050565b60006020820190508181036000830152611af58184611aa2565b905092915050565b600080fd5b600080fd5b600073ffffffffffffffffffffffffffffffffffffffff82169050919050565b6000611b3282611b07565b9050919050565b611b4281611b27565b8114611b4d57600080fd5b50565b600081359050611b5f81611b39565b92915050565b6000819050919050565b611b7881611b65565b8114611b8357600080fd5b50565b600081359050611b9581611b6f565b92915050565b60008060408385031215611bb257611bb1611afd565b5b6000611bc085828601611b50565b9250506020611bd185828601611b86565b9150509250929050565b60008115159050919050565b611bf081611bdb565b82525050565b6000602082019050611c0b6000830184611be7565b92915050565b611c1a81611b65565b82525050565b6000602082019050611c356000830184611c11565b92915050565b600080600060608486031215611c5457611c53611afd565b5b6000611c6286828701611b50565b9350506020611c7386828701611b50565b9250506040611c8486828701611b86565b9150509250925092565b600060ff82169050919050565b611ca481611c8e565b82525050565b6000602082019050611cbf6000830184611c9b565b92915050565b6000819050919050565b611cd881611cc5565b82525050565b6000602082019050611cf36000830184611ccf565b92915050565b600060208284031215611d0f57611d0e611afd565b5b6000611d1d84828501611b86565b91505092915050565b600060208284031215611d3c57611d3b611afd565b5b6000611d4a84828501611b50565b91505092915050565b60007fff0000000000000000000000000000000000000000000000000000000000000082169050919050565b611d8881611d53565b82525050565b611d9781611b27565b82525050565b600081519050919050565b600082825260208201905092915050565b6000819050602082019050919050565b611dd281611b65565b82525050565b6000611de48383611dc9565b60208301905092915050565b6000602082019050919050565b6000611e0882611d9d565b611e128185611da8565b9350611e1d83611db9565b8060005b83811015611e4e578151611e358882611dd8565b9750611e4083611df0565b925050600181019050611e21565b5085935050505092915050565b600060e082019050611e70600083018a611d7f565b8181036020830152611e828189611aa2565b90508181036040830152611e968188611aa2565b9050611ea56060830187611c11565b611eb26080830186611d8e565b611ebf60a0830185611ccf565b81810360c0830152611ed18184611dfd565b905098975050505050505050565b6000602082019050611ef46000830184611d8e565b92915050565b600080fd5b600080fd5b600080fd5b60008083601f840112611f1f57611f1e611efa565b5b8235905067ffffffffffffffff811115611f3c57611f3b611eff565b5b602083019150836020820283011115611f5857611f57611f04565b5b9250929050565b600080600060408486031215611f7857611f77611afd565b5b600084013567ffffffffffffffff811115611f9657611f95611b02565b5b611fa286828701611f09565b93509350506020611fb586828701611b86565b9150509250925092565b611fc881611c8e565b8114611fd357600080fd5b50565b600081359050611fe581611fbf565b92915050565b611ff481611cc5565b8114611fff57600080fd5b50565b60008135905061201181611feb565b92915050565b600080600080600080600060e0888a03121561203657612035611afd565b5b60006120448a828b01611b50565b97505060206120558a828b01611b50565b96505060406120668a828b01611b86565b95505060606120778a828b01611b86565b94505060806120888a828b01611fd6565b93505060a06120998a828b01612002565b92505060c06120aa8a828b01612002565b91505092959891949750929550565b600080604083850312156120d0576120cf611afd565b5b60006120de85828601611b50565b92505060206120ef85828601611b50565b9150509250929050565b7f4e487b7100000000000000000000000000000000000000000000000000000000600052602260045260246000fd5b6000600282049050600182168061214057607f821691505b602082108103612153576121526120f9565b5b50919050565b7f4e487b7100000000000000000000000000000000000000000000000000000000600052604160045260246000fd5b6000819050919050565b6000819050919050565b60006121b76121b26121ad84612188565b612192565b611c8e565b9050919050565b6121c78161219c565b82525050565b60006020820190506121e260008301846121be565b92915050565b600081519050919050565b600081905092915050565b6000612209826121e8565b61221381856121f3565b9350612223818560208601611a67565b80840191505092915050565b600061223b82846121fe565b915081905092915050565b7f4665654d20726567697374726174696f6e206661696c65640000000000000000600082015250565b600061227c601883611a56565b915061228782612246565b602082019050919050565b600060208201905081810360008301526122ab8161226f565b9050919050565b7f4e487b7100000000000000000000000000000000000000000000000000000000600052603260045260246000fd5b600060c0820190506122f66000830189611ccf565b6123036020830188611d8e565b6123106040830187611d8e565b61231d6060830186611c11565b61232a6080830185611c11565b61233760a0830184611c11565b979650505050505050565b60006040820190506123576000830185611d8e565b6123646020830184611d8e565b9392505050565b60006060820190506123806000830186611d8e565b61238d6020830185611c11565b61239a6040830184611c11565b949350505050565b7f4e487b7100000000000000000000000000000000000000000000000000000000600052601160045260246000fd5b60006123dc82611b65565b91506123e783611b65565b92508282019050808211156123ff576123fe6123a2565b5b92915050565b600060a08201905061241a6000830188611ccf565b6124276020830187611ccf565b6124346040830186611ccf565b6124416060830185611c11565b61244e6080830184611d8e565b9695505050505050565b600060808201905061246d6000830187611ccf565b61247a6020830186611c9b565b6124876040830185611ccf565b6124946060830184611ccf565b95945050505050565b7f4e487b7100000000000000000000000000000000000000000000000000000000600052602160045260246000fdfe527567676965277320416e6e6976657273617279205061727479205469636b6574a2646970667358221220ce2eeb1a537343552a42f2294e4776d91b79e795e7f3491236ed52096c4e629e64736f6c63430008180033527567676965277320416e6e6976657273617279205061727479205469636b6574",
  "linkReferences": {},
  "deployedLinkReferences": {}
}