{
  "_format": "hh-sol-artifact-1",
  "contractName": "RugTARDS",
  "sourceName": "contracts/RugTARDS.sol",
  "abi": [
    {
      "inputs": [
        {
          "internalType": "address",
          "name": "tokenContract",
          "type": "address"
        }
      ],
      "stateMutability": "nonpayable",
      "type": "constructor"
    },
    {
      "inputs": [],
      "name": "ApprovalCallerNotOwnerNorApproved",
      "type": "error"
    },
    {
      "inputs": [],
      "name": "ApprovalQueryForNonexistentToken",
      "type": "error"
    },
    {
      "inputs": [],
      "name": "BalanceQueryForZeroAddress",
      "type": "error"
    },
    {
      "inputs": [],
      "name": "InvalidPayment",
      "type": "error"
    },
    {
      "inputs": [],
      "name": "InvalidQuantity",
      "type": "error"
    },
    {
      "inputs": [],
      "name": "InvalidToken",
      "type": "error"
    },
    {
      "inputs": [],
      "name": "MintERC2309QuantityExceedsLimit",
      "type": "error"
    },
    {
      "inputs": [],
      "name": "MintToZeroAddress",
      "type": "error"
    },
    {
      "inputs": [],
      "name": "MintZeroQuantity",
      "type": "error"
    },
    {
      "inputs": [],
      "name": "MintedOut",
      "type": "error"
    },
    {
      "inputs": [],
      "name": "MintingClosed",
      "type": "error"
    },
    {
      "inputs": [],
      "name": "NotCompatibleWithSpotMints",
      "type": "error"
    },
    {
      "inputs": [
        {
          "internalType": "address",
          "name": "owner",
          "type": "address"
        }
      ],
      "name": "OwnableInvalidOwner",
      "type": "error"
    },
    {
      "inputs": [
        {
          "internalType": "address",
          "name": "account",
          "type": "address"
        }
      ],
      "name": "OwnableUnauthorizedAccount",
      "type": "error"
    },
    {
      "inputs": [],
      "name": "OwnerQueryForNonexistentToken",
      "type": "error"
    },
    {
      "inputs": [],
      "name": "OwnershipNotInitializedForExtraData",
      "type": "error"
    },
    {
      "inputs": [],
      "name": "SequentialMintExceedsLimit",
      "type": "error"
    },
    {
      "inputs": [],
      "name": "SequentialUpToTooSmall",
      "type": "error"
    },
    {
      "inputs": [],
      "name": "SpotMintTokenIdTooSmall",
      "type": "error"
    },
    {
      "inputs": [],
      "name": "TokenAlreadyExists",
      "type": "error"
    },
    {
      "inputs": [],
      "name": "TransferCallerNotOwnerNorApproved",
      "type": "error"
    },
    {
      "inputs": [],
      "name": "TransferFromIncorrectOwner",
      "type": "error"
    },
    {
      "inputs": [],
      "name": "TransferToNonERC721ReceiverImplementer",
      "type": "error"
    },
    {
      "inputs": [],
      "name": "TransferToZeroAddress",
      "type": "error"
    },
    {
      "inputs": [],
      "name": "URIQueryForNonexistentToken",
      "type": "error"
    },
    {
      "anonymous": false,
      "inputs": [
        {
          "indexed": true,
          "internalType": "address",
          "name": "owner",
          "type": "address"
        },
        {
          "indexed": true,
          "internalType": "address",
          "name": "approved",
          "type": "address"
        },
        {
          "indexed": true,
          "internalType": "uint256",
          "name": "tokenId",
          "type": "uint256"
        }
      ],
      "name": "Approval",
      "type": "event"
    },
    {
      "anonymous": false,
      "inputs": [
        {
          "indexed": true,
          "internalType": "address",
          "name": "owner",
          "type": "address"
        },
        {
          "indexed": true,
          "internalType": "address",
          "name": "operator",
          "type": "address"
        },
        {
          "indexed": false,
          "internalType": "bool",
          "name": "approved",
          "type": "bool"
        }
      ],
      "name": "ApprovalForAll",
      "type": "event"
    },
    {
      "anonymous": false,
      "inputs": [
        {
          "indexed": true,
          "internalType": "uint256",
          "name": "fromTokenId",
          "type": "uint256"
        },
        {
          "indexed": false,
          "internalType": "uint256",
          "name": "toTokenId",
          "type": "uint256"
        },
        {
          "indexed": true,
          "internalType": "address",
          "name": "from",
          "type": "address"
        },
        {
          "indexed": true,
          "internalType": "address",
          "name": "to",
          "type": "address"
        }
      ],
      "name": "ConsecutiveTransfer",
      "type": "event"
    },
    {
      "anonymous": false,
      "inputs": [
        {
          "indexed": true,
          "internalType": "address",
          "name": "previousOwner",
          "type": "address"
        },
        {
          "indexed": true,
          "internalType": "address",
          "name": "newOwner",
          "type": "address"
        }
      ],
      "name": "OwnershipTransferred",
      "type": "event"
    },
    {
      "anonymous": false,
      "inputs": [
        {
          "indexed": false,
          "internalType": "uint256",
          "name": "tokenId",
          "type": "uint256"
        },
        {
          "indexed": false,
          "internalType": "address",
          "name": "rugger",
          "type": "address"
        }
      ],
      "name": "Rugged",
      "type": "event"
    },
    {
      "anonymous": false,
      "inputs": [
        {
          "indexed": false,
          "internalType": "bool",
          "name": "newStatus",
          "type": "bool"
        }
      ],
      "name": "StatusChange",
      "type": "event"
    },
    {
      "anonymous": false,
      "inputs": [
        {
          "indexed": true,
          "internalType": "address",
          "name": "from",
          "type": "address"
        },
        {
          "indexed": true,
          "internalType": "address",
          "name": "to",
          "type": "address"
        },
        {
          "indexed": true,
          "internalType": "uint256",
          "name": "tokenId",
          "type": "uint256"
        }
      ],
      "name": "Transfer",
      "type": "event"
    },
    {
      "inputs": [
        {
          "internalType": "address",
          "name": "to",
          "type": "address"
        },
        {
          "internalType": "uint256",
          "name": "tokenId",
          "type": "uint256"
        }
      ],
      "name": "approve",
      "outputs": [],
      "stateMutability": "payable",
      "type": "function"
    },
    {
      "inputs": [
        {
          "internalType": "address",
          "name": "owner",
          "type": "address"
        }
      ],
      "name": "balanceOf",
      "outputs": [
        {
          "internalType": "uint256",
          "name": "",
          "type": "uint256"
        }
      ],
      "stateMutability": "view",
      "type": "function"
    },
    {
      "inputs": [],
      "name": "baseURI",
      "outputs": [
        {
          "internalType": "string",
          "name": "",
          "type": "string"
        }
      ],
      "stateMutability": "view",
      "type": "function"
    },
    {
      "inputs": [],
      "name": "beneficiary",
      "outputs": [
        {
          "internalType": "address",
          "name": "",
          "type": "address"
        }
      ],
      "stateMutability": "view",
      "type": "function"
    },
    {
      "inputs": [
        {
          "internalType": "uint256",
          "name": "tokenId",
          "type": "uint256"
        }
      ],
      "name": "getApproved",
      "outputs": [
        {
          "internalType": "address",
          "name": "",
          "type": "address"
        }
      ],
      "stateMutability": "view",
      "type": "function"
    },
    {
      "inputs": [],
      "name": "hiddenTraits",
      "outputs": [
        {
          "internalType": "bool",
          "name": "",
          "type": "bool"
        }
      ],
      "stateMutability": "view",
      "type": "function"
    },
    {
      "inputs": [],
      "name": "hiddenURI",
      "outputs": [
        {
          "internalType": "string",
          "name": "",
          "type": "string"
        }
      ],
      "stateMutability": "view",
      "type": "function"
    },
    {
      "inputs": [
        {
          "internalType": "address",
          "name": "owner",
          "type": "address"
        },
        {
          "internalType": "address",
          "name": "operator",
          "type": "address"
        }
      ],
      "name": "isApprovedForAll",
      "outputs": [
        {
          "internalType": "bool",
          "name": "",
          "type": "bool"
        }
      ],
      "stateMutability": "view",
      "type": "function"
    },
    {
      "inputs": [],
      "name": "maxSupply",
      "outputs": [
        {
          "internalType": "uint256",
          "name": "",
          "type": "uint256"
        }
      ],
      "stateMutability": "view",
      "type": "function"
    },
    {
      "inputs": [
        {
          "internalType": "uint256",
          "name": "quantity",
          "type": "uint256"
        }
      ],
      "name": "mint",
      "outputs": [],
      "stateMutability": "payable",
      "type": "function"
    },
    {
      "inputs": [],
      "name": "mintOpen",
      "outputs": [
        {
          "internalType": "bool",
          "name": "",
          "type": "bool"
        }
      ],
      "stateMutability": "view",
      "type": "function"
    },
    {
      "inputs": [],
      "name": "mintPrice",
      "outputs": [
        {
          "internalType": "uint256",
          "name": "",
          "type": "uint256"
        }
      ],
      "stateMutability": "view",
      "type": "function"
    },
    {
      "inputs": [],
      "name": "name",
      "outputs": [
        {
          "internalType": "string",
          "name": "",
          "type": "string"
        }
      ],
      "stateMutability": "view",
      "type": "function"
    },
    {
      "inputs": [],
      "name": "owner",
      "outputs": [
        {
          "internalType": "address",
          "name": "",
          "type": "address"
        }
      ],
      "stateMutability": "view",
      "type": "function"
    },
    {
      "inputs": [
        {
          "internalType": "uint256",
          "name": "tokenId",
          "type": "uint256"
        }
      ],
      "name": "ownerOf",
      "outputs": [
        {
          "internalType": "address",
          "name": "",
          "type": "address"
        }
      ],
      "stateMutability": "view",
      "type": "function"
    },
    {
      "inputs": [],
      "name": "renounceOwnership",
      "outputs": [],
      "stateMutability": "nonpayable",
      "type": "function"
    },
    {
      "inputs": [
        {
          "internalType": "uint256",
          "name": "",
          "type": "uint256"
        }
      ],
      "name": "rugged",
      "outputs": [
        {
          "internalType": "bool",
          "name": "",
          "type": "bool"
        }
      ],
      "stateMutability": "view",
      "type": "function"
    },
    {
      "inputs": [],
      "name": "ruggedURI",
      "outputs": [
        {
          "internalType": "string",
          "name": "",
          "type": "string"
        }
      ],
      "stateMutability": "view",
      "type": "function"
    },
    {
      "inputs": [],
      "name": "ruggieContract",
      "outputs": [
        {
          "internalType": "address",
          "name": "",
          "type": "address"
        }
      ],
      "stateMutability": "view",
      "type": "function"
    },
    {
      "inputs": [],
      "name": "ruggieLimit",
      "outputs": [
        {
          "internalType": "uint256",
          "name": "",
          "type": "uint256"
        }
      ],
      "stateMutability": "view",
      "type": "function"
    },
    {
      "inputs": [],
      "name": "ruggiePrice",
      "outputs": [
        {
          "internalType": "uint256",
          "name": "",
          "type": "uint256"
        }
      ],
      "stateMutability": "view",
      "type": "function"
    },
    {
      "inputs": [
        {
          "internalType": "uint256",
          "name": "tokenId",
          "type": "uint256"
        }
      ],
      "name": "rugpull",
      "outputs": [],
      "stateMutability": "payable",
      "type": "function"
    },
    {
      "inputs": [
        {
          "internalType": "address",
          "name": "from",
          "type": "address"
        },
        {
          "internalType": "address",
          "name": "to",
          "type": "address"
        },
        {
          "internalType": "uint256",
          "name": "tokenId",
          "type": "uint256"
        }
      ],
      "name": "safeTransferFrom",
      "outputs": [],
      "stateMutability": "payable",
      "type": "function"
    },
    {
      "inputs": [
        {
          "internalType": "address",
          "name": "from",
          "type": "address"
        },
        {
          "internalType": "address",
          "name": "to",
          "type": "address"
        },
        {
          "internalType": "uint256",
          "name": "tokenId",
          "type": "uint256"
        },
        {
          "internalType": "bytes",
          "name": "_data",
          "type": "bytes"
        }
      ],
      "name": "safeTransferFrom",
      "outputs": [],
      "stateMutability": "payable",
      "type": "function"
    },
    {
      "inputs": [
        {
          "internalType": "address",
          "name": "operator",
          "type": "address"
        },
        {
          "internalType": "bool",
          "name": "approved",
          "type": "bool"
        }
      ],
      "name": "setApprovalForAll",
      "outputs": [],
      "stateMutability": "nonpayable",
      "type": "function"
    },
    {
      "inputs": [
        {
          "internalType": "bytes4",
          "name": "interfaceId",
          "type": "bytes4"
        }
      ],
      "name": "supportsInterface",
      "outputs": [
        {
          "internalType": "bool",
          "name": "",
          "type": "bool"
        }
      ],
      "stateMutability": "view",
      "type": "function"
    },
    {
      "inputs": [],
      "name": "symbol",
      "outputs": [
        {
          "internalType": "string",
          "name": "",
          "type": "string"
        }
      ],
      "stateMutability": "view",
      "type": "function"
    },
    {
      "inputs": [
        {
          "internalType": "uint256",
          "name": "tokenId",
          "type": "uint256"
        }
      ],
      "name": "tokenURI",
      "outputs": [
        {
          "internalType": "string",
          "name": "",
          "type": "string"
        }
      ],
      "stateMutability": "view",
      "type": "function"
    },
    {
      "inputs": [],
      "name": "totalSupply",
      "outputs": [
        {
          "internalType": "uint256",
          "name": "result",
          "type": "uint256"
        }
      ],
      "stateMutability": "view",
      "type": "function"
    },
    {
      "inputs": [
        {
          "internalType": "address",
          "name": "from",
          "type": "address"
        },
        {
          "internalType": "address",
          "name": "to",
          "type": "address"
        },
        {
          "internalType": "uint256",
          "name": "tokenId",
          "type": "uint256"
        }
      ],
      "name": "transferFrom",
      "outputs": [],
      "stateMutability": "payable",
      "type": "function"
    },
    {
      "inputs": [
        {
          "internalType": "address",
          "name": "newOwner",
          "type": "address"
        }
      ],
      "name": "transferOwnership",
      "outputs": [],
      "stateMutability": "nonpayable",
      "type": "function"
    },
    {
      "inputs": [
        {
          "internalType": "address",
          "name": "newBeneficiary",
          "type": "address"
        }
      ],
      "name": "updateBeneficiary",
      "outputs": [],
      "stateMutability": "nonpayable",
      "type": "function"
    },
    {
      "inputs": [],
      "name": "updateHiddenTraits",
      "outputs": [],
      "stateMutability": "nonpayable",
      "type": "function"
    },
    {
      "inputs": [],
      "name": "updateMintStatus",
      "outputs": [],
      "stateMutability": "nonpayable",
      "type": "function"
    },
    {
      "inputs": [
        {
          "internalType": "uint256",
          "name": "newPrice",
          "type": "uint256"
        },
        {
          "internalType": "uint256",
          "name": "newRuggie",
          "type": "uint256"
        }
      ],
      "name": "updatePrice",
      "outputs": [],
      "stateMutability": "nonpayable",
      "type": "function"
    },
    {
      "inputs": [
        {
          "internalType": "uint256",
          "name": "newLimit",
          "type": "uint256"
        }
      ],
      "name": "updateRuggieLimit",
      "outputs": [],
      "stateMutability": "nonpayable",
      "type": "function"
    },
    {
      "inputs": [
        {
          "internalType": "string",
          "name": "newURI",
          "type": "string"
        },
        {
          "internalType": "string",
          "name": "newRugged",
          "type": "string"
        }
      ],
      "name": "updateURI",
      "outputs": [],
      "stateMutability": "nonpayable",
      "type": "function"
    },
    {
      "inputs": [],
      "name": "withdraw",
      "outputs": [],
      "stateMutability": "nonpayable",
      "type": "function"
    }
  ],
  "bytecode": "0x608060405260405180606001604052806034815260200162003b4660349139600c90816200002e919062000909565b506101a4600d5560405180606001604052806034815260200162003b1260349139601190816200005f919062000909565b503480156200006d57600080fd5b5060405162003b7a38038062003b7a833981810160405281019062000093919062000a5a565b620000a36200033460201b60201c565b6040518060400160405280600881526020017f52756754415244530000000000000000000000000000000000000000000000008152506040518060400160405280600581526020017f5254415244000000000000000000000000000000000000000000000000000000815250816002908162000120919062000909565b50806003908162000132919062000909565b50620001436200033c60201b60201c565b600081905550620001596200033c60201b60201c565b620001696200034560201b60201c565b101562000189576200018863fed8210f60e01b6200036d60201b60201c565b5b5050600073ffffffffffffffffffffffffffffffffffffffff168173ffffffffffffffffffffffffffffffffffffffff1603620002005760006040517f1e4fbdf7000000000000000000000000000000000000000000000000000000008152600401620001f7919062000a9d565b60405180910390fd5b62000211816200037760201b60201c565b50620002226200033460201b60201c565b600b60006101000a81548173ffffffffffffffffffffffffffffffffffffffff021916908373ffffffffffffffffffffffffffffffffffffffff1602179055506001600e60006101000a81548160ff0219169083151502179055506801a055690d9db80000600f8190555080601260006101000a81548173ffffffffffffffffffffffffffffffffffffffff021916908373ffffffffffffffffffffffffffffffffffffffff1602179055506801158e460913d000006014819055506a0a56fa5b99019a5c8000006013819055506001600b60146101000a81548160ff0219169083151502179055506200032d6200031f6200033460201b60201c565b60086200043d60201b60201c565b5062000aba565b600033905090565b60006001905090565b60007fffffffffffffffffffffffffffffffffffffffffffffffffffffffffffffffff905090565b8060005260046000fd5b6000600960009054906101000a900473ffffffffffffffffffffffffffffffffffffffff16905081600960006101000a81548173ffffffffffffffffffffffffffffffffffffffff021916908373ffffffffffffffffffffffffffffffffffffffff1602179055508173ffffffffffffffffffffffffffffffffffffffff168173ffffffffffffffffffffffffffffffffffffffff167f8be0079c531659141344cd1fd0a4f28419497f9722a3daafe3b4186f6b6457e060405160405180910390a35050565b6000805490506000820362000465576200046463b562e8dd60e01b6200036d60201b60201c565b5b6200047a60008483856200060f60201b60201c565b620004b2836200049460008660006200061560201b60201c565b620004a5856200064560201b60201c565b176200065560201b60201c565b6004600083815260200190815260200160002081905550600160406001901b178202600560008573ffffffffffffffffffffffffffffffffffffffff1673ffffffffffffffffffffffffffffffffffffffff16815260200190815260200160002060008282540192505081905550600073ffffffffffffffffffffffffffffffffffffffff8473ffffffffffffffffffffffffffffffffffffffff1616905060008103620005735762000572632e07630060e01b6200036d60201b60201c565b5b6000838301905060008390506200058f6200034560201b60201c565b600183031115620005b357620005b26381647e3a60e01b6200036d60201b60201c565b5b5b808360007fddf252ad1be2c89b69c2b068fc378daa952ba7f163c4a11628f55a4df523b3ef600080a4818160010191508103620005b457816000819055505050506200060a60008483856200068060201b60201c565b505050565b50505050565b60008060e883901c905060e8620006348686846200068660201b60201c565b62ffffff16901b9150509392505050565b60006001821460e11b9050919050565b600073ffffffffffffffffffffffffffffffffffffffff83169250814260a01b178317905092915050565b50505050565b60009392505050565b600081519050919050565b7f4e487b7100000000000000000000000000000000000000000000000000000000600052604160045260246000fd5b7f4e487b7100000000000000000000000000000000000000000000000000000000600052602260045260246000fd5b600060028204905060018216806200071157607f821691505b602082108103620007275762000726620006c9565b5b50919050565b60008190508160005260206000209050919050565b60006020601f8301049050919050565b600082821b905092915050565b600060088302620007917fffffffffffffffffffffffffffffffffffffffffffffffffffffffffffffffff8262000752565b6200079d868362000752565b95508019841693508086168417925050509392505050565b6000819050919050565b6000819050919050565b6000620007ea620007e4620007de84620007b5565b620007bf565b620007b5565b9050919050565b6000819050919050565b6200080683620007c9565b6200081e6200081582620007f1565b8484546200075f565b825550505050565b600090565b6200083562000826565b62000842818484620007fb565b505050565b5b818110156200086a576200085e6000826200082b565b60018101905062000848565b5050565b601f821115620008b95762000883816200072d565b6200088e8462000742565b810160208510156200089e578190505b620008b6620008ad8562000742565b83018262000847565b50505b505050565b600082821c905092915050565b6000620008de60001984600802620008be565b1980831691505092915050565b6000620008f98383620008cb565b9150826002028217905092915050565b62000914826200068f565b67ffffffffffffffff81111562000930576200092f6200069a565b5b6200093c8254620006f8565b620009498282856200086e565b600060209050601f8311600181146200098157600084156200096c578287015190505b620009788582620008eb565b865550620009e8565b601f19841662000991866200072d565b60005b82811015620009bb5784890151825560018201915060208501945060208101905062000994565b86831015620009db5784890151620009d7601f891682620008cb565b8355505b6001600288020188555050505b505050505050565b600080fd5b600073ffffffffffffffffffffffffffffffffffffffff82169050919050565b600062000a2282620009f5565b9050919050565b62000a348162000a15565b811462000a4057600080fd5b50565b60008151905062000a548162000a29565b92915050565b60006020828403121562000a735762000a72620009f0565b5b600062000a838482850162000a43565b91505092915050565b62000a978162000a15565b82525050565b600060208201905062000ab4600083018462000a8c565b92915050565b6130488062000aca6000396000f3fe6080604052600436106102255760003560e01c80636c0360eb11610123578063a22cb465116100ab578063d5abeb011161006f578063d5abeb011461077c578063dd44720c146107a7578063e985e9c5146107d2578063f09460c41461080f578063f2fde38b1461082b57610225565b8063a22cb465146106a4578063b88d4fde146106cd578063bade2a87146106e9578063c87b56dd14610714578063c9bc1e531461075157610225565b80638cc54e7f116100f25780638cc54e7f146105ca5780638da5cb5b146105f557806394eb192d1461062057806395d89b411461065d578063a0712d681461068857610225565b80636c0360eb1461052257806370a082311461054d578063715018a61461058a57806382367b2d146105a157610225565b806324bbd049116101b15780633ccfd60b116101755780633ccfd60b1461045c57806342842e0e1461047357806343af6ae91461048f5780636352211e146104ba5780636817c76c146104f757610225565b806324bbd049146103af5780632e9a8976146103da578063331f2b691461040357806334d196441461041a57806338af3eed1461043157610225565b8063095ea7b3116101f8578063095ea7b3146102fa5780630aaffd2a146103165780631789e2d81461033f57806318160ddd1461036857806323b872dd1461039357610225565b806301ffc9a71461022a57806305acf72c1461026757806306fdde0314610292578063081812fc146102bd575b600080fd5b34801561023657600080fd5b50610251600480360381019061024c9190612366565b610854565b60405161025e91906123ae565b60405180910390f35b34801561027357600080fd5b5061027c6108e6565b6040516102899190612459565b60405180910390f35b34801561029e57600080fd5b506102a7610974565b6040516102b49190612459565b60405180910390f35b3480156102c957600080fd5b506102e460048036038101906102df91906124b1565b610a06565b6040516102f1919061251f565b60405180910390f35b610314600480360381019061030f9190612566565b610a64565b005b34801561032257600080fd5b5061033d600480360381019061033891906125a6565b610a74565b005b34801561034b57600080fd5b5061036660048036038101906103619190612638565b610ac0565b005b34801561037457600080fd5b5061037d610af2565b60405161038a91906126c8565b60405180910390f35b6103ad60048036038101906103a891906126e3565b610b3f565b005b3480156103bb57600080fd5b506103c4610e00565b6040516103d191906123ae565b60405180910390f35b3480156103e657600080fd5b5061040160048036038101906103fc91906124b1565b610e13565b005b34801561040f57600080fd5b50610418610e25565b005b34801561042657600080fd5b5061042f610e59565b005b34801561043d57600080fd5b50610446610ed3565b604051610453919061251f565b60405180910390f35b34801561046857600080fd5b50610471610ef9565b005b61048d600480360381019061048891906126e3565b610f6c565b005b34801561049b57600080fd5b506104a4610f8c565b6040516104b191906126c8565b60405180910390f35b3480156104c657600080fd5b506104e160048036038101906104dc91906124b1565b610f92565b6040516104ee919061251f565b60405180910390f35b34801561050357600080fd5b5061050c610fa4565b60405161051991906126c8565b60405180910390f35b34801561052e57600080fd5b50610537610faa565b6040516105449190612459565b60405180910390f35b34801561055957600080fd5b50610574600480360381019061056f91906125a6565b611038565b60405161058191906126c8565b60405180910390f35b34801561059657600080fd5b5061059f6110cf565b005b3480156105ad57600080fd5b506105c860048036038101906105c39190612736565b6110e3565b005b3480156105d657600080fd5b506105df6110fd565b6040516105ec9190612459565b60405180910390f35b34801561060157600080fd5b5061060a61118b565b604051610617919061251f565b60405180910390f35b34801561062c57600080fd5b50610647600480360381019061064291906124b1565b6111b5565b60405161065491906123ae565b60405180910390f35b34801561066957600080fd5b506106726111d5565b60405161067f9190612459565b60405180910390f35b6106a2600480360381019061069d91906124b1565b611267565b005b3480156106b057600080fd5b506106cb60048036038101906106c691906127a2565b61149a565b005b6106e760048036038101906106e29190612912565b6115a5565b005b3480156106f557600080fd5b506106fe6115f7565b60405161070b91906126c8565b60405180910390f35b34801561072057600080fd5b5061073b600480360381019061073691906124b1565b6115fd565b6040516107489190612459565b60405180910390f35b34801561075d57600080fd5b50610766611791565b60405161077391906123ae565b60405180910390f35b34801561078857600080fd5b506107916117a4565b60405161079e91906126c8565b60405180910390f35b3480156107b357600080fd5b506107bc6117aa565b6040516107c9919061251f565b60405180910390f35b3480156107de57600080fd5b506107f960048036038101906107f49190612995565b6117d0565b60405161080691906123ae565b60405180910390f35b610829600480360381019061082491906124b1565b611864565b005b34801561083757600080fd5b50610852600480360381019061084d91906125a6565b611976565b005b60006301ffc9a760e01b827bffffffffffffffffffffffffffffffffffffffffffffffffffffffff191614806108af57506380ac58cd60e01b827bffffffffffffffffffffffffffffffffffffffffffffffffffffffff1916145b806108df5750635b5e139f60e01b827bffffffffffffffffffffffffffffffffffffffffffffffffffffffff1916145b9050919050565b601180546108f390612a04565b80601f016020809104026020016040519081016040528092919081815260200182805461091f90612a04565b801561096c5780601f106109415761010080835404028352916020019161096c565b820191906000526020600020905b81548152906001019060200180831161094f57829003601f168201915b505050505081565b60606002805461098390612a04565b80601f01602080910402602001604051908101604052809291908181526020018280546109af90612a04565b80156109fc5780601f106109d1576101008083540402835291602001916109fc565b820191906000526020600020905b8154815290600101906020018083116109df57829003601f168201915b5050505050905090565b6000610a11826119fc565b610a2657610a2563cf4700e460e01b611aa8565b5b6006600083815260200190815260200160002060000160009054906101000a900473ffffffffffffffffffffffffffffffffffffffff169050919050565b610a7082826001611ab2565b5050565b610a7c611be1565b80600b60006101000a81548173ffffffffffffffffffffffffffffffffffffffff021916908373ffffffffffffffffffffffffffffffffffffffff16021790555050565b610ac8611be1565b8383600a9182610ad9929190612bec565b50818160119182610aeb929190612bec565b5050505050565b6000610afc611c68565b600154600054030390507fffffffffffffffffffffffffffffffffffffffffffffffffffffffffffffffff610b2f611c71565b14610b3c57600854810190505b90565b6000610b4a82611c99565b905073ffffffffffffffffffffffffffffffffffffffff8473ffffffffffffffffffffffffffffffffffffffff161693508373ffffffffffffffffffffffffffffffffffffffff168173ffffffffffffffffffffffffffffffffffffffff1614610bbf57610bbe63a114810060e01b611aa8565b5b600080610bcb84611db2565b91509150610be18187610bdc611dd9565b611de1565b610c0c57610bf686610bf1611dd9565b6117d0565b610c0b57610c0a6359c896be60e01b611aa8565b5b5b610c198686866001611e25565b8015610c2457600082555b600560008773ffffffffffffffffffffffffffffffffffffffff1673ffffffffffffffffffffffffffffffffffffffff168152602001908152602001600020600081546001900391905081905550600560008673ffffffffffffffffffffffffffffffffffffffff1673ffffffffffffffffffffffffffffffffffffffff1681526020019081526020016000206000815460010191905081905550610cf285610cce888887611e2b565b7c020000000000000000000000000000000000000000000000000000000017611e53565b600460008681526020019081526020016000208190555060007c0200000000000000000000000000000000000000000000000000000000841603610d785760006001850190506000600460008381526020019081526020016000205403610d76576000548114610d75578360046000838152602001908152602001600020819055505b5b505b600073ffffffffffffffffffffffffffffffffffffffff8673ffffffffffffffffffffffffffffffffffffffff161690508481887fddf252ad1be2c89b69c2b068fc378daa952ba7f163c4a11628f55a4df523b3ef600080a460008103610dea57610de963ea553b3460e01b611aa8565b5b610df78787876001611e7e565b50505050505050565b600e60009054906101000a900460ff1681565b610e1b611be1565b8060138190555050565b610e2d611be1565b600b60149054906101000a900460ff1615600b60146101000a81548160ff021916908315150217905550565b610e61611be1565b600e60009054906101000a900460ff1615600e60006101000a81548160ff0219169083151502179055507f31049bf3bf355501468eae392a37a331d82c9afcb4426073a12b21f1d597fb8c600e60009054906101000a900460ff16604051610ec991906123ae565b60405180910390a1565b600b60009054906101000a900473ffffffffffffffffffffffffffffffffffffffff1681565b610f01611be1565b600b60009054906101000a900473ffffffffffffffffffffffffffffffffffffffff1673ffffffffffffffffffffffffffffffffffffffff166108fc479081150290604051600060405180830381858888f19350505050158015610f69573d6000803e3d6000fd5b50565b610f87838383604051806020016040528060008152506115a5565b505050565b60145481565b6000610f9d82611c99565b9050919050565b600f5481565b600a8054610fb790612a04565b80601f0160208091040260200160405190810160405280929190818152602001828054610fe390612a04565b80156110305780601f1061100557610100808354040283529160200191611030565b820191906000526020600020905b81548152906001019060200180831161101357829003601f168201915b505050505081565b60008073ffffffffffffffffffffffffffffffffffffffff168273ffffffffffffffffffffffffffffffffffffffff160361107e5761107d638f4eb60460e01b611aa8565b5b67ffffffffffffffff600560008473ffffffffffffffffffffffffffffffffffffffff1673ffffffffffffffffffffffffffffffffffffffff16815260200190815260200160002054169050919050565b6110d7611be1565b6110e16000611e84565b565b6110eb611be1565b81600f81905550806014819055505050565b600c805461110a90612a04565b80601f016020809104026020016040519081016040528092919081815260200182805461113690612a04565b80156111835780601f1061115857610100808354040283529160200191611183565b820191906000526020600020905b81548152906001019060200180831161116657829003601f168201915b505050505081565b6000600960009054906101000a900473ffffffffffffffffffffffffffffffffffffffff16905090565b60106020528060005260406000206000915054906101000a900460ff1681565b6060600380546111e490612a04565b80601f016020809104026020016040519081016040528092919081815260200182805461121090612a04565b801561125d5780601f106112325761010080835404028352916020019161125d565b820191906000526020600020905b81548152906001019060200180831161124057829003601f168201915b5050505050905090565b600e60009054906101000a900460ff166112ad576040517fa7e4d9bd00000000000000000000000000000000000000000000000000000000815260040160405180910390fd5b60018110156112e8576040517f524f409b00000000000000000000000000000000000000000000000000000000815260040160405180910390fd5b600d54816112f4611f4a565b6112fe9190612ceb565b1115611336576040517f846fb9e200000000000000000000000000000000000000000000000000000000815260040160405180910390fd5b601354601260009054906101000a900473ffffffffffffffffffffffffffffffffffffffff1673ffffffffffffffffffffffffffffffffffffffff166370a0823161137f611f93565b6040518263ffffffff1660e01b815260040161139b919061251f565b602060405180830381865afa1580156113b8573d6000803e3d6000fd5b505050506040513d601f19601f820116820180604052508101906113dc9190612d34565b1061143e5734601454826113f09190612d61565b1115611428576040517f3c6b4b2800000000000000000000000000000000000000000000000000000000815260040160405180910390fd5b611439611433611f93565b82611f9b565b611497565b34600f548261144d9190612d61565b1115611485576040517f3c6b4b2800000000000000000000000000000000000000000000000000000000815260040160405180910390fd5b611496611490611f93565b82611f9b565b5b50565b80600760006114a7611dd9565b73ffffffffffffffffffffffffffffffffffffffff1673ffffffffffffffffffffffffffffffffffffffff16815260200190815260200160002060008473ffffffffffffffffffffffffffffffffffffffff1673ffffffffffffffffffffffffffffffffffffffff16815260200190815260200160002060006101000a81548160ff0219169083151502179055508173ffffffffffffffffffffffffffffffffffffffff16611554611dd9565b73ffffffffffffffffffffffffffffffffffffffff167f17307eab39ab6107e8899845ad3d59bd9653f200f220920489ca2b5937696c318360405161159991906123ae565b60405180910390a35050565b6115b0848484610b3f565b60008373ffffffffffffffffffffffffffffffffffffffff163b146115f1576115db84848484612121565b6115f0576115ef63d1a57ed660e01b611aa8565b5b5b50505050565b60135481565b6060600b60149054906101000a900460ff16156116a657600c805461162190612a04565b80601f016020809104026020016040519081016040528092919081815260200182805461164d90612a04565b801561169a5780601f1061166f5761010080835404028352916020019161169a565b820191906000526020600020905b81548152906001019060200180831161167d57829003601f168201915b5050505050905061178c565b6010600083815260200190815260200160002060009054906101000a900460ff161561175e57601180546116d990612a04565b80601f016020809104026020016040519081016040528092919081815260200182805461170590612a04565b80156117525780601f1061172757610100808354040283529160200191611752565b820191906000526020600020905b81548152906001019060200180831161173557829003601f168201915b5050505050905061178c565b600a61176983612250565b60405160200161177a929190612eae565b60405160208183030381529060405290505b919050565b600b60149054906101000a900460ff1681565b600d5481565b601260009054906101000a900473ffffffffffffffffffffffffffffffffffffffff1681565b6000600760008473ffffffffffffffffffffffffffffffffffffffff1673ffffffffffffffffffffffffffffffffffffffff16815260200190815260200160002060008373ffffffffffffffffffffffffffffffffffffffff1673ffffffffffffffffffffffffffffffffffffffff16815260200190815260200160002060009054906101000a900460ff16905092915050565b61186c611f4a565b8111156118a5576040517fc1ab6dc100000000000000000000000000000000000000000000000000000000815260040160405180910390fd5b34670de0b6b3a764000011156118e7576040517f3c6b4b2800000000000000000000000000000000000000000000000000000000815260040160405180910390fd5b6010600082815260200190815260200160002060009054906101000a900460ff16156010600083815260200190815260200160002060006101000a81548160ff0219169083151502179055507f80bb27007f4982b04cb14b3bcc40ff66cc89833ba97b38ea17a09b962b6209248161195d611f93565b60405161196b929190612edd565b60405180910390a150565b61197e611be1565b600073ffffffffffffffffffffffffffffffffffffffff168173ffffffffffffffffffffffffffffffffffffffff16036119f05760006040517f1e4fbdf70000000000000000000000000000000000000000000000000000000081526004016119e7919061251f565b60405180910390fd5b6119f981611e84565b50565b600081611a07611c68565b11611aa257611a14611c71565b821115611a3e57611a3760046000848152602001908152602001600020546122a0565b9050611aa3565b600054821015611aa15760005b6000600460008581526020019081526020016000205491508103611a7a5782611a7390612f06565b9250611a4b565b60007c01000000000000000000000000000000000000000000000000000000008216149150505b5b5b919050565b8060005260046000fd5b6000611abd83610f92565b9050818015611aff57508073ffffffffffffffffffffffffffffffffffffffff16611ae6611dd9565b73ffffffffffffffffffffffffffffffffffffffff1614155b15611b2b57611b1581611b10611dd9565b6117d0565b611b2a57611b2963cfb3b94260e01b611aa8565b5b5b836006600085815260200190815260200160002060000160006101000a81548173ffffffffffffffffffffffffffffffffffffffff021916908373ffffffffffffffffffffffffffffffffffffffff160217905550828473ffffffffffffffffffffffffffffffffffffffff168273ffffffffffffffffffffffffffffffffffffffff167f8c5be1e5ebec7d5bd14f71427d1e84f3dd0314c0f7b2291e5b200ac8c7c3b92560405160405180910390a450505050565b611be9611f93565b73ffffffffffffffffffffffffffffffffffffffff16611c0761118b565b73ffffffffffffffffffffffffffffffffffffffff1614611c6657611c2a611f93565b6040517f118cdaa7000000000000000000000000000000000000000000000000000000008152600401611c5d919061251f565b60405180910390fd5b565b60006001905090565b60007fffffffffffffffffffffffffffffffffffffffffffffffffffffffffffffffff905090565b600081611ca4611c68565b11611d9c5760046000838152602001908152602001600020549050611cc7611c71565b821115611cec57611cd7816122a0565b611dad57611ceb63df2d9b4260e01b611aa8565b5b60008103611d73576000548210611d0e57611d0d63df2d9b4260e01b611aa8565b5b5b60046000836001900393508381526020019081526020016000205490506000810315611d6e5760007c010000000000000000000000000000000000000000000000000000000082160315611dad57611d6d63df2d9b4260e01b611aa8565b5b611d0f565b60007c010000000000000000000000000000000000000000000000000000000082160315611dad575b611dac63df2d9b4260e01b611aa8565b5b919050565b60008060006006600085815260200190815260200160002090508092508254915050915091565b600033905090565b600073ffffffffffffffffffffffffffffffffffffffff8316925073ffffffffffffffffffffffffffffffffffffffff821691508382148383141790509392505050565b50505050565b60008060e883901c905060e8611e428686846122e1565b62ffffff16901b9150509392505050565b600073ffffffffffffffffffffffffffffffffffffffff83169250814260a01b178317905092915050565b50505050565b6000600960009054906101000a900473ffffffffffffffffffffffffffffffffffffffff16905081600960006101000a81548173ffffffffffffffffffffffffffffffffffffffff021916908373ffffffffffffffffffffffffffffffffffffffff1602179055508173ffffffffffffffffffffffffffffffffffffffff168173ffffffffffffffffffffffffffffffffffffffff167f8be0079c531659141344cd1fd0a4f28419497f9722a3daafe3b4186f6b6457e060405160405180910390a35050565b6000611f54611c68565b6000540390507fffffffffffffffffffffffffffffffffffffffffffffffffffffffffffffffff611f83611c71565b14611f9057600854810190505b90565b600033905090565b60008054905060008203611fba57611fb963b562e8dd60e01b611aa8565b5b611fc76000848385611e25565b611fe783611fd86000866000611e2b565b611fe1856122ea565b17611e53565b6004600083815260200190815260200160002081905550600160406001901b178202600560008573ffffffffffffffffffffffffffffffffffffffff1673ffffffffffffffffffffffffffffffffffffffff16815260200190815260200160002060008282540192505081905550600073ffffffffffffffffffffffffffffffffffffffff8473ffffffffffffffffffffffffffffffffffffffff161690506000810361209f5761209e632e07630060e01b611aa8565b5b6000838301905060008390506120b3611c71565b6001830311156120ce576120cd6381647e3a60e01b611aa8565b5b5b808360007fddf252ad1be2c89b69c2b068fc378daa952ba7f163c4a11628f55a4df523b3ef600080a48181600101915081036120cf578160008190555050505061211c6000848385611e7e565b505050565b60008373ffffffffffffffffffffffffffffffffffffffff1663150b7a02612147611dd9565b8786866040518563ffffffff1660e01b81526004016121699493929190612f84565b6020604051808303816000875af19250505080156121a557506040513d601f19601f820116820180604052508101906121a29190612fe5565b60015b6121fd573d80600081146121d5576040519150601f19603f3d011682016040523d82523d6000602084013e6121da565b606091505b5060008151036121f5576121f463d1a57ed660e01b611aa8565b5b805181602001fd5b63150b7a0260e01b7bffffffffffffffffffffffffffffffffffffffffffffffffffffffff1916817bffffffffffffffffffffffffffffffffffffffffffffffffffffffff191614915050949350505050565b606060a060405101806040526020810391506000825281835b60011561228b57600184039350600a81066030018453600a8104905080612269575b50828103602084039350808452505050919050565b60007c0100000000000000000000000000000000000000000000000000000000821673ffffffffffffffffffffffffffffffffffffffff8316119050919050565b60009392505050565b60006001821460e11b9050919050565b6000604051905090565b600080fd5b600080fd5b60007fffffffff0000000000000000000000000000000000000000000000000000000082169050919050565b6123438161230e565b811461234e57600080fd5b50565b6000813590506123608161233a565b92915050565b60006020828403121561237c5761237b612304565b5b600061238a84828501612351565b91505092915050565b60008115159050919050565b6123a881612393565b82525050565b60006020820190506123c3600083018461239f565b92915050565b600081519050919050565b600082825260208201905092915050565b60005b838110156124035780820151818401526020810190506123e8565b60008484015250505050565b6000601f19601f8301169050919050565b600061242b826123c9565b61243581856123d4565b93506124458185602086016123e5565b61244e8161240f565b840191505092915050565b600060208201905081810360008301526124738184612420565b905092915050565b6000819050919050565b61248e8161247b565b811461249957600080fd5b50565b6000813590506124ab81612485565b92915050565b6000602082840312156124c7576124c6612304565b5b60006124d58482850161249c565b91505092915050565b600073ffffffffffffffffffffffffffffffffffffffff82169050919050565b6000612509826124de565b9050919050565b612519816124fe565b82525050565b60006020820190506125346000830184612510565b92915050565b612543816124fe565b811461254e57600080fd5b50565b6000813590506125608161253a565b92915050565b6000806040838503121561257d5761257c612304565b5b600061258b85828601612551565b925050602061259c8582860161249c565b9150509250929050565b6000602082840312156125bc576125bb612304565b5b60006125ca84828501612551565b91505092915050565b600080fd5b600080fd5b600080fd5b60008083601f8401126125f8576125f76125d3565b5b8235905067ffffffffffffffff811115612615576126146125d8565b5b602083019150836001820283011115612631576126306125dd565b5b9250929050565b6000806000806040858703121561265257612651612304565b5b600085013567ffffffffffffffff8111156126705761266f612309565b5b61267c878288016125e2565b9450945050602085013567ffffffffffffffff81111561269f5761269e612309565b5b6126ab878288016125e2565b925092505092959194509250565b6126c28161247b565b82525050565b60006020820190506126dd60008301846126b9565b92915050565b6000806000606084860312156126fc576126fb612304565b5b600061270a86828701612551565b935050602061271b86828701612551565b925050604061272c8682870161249c565b9150509250925092565b6000806040838503121561274d5761274c612304565b5b600061275b8582860161249c565b925050602061276c8582860161249c565b9150509250929050565b61277f81612393565b811461278a57600080fd5b50565b60008135905061279c81612776565b92915050565b600080604083850312156127b9576127b8612304565b5b60006127c785828601612551565b92505060206127d88582860161278d565b9150509250929050565b600080fd5b7f4e487b7100000000000000000000000000000000000000000000000000000000600052604160045260246000fd5b61281f8261240f565b810181811067ffffffffffffffff8211171561283e5761283d6127e7565b5b80604052505050565b60006128516122fa565b905061285d8282612816565b919050565b600067ffffffffffffffff82111561287d5761287c6127e7565b5b6128868261240f565b9050602081019050919050565b82818337600083830152505050565b60006128b56128b084612862565b612847565b9050828152602081018484840111156128d1576128d06127e2565b5b6128dc848285612893565b509392505050565b600082601f8301126128f9576128f86125d3565b5b81356129098482602086016128a2565b91505092915050565b6000806000806080858703121561292c5761292b612304565b5b600061293a87828801612551565b945050602061294b87828801612551565b935050604061295c8782880161249c565b925050606085013567ffffffffffffffff81111561297d5761297c612309565b5b612989878288016128e4565b91505092959194509250565b600080604083850312156129ac576129ab612304565b5b60006129ba85828601612551565b92505060206129cb85828601612551565b9150509250929050565b7f4e487b7100000000000000000000000000000000000000000000000000000000600052602260045260246000fd5b60006002820490506001821680612a1c57607f821691505b602082108103612a2f57612a2e6129d5565b5b50919050565b600082905092915050565b60008190508160005260206000209050919050565b60006020601f8301049050919050565b600082821b905092915050565b600060088302612aa27fffffffffffffffffffffffffffffffffffffffffffffffffffffffffffffffff82612a65565b612aac8683612a65565b95508019841693508086168417925050509392505050565b6000819050919050565b6000612ae9612ae4612adf8461247b565b612ac4565b61247b565b9050919050565b6000819050919050565b612b0383612ace565b612b17612b0f82612af0565b848454612a72565b825550505050565b600090565b612b2c612b1f565b612b37818484612afa565b505050565b5b81811015612b5b57612b50600082612b24565b600181019050612b3d565b5050565b601f821115612ba057612b7181612a40565b612b7a84612a55565b81016020851015612b89578190505b612b9d612b9585612a55565b830182612b3c565b50505b505050565b600082821c905092915050565b6000612bc360001984600802612ba5565b1980831691505092915050565b6000612bdc8383612bb2565b9150826002028217905092915050565b612bf68383612a35565b67ffffffffffffffff811115612c0f57612c0e6127e7565b5b612c198254612a04565b612c24828285612b5f565b6000601f831160018114612c535760008415612c41578287013590505b612c4b8582612bd0565b865550612cb3565b601f198416612c6186612a40565b60005b82811015612c8957848901358255600182019150602085019450602081019050612c64565b86831015612ca65784890135612ca2601f891682612bb2565b8355505b6001600288020188555050505b50505050505050565b7f4e487b7100000000000000000000000000000000000000000000000000000000600052601160045260246000fd5b6000612cf68261247b565b9150612d018361247b565b9250828201905080821115612d1957612d18612cbc565b5b92915050565b600081519050612d2e81612485565b92915050565b600060208284031215612d4a57612d49612304565b5b6000612d5884828501612d1f565b91505092915050565b6000612d6c8261247b565b9150612d778361247b565b9250828202612d858161247b565b91508282048414831517612d9c57612d9b612cbc565b5b5092915050565b600081905092915050565b60008154612dbb81612a04565b612dc58186612da3565b94506001821660008114612de05760018114612df557612e28565b60ff1983168652811515820286019350612e28565b612dfe85612a40565b60005b83811015612e2057815481890152600182019150602081019050612e01565b838801955050505b50505092915050565b6000612e3c826123c9565b612e468185612da3565b9350612e568185602086016123e5565b80840191505092915050565b7f2e6a736f6e000000000000000000000000000000000000000000000000000000600082015250565b6000612e98600583612da3565b9150612ea382612e62565b600582019050919050565b6000612eba8285612dae565b9150612ec68284612e31565b9150612ed182612e8b565b91508190509392505050565b6000604082019050612ef260008301856126b9565b612eff6020830184612510565b9392505050565b6000612f118261247b565b915060008203612f2457612f23612cbc565b5b600182039050919050565b600081519050919050565b600082825260208201905092915050565b6000612f5682612f2f565b612f608185612f3a565b9350612f708185602086016123e5565b612f798161240f565b840191505092915050565b6000608082019050612f996000830187612510565b612fa66020830186612510565b612fb360408301856126b9565b8181036060830152612fc58184612f4b565b905095945050505050565b600081519050612fdf8161233a565b92915050565b600060208284031215612ffb57612ffa612304565b5b600061300984828501612fd0565b9150509291505056fea264697066735822122054b8d82c8e1da4ec09c18448e0e5ace6784ab7aecae9992c1412a2817204325464736f6c6343000818003368747470733a2f2f7275676769657370697a7a612e636f6d2f72756774617264732f7275676765642f7275676765642e6a736f6e68747470733a2f2f7275676769657370697a7a612e636f6d2f72756774617264732f68696464656e2f68696464656e2e6a736f6e",
  "linkReferences": {},
  "deployedLinkReferences": {}
}